:020000040000FA
:1000000090F9FF1F670100007301000075010000F7
:1000100000000000000000000000000000000000E0
:100020000000000000000000000000007701000058
:1000300000000000000000007901000051130000E2
:100040007D0100007D0100007D0100007D010000B8
:100050007D0100007D0100007D0100001D0E0000FB
:100060007D0100007D0100007D0100007D01000098
:10007000511500005B15000065150000AD03000080
:100080007D0100007D0100007D0100007D01000078
:10009000411200007D0100007D0100007D01000093
:1000A000CD0E00007D0100007D0100007D010000FB
:1000B0007D0100007D0100007D0100007D01000048
:1000C00000F002F800F03EF80CA030C80838241800
:1000D0002D18A246671EAB4654465D46AC4201D180
:1000E00000F030F87E460F3E0FCCB6460126334274
:1000F00000D0FB1AA246AB463343184790190000C4
:10010000B0190000103A02D378C878C1FAD8520763
:1001100001D330C830C101D504680C6070470000BD
:100120000023002400250026103A01D378C1FBD813
:10013000520700D330C100D50B6070471FB51FBDFB
:1001400010B510BD00F0FEF81146FFF7F7FF01F003
:10015000E1FB00F016F903B4FFF7F2FF03BC00F077
:100160001FF900007047094880470948804709483F
:100170000047FEE7FEE7FEE7FEE7FEE7FEE70000DA
:1001800005480649044A064B70470000A3140000C6
:1001900065010000C100000090F8FF1F90F9FF1FEB
:1001A00090F8FF1F01E004C0091F0429FBD28B0750
:1001B00001D50280801CC90700D002707047002959
:1001C0000BD0C30702D00270401C491E022904D381
:1001D000830702D50280801C891EE3E70022EEE738
:1001E0000022DFE7002203098B422CD3030A8B4253
:1001F00011D300239C464EE003460B433CD400221F
:1002000043088B4231D303098B421CD3030A8B4230
:1002100001D394463FE0C3098B4201D3CB01C01AFE
:10022000524183098B4201D38B01C01A52414309C9
:100230008B4201D34B01C01A524103098B4201D3B7
:100240000B01C01A5241C3088B4201D3CB00C01A24
:10025000524183088B4201D38B00C01A524143089C
:100260008B4201D34B00C01A5241411A00D20146C1
:100270005241104670475DE0CA0F00D0494203105A
:1002800000D34042534000229C4603098B422DD3A9
:10029000030A8B4212D3FC22890112BA030A8B4251
:1002A0000CD3890192118B4208D3890192118B42A0
:1002B00004D389013AD0921100E08909C3098B4225
:1002C00001D3CB01C01A524183098B4201D38B0168
:1002D000C01A524143098B4201D34B01C01A52410B
:1002E00003098B4201D30B01C01A5241C3088B4250
:1002F00001D3CB00C01A524183088B4201D38B003B
:10030000C01A5241D9D243088B4201D34B00C01AC4
:100310005241411A00D20146634652415B101046D9
:1003200001D34042002B00D54942704763465B1021
:1003300000D3404201B50020C046C04602BD704710
:1003400070477047754600F025F8AE4605006946CF
:100350005346C008C000854618B020B5FFF710FF0F
:1003600060BC00274908B6460026C0C5C0C5C0C548
:10037000C0C5C0C5C0C5C0C5C0C5403D49008D464B
:10038000704710B50446C046C0462046FFF7E3FE5E
:1003900010BD00000048704730F8FF1F7047000094
:1003A00001491820ABBEFEE726000200704700009E
:1003B0001CB555216A461170AA2151700621917011
:1003C0000849C978D17010710521684600F004FC15
:1003D0006A465071044806226946007801F0E3F944
:1003E0001CBD000098F5FF1F70F0FF1F012189035D
:1003F000086880F3088848688047FEE700887047EF
:10040000FFFFFFFFFFFFFFFFFFFFFFFFFFFFFEFEFE
:1004100070B53A4E3079B41DF02802D2FF20FFF7B4
:10042000C7FF307901280FD00021082819D0FF28F4
:1004300009D13248F2788030C07E824203D12F4801
:10044000A0304177017770BD7079042807D00A2861
:10045000F9D10C220121084600F084FE70BD032270
:10046000F8E7707901280ED0254D022814D0032812
:1004700025D00428F2D172B600F062FF00F06CFEC5
:10048000FFF7B4FFFEE720780028E7D11D480222DD
:1004900081681143816070BD207861780002401846
:1004A000298880B28842F6D1B078A11C093882B27E
:1004B0001348803801F078FA0120287570BD696012
:1004C0002078000668606278120410436860A278A1
:1004D000120210436860E278A960104368602079D6
:1004E0000006A860617909040843A860A17909029F
:1004F0000843A860E1790843A86070BD98F5FF1F24
:10050000D8F6FF1F00F1FF1FF8B52A4E002734462A
:10051000294D803448E000F013FAE07D002806D031
:1005200001280ED0022816D003283DD123E0012255
:100530002049287801F021F93078AA2834D1012007
:1005400017E00122711C287801F017F970785528FE
:100550000CD102200DE00122B11C287801F00DF928
:10056000B078A075962801D2032801D8E7751BE062
:100570000320E07518E0A07DF11CC01E82B228782F
:1005800001F0FBF8002814D0A07D401EC1B209483C
:1005900000F022FB0749A27D491E515C884201D12F
:1005A000FFF736FFE775A775287801F0E1F8002816
:1005B000B1D1F8BD98F5FF1F70F0FF1F10B501F025
:1005C00007FA10BD10B500F0BBFE10BD10B500203D
:1005D00001F040FA10BD000009480021816109497D
:1005E0004161072101610848C16903220902090A22
:1005F00092071143C1610549400708607047000038
:1006000000E000E0FF70020004ED00E000E100E027
:1006100010B5E12464022146002000F0C7FE214607
:10062000012000F0C3FE2146022000F0BFFE10BDF5
:100630001CB56946088804210843182188434021D5
:100640000843FF21833188436946803008807D203C
:100650004001488000208880684601F01FF901F0C1
:10066000FFF81CBD10B50446083000F055FD606869
:1006700000F098FB0F480178FB22114001700178CF
:100680008906890E803101704178EF221140417056
:1006900001790907890F0229FAD10179C906FCD429
:1006A0004178C906C90E4170017980221143017158
:1006B00010BD00000040064010B50446083000F0B0
:1006C0002BFD606800F06EFB09480178FB221140A9
:1006D00001700179C906FCD401794906FCD541783D
:1006E000C906C90E4170017980221143017110BD04
:1006F0000040064010B50446083000F00DFD60686B
:1007000000F050FB09480178FB221140017001798B
:10071000C906FCD401794906FCD54178C906C90E41
:100720004170017980221143017110BD00400640E3
:1007300030B50024810701D0154830BD154D30215A
:100740006971002169700A216972010C2972012105
:1007500069702872000A6872084600F053F86879D8
:10076000800601D50A4CE41D6879C00602D5084808
:100770000F3004436879C00702D0054810300443A5
:100780006879800702D5024811300443204630BD05
:10079000013000000000024070B500241549FFF749
:1007A00021FD401EC1B214484279120601D41348FB
:1007B00070BDC2785306124A12D4C3781B0607D5FF
:1007C000C3788D069B069B0EAD0EAB4200D014463F
:1007D000C278890692099201890E0A43C27007E025
:1007E000C07889068006800E890E884200D01446A3
:1007F000204670BD40420F0000000240143000004F
:10080000183000000749CA6801231B041A43CA6054
:10081000054980224A71002802D048790006FCD59B
:1008200070470000003000F00000024030B50024A6
:10083000820701D01B4830BD1B4D30226A71002257
:100840006A7006226A72020C2A7201226A70287289
:10085000000A687202206870080A68722972032010
:100860006870080E6872080C28721046FFF7CAFFFD
:100870006879800601D50B4CE41D6879C00602D565
:1008800008480F3004436879C00702D0054810308B
:1008900004436879800702D502481130044320469A
:1008A00030BD0000013000000000024030B50025DE
:1008B000830701D0204830BD204C302363710023D2
:1008C000637006236372030C23720123637020722A
:1008D000000A607202206070080A607221720320B0
:1008E0006070080E6072080C207204206070100A9C
:1008F0006072227205206070100E6072100C2072FF
:100900000120FFF77FFF6079800601D50A4DED1DBC
:100910006079C00602D508480F3005436079C007EA
:1009200002D00548103005436079800702D502489F
:1009300011300543284630BD013000000000024060
:1009400010B500F09DFF10BDF8B5064614460D46E3
:10095000800741D112E0284601F070F803462D1DB2
:10096000284601F06BF80246194630462D1DFFF768
:100970009DFF002830D1083CA4B20836E008EAD137
:100980000CE0284601F05AF8014630462D1DFFF7CD
:100990004DFF002820D1241FA4B2361DA008F0D19D
:1009A000002C1BD000210846FF2701E0002C07D0B7
:1009B0002A78C3009A40641E1143A4B26D1C03E060
:1009C000C3003A469A401143401C0428EED33046F7
:1009D000FFF72CFF002801D00020F8BD0120F8BD52
:1009E0000121202802D28140084805E0402805D294
:1009F0002038814005484030816070474828FCD24B
:100A00004038814001488030F6E7000000F00F4098
:100A100030B50124624B20282DD20122614D824045
:100A200000290FD0012913D002291AD0032921D17E
:100A3000696911436961A9691143A9619968914381
:100A4000996065E0686910436861A869104304E033
:100A5000686990436861A8699043A8619868904369
:100A600007E0686990436861A8699043A861986845
:100A70001043986030BD402833D24A4A2038403273
:100A8000C0B2002911D0012916D002291ED0032995
:100A9000F0D15569214681400D43556195690D435B
:100AA0009561DA688A43DA6032E051698440214313
:100AB00051619069204305E051698440A14351612F
:100AC0009069A0439061D868A04308E051698440D0
:100AD000A14351619069A0439061D8682043D860D8
:100AE00030BD304A40388032C0B200291ED00129C2
:100AF00023D002292BD00329F2D155692146814008
:100B00000D43556195690D4395611A698A431A61D0
:100B100020283BD026DC0C282ED00D2830D01828D9
:100B200031D01928DCD15869082123E0516984406B
:100B3000214351619069204305E051698440A143FC
:100B400051619069A04390611869A04308E0516920
:100B50008440A14351619069A0439061186920438A
:100B6000186130BD212814D0382815D03928F8D183
:100B700058698021084301E058692043586130BD1D
:100B800058690221F6E758690421F3E758691021F2
:100B9000F0E758692021EDE758694021EAE70000B5
:100BA0000090044000F00F400121202802D2814033
:100BB000084805E0402805D22038814005484030EB
:100BC000416070474828FCD240388140014880305D
:100BD000F6E7000000F00F400246002002E0137824
:100BE0005840521C0B46491EC9B2002BF7D1704722
:100BF000F8B50E460446451E17466421401EFFF711
:100C0000FBFAE917890F4919891009190D1AFF21F3
:100C10009131601EFFF7F0FA12492818891920391E
:100C2000C97F0D18022E0ED9A00705D164212046D8
:100C3000FFF7E2FA002910D1FF2191312046FFF79A
:100C4000DBFA002909D000204019C0190721401DF6
:100C5000FFF7D2FA002902D002E00120F4E70721D1
:100C6000C8B2F8BD801A0000F8B51D4F3978787900
:100C7000491CC9B23A79BD79044639703C292DD353
:100C800000233B707978491CC9B279703C2925D37F
:100C90007B70B978491CC9B2B97018291ED3521C8F
:100CA000BB70D6B2002100F01DF886420BD9301A75
:100CB000641CE4B2C6B20C2C05D96D1C0124EDB243
:100CC000642D00D100253E717D20BD7100017C7135
:100CD000324621462818FFF78BFFF870F8BD000058
:100CE00072F0FF1F1EB5024607A019C800906846A3
:100CF0008018029401932038C07F022A02D1012972
:100D000000D11D201EBD00001F1C1F1E1F1E1F1F07
:100D10001E1F1E1F034A000110B58018012200F09B
:100D200067FA10BD80F0FF1F10B572B600F008FB27
:100D300000F07CF807480021417500F085F800F0CC
:100D400085FDFFF765FC04480222816891438160BC
:100D500010BD0000D8F6FF1F00F1FF1F00B501789D
:100D600002290AD0EF2203290ED0052912D00C48FF
:100D70004178C906C90E417000BD017A3022114385
:100D80000172FFF799FC00BD017A11400172FFF773
:100D9000B1FC00BD017A11400172FFF763FC00BD98
:100DA0000040064030B5124B7D24C51A1149C722B8
:100DB0006401984206D009DC202814D0001B0ED014
:100DC000A04213D10878104018300EE00A482818C5
:100DD00001D0A0420AD108781040203005E0087800
:100DE0001040103001E008781040087030BD00005D
:100DF000102700000040064090E8FFFF0649887079
:100E0000CA78C00552085200C00F0243CA70087960
:100E10004006FCD5704700000040064002480178BB
:100E200004221143017070470010034010B57F2465
:100E3000A4022046FFF77CFC02492046FFF7F6FC9F
:100E400010BD00005555AAAA10B57F24A402204663
:100E5000FFF76EFC02492046FFF7E8FC10BD0000DA
:100E6000AAAA55557F20800200680549884202D011
:100E7000C943884201D1012070470020704700001B
:100E80005555AAAA7F20800200680349884201D1F3
:100E90000120704700207047AAAA5555FF20400244
:100EA00000680349884201D1012070470020704743
:100EB0005555AAAAFF20400200680349884201D183
:100EC000012070470020704755AA55AABFF34F8FE5
:100ED00003490248C860BFF34F8FFEE70400FA05DC
:100EE00000ED00E010B5012803D01A20FFF778FDCF
:100EF00010BD1A20FFF758FE10BD10B500211A20B2
:100F0000FFF786FD10BD0000F8B52E4C00256946A0
:100F10000120FFF7FFFE002852D0684640880027D6
:100F2000C6B268460078012802D0082820D10FE018
:100F3000032E02D00C2E1BD106E010252A4622A13A
:100F4000204600F031FD13E00120207005460FE03F
:100F5000012E03D0022E04D0032E09D12770677012
:100F600005E01D480188090A21700078607002259B
:100F7000144C55201E3C2076AA206076ED1DA576E7
:100F8000E07E6D1E401CE0766846007820772046A3
:100F900066771830E9B20646FFF71EFE2546203573
:100FA0006876A27E2146173150540C48A27E314605
:100FB000007800F0F8FB01206877AF76EF762877AD
:100FC000F8BD000036F6FF1F424F4F542E302E3131
:100FD00039303330312E3000D8F6FF1F70F0FF1F4C
:100FE000F8B53A4C0025607D002816D021460969E5
:100FF00001281BD00326022828D003280CD17D29E4
:1010000009D32561E168A06881425BD103220821F0
:10101000012000F0A7F86675F8BD012208211046EE
:1010200000F0A0F8012025616075F8BD6068002817
:1010300003D002206075258042E00A29F5D3012201
:1010400025610821012000F08DF8F8BD207D0028E1
:1010500033D01E49002080390B5CE268401CD21856
:10106000C0B2E2608028F7D32088194F810704D1ED
:1010700080084002C019FFF75BFB20881349C001BC
:10108000C01980228039FFF75FFC257561682088D0
:101090007F31C909401C884201D366750BE020806E
:1010A0000A4880220021803800F089FC02220821B1
:1010B000012000F057F82561F8BD3229FCD32561E5
:1010C0000222BEE700F0C2FB6575F8BDD8F6FF1F2F
:1010D000004000008307FF22DB0E9A408907090EBB
:1010E000994000280BDA0007000F083883080848E9
:1010F0009B001818C36993430B43C361704783086F
:1011000004489B001818036893430B43036070471F
:1011100000ED00E000E400E002780021930700D534
:101120000221D30701D004231943130701D520233B
:101130001943D30601D510231943520701D5802244
:101140001143044A11700078800602D51078C00758
:10115000FCD070470050064010B57F208002FFF79A
:10116000E7FA10BD08B56B461970044900015A80B2
:1011700040180122694600F003F808BD80F0FF1F07
:10118000F8B50F460446E188164600880025891BFD
:10119000884201DD0020F8BD72B60DE04019FFF76E
:1011A00021F82289E0685143081811466943C9199A
:1011B00000F0FAFB6D1CADB2E1886088B542EDD35A
:1011C0008019FFF70FF8618020888019208062B6AF
:1011D0000120F8BD10B50021018041808180C188C7
:1011E0000289C06851438AB2002100F0E8FB10BDBB
:1011F000F8B504460088164600250F46B04201D2D5
:101200000020F8BD72B60DE04019FEF7EBFF228911
:10121000E0685143091810466843C01900F0C4FB48
:101220006D1CADB2E188A088B542EDD38019FEF700
:10123000D9FFA1802088801B208062B60120F8BDE4
:1012400010B504480168802211430160FFF70CFDCE
:1012500010BD000000D0034010B50F4C20784107AE
:1012600002D5FB2108402070C0B2010704D5F72148
:101270000840207000F062F92078C10602D5EF2105
:1012800008402070C0B2C10904D04006400E207052
:1012900000F036F910BD000000F1FF1F30B5026804
:1012A0000E210469D30400D50C21130501D50423B4
:1012B0009943530501D508239943D30702D001234D
:1012C000DB041943530702D501239B03194313077A
:1012D00002D501231B031943930702D50123DB0326
:1012E0001943930501D52023194343795B075B0B11
:1012F0000B4301790D06D1051D43490FC368826870
:101300000905034829434160C2604361446230BD1E
:101310000080044070B50125084C6D04012806D0FA
:101320000A20FFF75DFBA068A843A06070BD0A20FB
:10133000FFF73AFCA0682843F7E7000000F1FF1F21
:1013400010B50248FFF728FA10BD0000002D31014A
:1013500070B5144D04212C69641C2C612878084355
:101360002870E10702D1082108432870A00703D1A3
:101370002878102108432870600703D1287820219D
:101380000843287019212046FEF72CFF002903D1BD
:1013900028788021084328700348844201D1002026
:1013A000286170BD00F1FF1FB80B0000FEB50400FE
:1013B0002448254E254D0291019009D024497700FB
:1013C000012C12D0022C2BD0032C1FD00020FEBDEC
:1013D000204F6946384600F031F90221384600F0C6
:1013E000F9F82E6001210C200EE00869B043086175
:1013F000194E6946304600F021F90221304600F0CE
:10140000E9F82F6001210D20FFF764FE012120463D
:1014100000F080F90021204600F07CF90120FEBD9B
:101420000869B84308610D4E6946304600F006F978
:101430000221304600F0CEF801208003286001210F
:101440000E20E1E7002D31010010000000E100E076
:101450000080044000A0064000B0064000C00640E6
:10146000022000E000BF0146401EC0B20029F9D1B1
:1014700000BF00BF00BF00BF00BF704710B57D2494
:101480000346E40002E0204600F003F85B1EFAD2B7
:1014900010BD00B5024601E0FFF7E2FF521EFBD28D
:1014A00000BD704710480F49818001214170232100
:1014B00001700E4841782022114341700C4A0021EE
:1014C00051620622027042781207120F20324270D7
:1014D000084A11700179C906FCD501790907890FFD
:1014E000FBD1704703E800000020054000400640A3
:1014F000008004400050064010B5FFF705FD10BD08
:1015000010B50C490888401C80B208800A21FEF7FB
:1015100069FE002902D0052902D004E0012000E084
:101520000020FFF7DFFC0448007A800701D5FFF7B1
:10153000FBFB10BD00F0FF1F00F1FF1F10B50348BB
:101540000169491C0161FFF7D7FF10BDD8F6FF1FE5
:1015500010B5002000F0A8F810BD10B5012000F073
:10156000A3F810BD10B5022000F09EF810BD00B524
:101570000A4600F05DF801219140084000BD0029B5
:1015800010D0012912D0022915D0032916D0042920
:1015900018D0052919D0FD22062901D0072909D123
:1015A000817914E0C1784906490E02E0C178BF2272
:1015B00006E0C1707047C178DF2201E0C178EF22F8
:1015C0001140F6E78179F72201E08179FB22114091
:1015D00081717047002910D0012911D0022914D03F
:1015E000032915D0042916D0052917D0022206296F
:1015F00001D0072908D1817912E0C178802201E069
:10160000C17840221143C1707047C1782022F9E7A8
:10161000C1781022F6E78179082201E0817904225D
:1016200011438171704701798906FCD5C0797047F3
:1016300001464079097900020843704770B50446B5
:101640004A68164B896816489C4203D143690125B4
:101650002D0508E0134B9C42436902D101256D051D
:1016600001E00125AD052B434361E078F3231840E9
:10167000E0700020A07010094A088018FEF7B2FD43
:101680002178C20449094901D20E0A4322706070D0
:10169000E0780C210843E07070BD000000A0064017
:1016A0000080044000B0064070B50F4D064684002F
:1016B00028590521FFF75BFF002806D02859FFF7BE
:1016C000B2FF0146304600F09FF828590621FFF787
:1016D0004EFF002806D02859C078400602D5304673
:1016E00000F099F870BD000064F0FF1F0279120647
:1016F000FCD5C17170470000054A10B5C0008018C4
:1017000089004058002801D0FEF778FE10BD000087
:10171000601A0000C200054810B510188900405832
:10172000002801D0FFF756FD10BD0000601A000030
:1017300010B51446054AC00080188900405800289A
:1017400003D01A462146FFF753FD10BD601A000072
:1017500010B51446054AC00080188900405800287A
:1017600003D01A462146FFF70BFD10BD601A00009A
:1017700010B50021FFF7C0FF10BD134610B50A4693
:101780000021FFF7D5FF10BD10B5034A80001058A7
:10179000FFF7ACFF10BD000064F0FF1F10B5012182
:1017A000FFF7AAFF10BD70B514460E460546FFF7B9
:1017B000F5FF00282346324607D001212846FFF7CF
:1017C000C7FF002800D0012070BD01212846FFF787
:1017D000BFFF0028F8D0284600F01DF8F3E700000E
:1017E00010B50349800008580121FFF7C8FE10BD5D
:1017F00064F0FF1F10B50349800008580121FFF76E
:10180000E9FE10BD64F0FF1F13B5012301AA0021FA
:10181000FFF79EFF1CBD38B50446FFF7BFFF002849
:1018200010D001236A4619462046FFF781FF0028A1
:1018300007D0684601782046FFF7A6FF2046FFF74D
:10184000D9FF38BD2046FFF7CBFF38BD10B5982231
:101850000021024800F0B3F810BD000058F6FF1F49
:101860000448017880221143034A4280034A42809F
:101870000170704700200540C5200000D9280000F5
:1018800072B60349034841800349418062B67047FC
:10189000A602000000200540B480000030B5448856
:1018A0008388008880210022850700D50021C50794
:1018B00001D040252943050701D501252943C50647
:1018C00001D504252943450701D5022529434506AD
:1018D00001D520252943850600D58022850501D51F
:1018E00010252A43C005850F15430848064A428043
:1018F000074A428045704471220A0271C3711A0A74
:101900008271017030BD0000C5200000002005403C
:10191000D928000072B6FFF7A5FA002801D1FEF71A
:1019200065FDFFF7AFFA00281CD0FFF7BBFDFEF7FF
:1019300045FEFEF751FEFEF77BFE00210720FFF774
:1019400067F800210A20FFF763F8FFF7D6FA0120B5
:10195000FFF7E0FC0720FFF727F96420FFF78EFD73
:10196000FEF730FEFFF770FAFFF798FA0D4A0028ED
:1019700001D0022004E0FFF79DFA002801D00120E9
:101980001070FFF763FFFEF743FEFEF71FFE62B61F
:10199000FEF7D6FFFFF724FBFFF75EFCFEF7B4FD72
:1019A000F6E7000070F0FF1F03E00B780370401CA7
:1019B000491C1346521E92B2002BF6D1704701E02B
:1019C0000170401C1346521E92B2002BF8D1704792
:1019D00000B589B0142103A8FEF702FC00201549C8
:1019E000009001900290088048805820FFF706FA86
:1019F000012103980903084303900F4906980843FF
:101A000006900121079809060843079003A8FFF7ED
:101A100045FC6946087A05210843694608727D201D
:101A200080010190022008706846FFF797F909B01D
:101A300000BD00007AF0FF1F00307000427801788E
:101A400012020A438178C078090411430006084352
:101A500070470000014988607047000000ED00E019
:101A600014F0FF1F04F0FF1F34F0FF1F24F0FF1FCE
:101A700054F0FF1F44F0FF1F0000000000000000B2
:101A8000010404070205070306010406AC1A00005E
:101A900000F0FF1F0001000004010000AC1B00006B
:101AA00000F1FF1F9008000020010000000000006E
:101AB00000000000000080000100000018F1FF1F7E
:101AC00000000000000000010100000098F1FF1F6D
:101AD00000000000000080000100000098F2FF1FDD
:101AE00000000000000000010100000018F3FF1FCB
:101AF00000000000000080000100000018F4FF1F3B
:101B000000000000000000010100000098F4FF1F29
:101B100000A0064000B0064000C0064000000000E3
:101B200000000000000000000000000000000000B5
:101B300000000A0004000000F0F6FF1F0000000093
:101B400000000A000400000018F7FF1F000000005A
:101B500000000A000400000040F7FF1F0000000022
:101B600000000A000400000068F7FF1F00000000EA
:101B700000000A000400000090F7FF1F00000000B2
:101B800000000A0004000000B8F7FF1F000000007A
:101B900000000A0004000000E0F7FF1F0000000042
:0C1BA00000000A000400000008F8FF1F0D
:04000005000000C136
:00000001FF
