:020000040000FA
:1000000090F9FF1F670100007301000075010000F7
:1000100000000000000000000000000000000000E0
:100020000000000000000000000000007701000058
:1000300000000000000000007901000051130000E2
:100040007D0100007D0100007D0100007D010000B8
:100050007D0100007D0100007D0100001D0E0000FB
:100060007D0100007D0100007D0100007D01000098
:10007000511500005B15000065150000AD03000080
:100080007D0100007D0100007D0100007D01000078
:10009000411200007D0100007D0100007D01000093
:1000A000CD0E00007D0100007D0100007D010000FB
:1000B0007D0100007D0100007D0100007D01000048
:1000C00000F002F800F03EF80CA030C80838241800
:1000D0002D18A246671EAB4654465D46AC4201D180
:1000E00000F030F87E460F3E0FCCB6460126334274
:1000F00000D0FB1AA246AB463343184790190000C4
:10010000B0190000103A02D378C878C1FAD8520763
:1001100001D330C830C101D504680C6070470000BD
:100120000023002400250026103A01D378C1FBD813
:10013000520700D330C100D50B6070471FB51FBDFB
:1001400010B510BD00F0FEF81146FFF7F7FF01F003
:10015000E1FB00F016F903B4FFF7F2FF03BC00F077
:100160001FF900007047094880470948804709483F
:100170000047FEE7FEE7FEE7FEE7FEE7FEE70000DA
:1001800005480649044A064B70470000A3140000C6
:1001900065010000C100000090F8FF1F90F9FF1FEB
:1001A00090F8FF1F01E004C0091F0429FBD28B0750
:1001B00001D50280801CC90700D002707047002959
:1001C0000BD0C30702D00270401C491E022904D381
:1001D000830702D50280801C891EE3E70022EEE738
:1001E0000022DFE7002203098B422CD3030A8B4253
:1001F00011D300239C464EE003460B433CD400221F
:1002000043088B4231D303098B421CD3030A8B4230
:1002100001D394463FE0C3098B4201D3CB01C01AFE
:10022000524183098B4201D38B01C01A52414309C9
:100230008B4201D34B01C01A524103098B4201D3B7
:100240000B01C01A5241C3088B4201D3CB00C01A24
:10025000524183088B4201D38B00C01A524143089C
:100260008B4201D34B00C01A5241411A00D20146C1
:100270005241104670475DE0CA0F00D0494203105A
:1002800000D34042534000229C4603098B422DD3A9
:10029000030A8B4212D3FC22890112BA030A8B4251
:1002A0000CD3890192118B4208D3890192118B42A0
:1002B00004D389013AD0921100E08909C3098B4225
:1002C00001D3CB01C01A524183098B4201D38B0168
:1002D000C01A524143098B4201D34B01C01A52410B
:1002E00003098B4201D30B01C01A5241C3088B4250
:1002F00001D3CB00C01A524183088B4201D38B003B
:10030000C01A5241D9D243088B4201D34B00C01AC4
:100310005241411A00D20146634652415B101046D9
:1003200001D34042002B00D54942704763465B1021
:1003300000D3404201B50020C046C04602BD704710
:1003400070477047754600F025F8AE4605006946CF
:100350005346C008C000854618B020B5FFF710FF0F
:1003600060BC00274908B6460026C0C5C0C5C0C548
:10037000C0C5C0C5C0C5C0C5C0C5403D49008D464B
:10038000704710B50446C046C0462046FFF7E3FE5E
:1003900010BD00000048704730F8FF1F7047000094
:1003A00001491820ABBEFEE726000200704700009E
:1003B0001CB555216A461170AA2151700621917011
:1003C0000849C978D17010710521684600F004FC15
:1003D0006A465071044806226946007801F0E3F944
:1003E0001CBD000098F5FF1F70F0FF1F012189035D
:1003F000086880F3088848688047FEE700887047EF
:10040000FFFFFFFFFFFFFFFFFFFFFFFFFFFFFEFEFE
:1004100070B53A4E3079B41DF02802D2FF20FFF7B4
:10042000C7FF307901280FD00021082819D0FF28F4
:1004300009D13248F2788030C07E824203D12F4801
:10044000A0304177017770BD7079042807D00A2861
:10045000F9D10C220121084600F084FE70BD032270
:10046000F8E7707901280ED0254D022814D0032812
:1004700025D00428F2D172B600F062FF00F06CFEC5
:10048000FFF7B4FFFEE720780028E7D11D480222DD
:1004900081681143816070BD207861780002401846
:1004A000298880B28842F6D1B078A11C093882B27E
:1004B0001348803801F078FA0120287570BD696012
:1004C0002078000668606278120410436860A278A1
:1004D000120210436860E278A960104368602079D6
:1004E0000006A860617909040843A860A17909029F
:1004F0000843A860E1790843A86070BD98F5FF1F24
:10050000D8F6FF1F00F1FF1FF8B52A4E002734462A
:10051000294D803448E000F013FAE07D002806D031
:1005200001280ED0022816D003283DD123E0012255
:100530002049287801F021F93078AA2834D1012007
:1005400017E00122711C287801F017F970785528FE
:100550000CD102200DE00122B11C287801F00DF928
:10056000B078A075962801D2032801D8E7751BE062
:100570000320E07518E0A07DF11CC01E82B228782F
:1005800001F0FBF8002814D0A07D401EC1B209483C
:1005900000F022FB0749A27D491E515C884201D12F
:1005A000FFF736FFE775A775287801F0E1F8002816
:1005B000B1D1F8BD98F5FF1F70F0FF1F10B501F025
:1005C00007FA10BD10B500F0BBFE10BD10B500203D
:1005D00001F040FA10BD000009480021816109497D
:1005E0004161072101610848C16903220902090A22
:1005F00092071143C1610549400708607047000038
:1006000000E000E0FF70020004ED00E000E100E027
:1006100010B5E12464022146002000F0C7FE214607
:10062000012000F0C3FE2146022000F0BFFE10BDF5
:100630001CB56946088804210843182188434021D5
:100640000843FF21833188436946803008807D203C
:100650004001488000208880684601F01FF901F0C1
:10066000FFF81CBD10B50446083000F055FD606869
:1006700000F098FB0F480178FB22114001700178CF
:100680008906890E803101704178EF221140417056
:1006900001790907890F0229FAD10179C906FCD429
:1006A0004178C906C90E4170017980221143017158
:1006B00010BD00000040064010B50446083000F0B0
:1006C0002BFD606800F06EFB09480178FB221140A9
:1006D00001700179C906FCD401794906FCD541783D
:1006E000C906C90E4170017980221143017110BD04
:1006F0000040064010B50446083000F00DFD60686B
:1007000000F050FB09480178FB221140017001798B
:10071000C906FCD401794906FCD54178C906C90E41
:100720004170017980221143017110BD00400640E3
:1007300030B50024810701D0154830BD154D30215A
:100740006971002169700A216972010C2972012105
:1007500069702872000A6872084600F053F86879D8
:10076000800601D50A4CE41D6879C00602D5084808
:100770000F3004436879C00702D0054810300443A5
:100780006879800702D5024811300443204630BD05
:10079000013000000000024070B500241549FFF749
:1007A00021FD401EC1B214484279120601D41348FB
:1007B00070BDC2785306124A12D4C3781B0607D5FF
:1007C000C3788D069B069B0EAD0EAB4200D014463F
:1007D000C278890692099201890E0A43C27007E025
:1007E000C07889068006800E890E884200D01446A3
:1007F000204670BD40420F0000000240143000004F
:10080000183000000749CA6801231B041A43CA6054
:10081000054980224A71002802D048790006FCD59B
:1008200070470000003000F00000024030B50024A6
:10083000820701D01B4830BD1B4D30226A71002257
:100840006A7006226A72020C2A7201226A70287289
:10085000000A687202206870080A68722972032010
:100860006870080E6872080C28721046FFF7CAFFFD
:100870006879800601D50B4CE41D6879C00602D565
:1008800008480F3004436879C00702D0054810308B
:1008900004436879800702D502481130044320469A
:1008A00030BD0000013000000000024030B50025DE
:1008B000830701D0204830BD204C302363710023D2
:1008C000637006236372030C23720123637020722A
:1008D000000A607202206070080A607221720320B0
:1008E0006070080E6072080C207204206070100A9C
:1008F0006072227205206070100E6072100C2072FF
:100900000120FFF77FFF6079800601D50A4DED1DBC
:100910006079C00602D508480F3005436079C007EA
:1009200002D00548103005436079800702D502489F
:1009300011300543284630BD013000000000024060
:1009400010B500F09DFF10BDF8B5064614460D46E3
:10095000800741D112E0284601F070F803462D1DB2
:10096000284601F06BF80246194630462D1DFFF768
:100970009DFF002830D1083CA4B20836E008EAD137
:100980000CE0284601F05AF8014630462D1DFFF7CD
:100990004DFF002820D1241FA4B2361DA008F0D19D
:1009A000002C1BD000210846FF2701E0002C07D0B7
:1009B0002A78C3009A40641E1143A4B26D1C03E060
:1009C000C3003A469A401143401C0428EED33046F7
:1009D000FFF72CFF002801D00020F8BD0120F8BD52
:1009E0000121202802D28140084805E0402805D294
:1009F0002038814005484030816070474828FCD24B
:100A00004038814001488030F6E7000000F00F4098
:100A100030B50124624B20282DD20122614D824045
:100A200000290FD0012913D002291AD0032921D17E
:100A3000696911436961A9691143A9619968914381
:100A4000996065E0686910436861A869104304E033
:100A5000686990436861A8699043A8619868904369
:100A600007E0686990436861A8699043A861986845
:100A70001043986030BD402833D24A4A2038403273
:100A8000C0B2002911D0012916D002291ED0032995
:100A9000F0D15569214681400D43556195690D435B
:100AA0009561DA688A43DA6032E051698440214313
:100AB00051619069204305E051698440A14351612F
:100AC0009069A0439061D868A04308E051698440D0
:100AD000A14351619069A0439061D8682043D860D8
:100AE00030BD304A40388032C0B200291ED00129C2
:100AF00023D002292BD00329F2D155692146814008
:100B00000D43556195690D4395611A698A431A61D0
:100B100020283BD026DC0C282ED00D2830D01828D9
:100B200031D01928DCD15869082123E0516984406B
:100B3000214351619069204305E051698440A143FC
:100B400051619069A04390611869A04308E0516920
:100B50008440A14351619069A0439061186920438A
:100B6000186130BD212814D0382815D03928F8D183
:100B700058698021084301E058692043586130BD1D
:100B800058690221F6E758690421F3E758691021F2
:100B9000F0E758692021EDE758694021EAE70000B5
:100BA0000090044000F00F400121202802D2814033
:100BB000084805E0402805D22038814005484030EB
:100BC000416070474828FCD240388140014880305D
:100BD000F6E7000000F00F400246002002E0137824
:100BE0005840521C0B46491EC9B2002BF7D1704722
:100BF000F8B50E460446451E17466421401EFFF711
:100C0000FBFAE917890F4919891009190D1AFF21F3
:100C10009131601EFFF7F0FA12492818891920391E
:100C2000C97F0D18022E0ED9A00705D164212046D8
:100C3000FFF7E2FA002910D1FF2191312046FFF79A
:100C4000DBFA002909D000204019C0190721401DF6
:100C5000FFF7D2FA002902D002E00120F4E70721D1
:100C6000C8B2F8BD801A0000F8B51D4F3978787900
:100C7000491CC9B23A79BD79044639703C292DD353
:100C800000233B707978491CC9B279703C2925D37F
:100C90007B70B978491CC9B2B97018291ED3521C8F
:100CA000BB70D6B2002100F01DF886420BD9301A75
:100CB000641CE4B2C6B20C2C05D96D1C0124EDB243
:100CC000642D00D100253E717D20BD7100017C7135
:100CD000324621462818FFF78BFFF870F8BD000058
:100CE00072F0FF1F1EB5024607A019C800906846A3
:100CF0008018029401932038C07F022A02D1012972
:100D000000D11D201EBD00001F1C1F1E1F1E1F1F07
:100D10001E1F1E1F034A000110B58018012200F09B
:100D200067FA10BD80F0FF1F10B572B600F008FB27
:100D300000F07CF807480021417500F085F800F0CC
:100D400085FDFFF765FC04480222816891438160BC
:100D500010BD0000D8F6FF1F00F1FF1F00B501789D
:100D600002290AD0EF2203290ED0052912D00C48FF
:100D70004178C906C90E417000BD017A3022114385
:100D80000172FFF799FC00BD017A11400172FFF773
:100D9000B1FC00BD017A11400172FFF763FC00BD98
:100DA0000040064030B5124B7D24C51A1149C722B8
:100DB0006401984206D009DC202814D0001B0ED014
:100DC000A04213D10878104018300EE00A482818C5
:100DD00001D0A0420AD108781040203005E0087800
:100DE0001040103001E008781040087030BD00005D
:100DF000102700000040064090E8FFFF0649887079
:100E0000CA78C00552085200C00F0243CA70087960
:100E10004006FCD5704700000040064002480178BB
:100E200004221143017070470010034010B57F2465
:100E3000A4022046FFF77CFC02492046FFF7F6FC9F
:100E400010BD00005555AAAA10B57F24A402204663
:100E5000FFF76EFC02492046FFF7E8FC10BD0000DA
:100E6000AAAA55557F20800200680549884202D011
:100E7000C943884201D1012070470020704700001B
:100E80005555AAAA7F20800200680349884201D1F3
:100E90000120704700207047AAAA5555FF20400244
:100EA00000680349884201D1012070470020704743
:100EB0005555AAAAFF20400200680349884201D183
:100EC000012070470020704755AA55AABFF34F8FE5
:100ED00003490248C860BFF34F8FFEE70400FA05DC
:100EE00000ED00E010B5012803D01A20FFF778FDCF
:100EF00010BD1A20FFF758FE10BD10B500211A20B2
:100F0000FFF786FD10BD0000F8B52E4C00256946A0
:100F10000120FFF7FFFE002852D0684640880027D6
:100F2000C6B268460078012802D0082820D10FE018
:100F3000032E02D00C2E1BD106E010252A4622A13A
:100F4000204600F031FD13E00120207005460FE03F
:100F5000012E03D0022E04D0032E09D12770677012
:100F600005E01D480188090A21700078607002259B
:100F7000144C55201E3C2076AA206076ED1DA576E7
:100F8000E07E6D1E401CE0766846007820772046A3
:100F900066771830E9B20646FFF71EFE2546203573
:100FA0006876A27E2146173150540C48A27E314605
:100FB000007800F0F8FB01206877AF76EF762877AD
:100FC000F8BD000036F6FF1F424F4F542E302E3131
:100FD00039303330312E3000D8F6FF1F70F0FF1F4C
:100FE000F8B53A4C0025607D002816D021460969E5
:100FF00001281BD00326022828D003280CD17D29E4
:1010000009D32561E168A06881425BD103220821F0
:10101000012000F0A7F86675F8BD012208211046EE
:1010200000F0A0F8012025616075F8BD6068002817
:1010300003D002206075258042E00A29F5D3012201
:1010400025610821012000F08DF8F8BD207D0028E1
:1010500033D01E49002080390B5CE268401CD21856
:10106000C0B2E2608028F7D32088194F810704D1ED
:1010700080084002C019FFF75BFB20881349C001BC
:10108000C01980228039FFF75FFC257561682088D0
:101090007F31C909401C884201D366750BE020806E
:1010A0000A4880220021803800F089FC02220821B1
:1010B000012000F057F82561F8BD3229FCD32561E5
:1010C0000222BEE700F0C2FB6575F8BDD8F6FF1F2F
:1010D000004000008307FF22DB0E9A408907090EBB
:1010E000994000280BDA0007000F083883080848E9
:1010F0009B001818C36993430B43C361704783086F
:1011000004489B001818036893430B43036070471F
:1011100000ED00E000E400E002780021930700D534
:101120000221D30701D004231943130701D520233B
:101130001943D30601D510231943520701D5802244
:101140001143044A11700078800602D51078C00758
:10115000FCD070470050064010B57F208002FFF79A
:10116000E7FA10BD08B56B461970044900015A80B2
:1011700040180122694600F003F808BD80F0FF1F07
:10118000F8B50F460446E188164600880025891BFD
:10119000884201DD0020F8BD72B60DE04019FFF76E
:1011A00021F82289E0685143081811466943C9199A
:1011B00000F0FAFB6D1CADB2E1886088B542EDD35A
:1011C0008019FFF70FF8618020888019208062B6AF
:1011D0000120F8BD10B50021018041808180C188C7
:1011E0000289C06851438AB2002100F0E8FB10BDBB
:1011F000F8B504460088164600250F46B04201D2D5
:101200000020F8BD72B60DE04019FEF7EBFF228911
:10121000E0685143091810466843C01900F0C4FB48
:101220006D1CADB2E188A088B542EDD38019FEF700
:10123000D9FFA1802088801B208062B60120F8BDE4
:1012400010B504480168802211430160FFF70CFDCE
:1012500010BD000000D0034010B50F4C20784107AE
:1012600002D5FB2108402070C0B2010704D5F72148
:101270000840207000F062F92078C10602D5EF2105
:1012800008402070C0B2C10904D04006400E207052
:1012900000F036F910BD000000F1FF1F30B5026804
:1012A0000E210469D30400D50C21130501D50423B4
:1012B0009943530501D508239943D30702D001234D
:1012C000DB041943530702D501239B03194313077A
:1012D00002D501231B031943930702D50123DB0326
:1012E0001943930501D52023194343795B075B0B11
:1012F0000B4301790D06D1051D43490FC368826870
:101300000905034829434160C2604361446230BD1E
:101310000080044070B50125084C6D04012806D0FA
:101320000A20FFF75DFBA068A843A06070BD0A20FB
:10133000FFF73AFCA0682843F7E7000000F1FF1F21
:1013400010B50248FFF728FA10BD0000002D31014A
:1013500070B5144D04212C69641C2C612878084355
:101360002870E10702D1082108432870A00703D1A3
:101370002878102108432870600703D1287820219D
:101380000843287019212046FEF72CFF002903D1BD
:1013900028788021084328700348844201D1002026
:1013A000286170BD00F1FF1FB80B0000FEB50400FE
:1013B0002448254E254D0291019009D024497700FB
:1013C000012C12D0022C2BD0032C1FD00020FEBDEC
:1013D000204F6946384600F031F90221384600F0C6
:1013E000F9F82E6001210C200EE00869B043086175
:1013F000194E6946304600F021F90221304600F0CE
:10140000E9F82F6001210D20FFF764FE012120463D
:1014100000F080F90021204600F07CF90120FEBD9B
:101420000869B84308610D4E6946304600F006F978
:101430000221304600F0CEF801208003286001210F
:101440000E20E1E7002D31010010000000E100E076
:101450000080044000A0064000B0064000C00640E6
:10146000022000E000BF0146401EC0B20029F9D1B1
:1014700000BF00BF00BF00BF00BF704710B57D2494
:101480000346E40002E0204600F003F85B1EFAD2B7
:1014900010BD00B5024601E0FFF7E2FF521EFBD28D
:1014A00000BD704710480F49818001214170232100
:1014B00001700E4841782022114341700C4A0021EE
:1014C00051620622027042781207120F20324270D7
:1014D000084A11700179C906FCD501790907890FFD
:1014E000FBD1704703E800000020054000400640A3
:1014F000008004400050064010B5FFF705FD10BD08
:1015000010B50C490888401C80B208800A21FEF7FB
:1015100069FE002902D0052902D004E0012000E084
:101520000020FFF7DFFC0448007A800701D5FFF7B1
:10153000FBFB10BD00F0FF1F00F1FF1F10B50348BB
:101540000169491C0161FFF7D7FF10BDD8F6FF1FE5
:1015500010B5002000F0A8F810BD10B5012000F073
:10156000A3F810BD10B5022000F09EF810BD00B524
:101570000A4600F05DF801219140084000BD0029B5
:1015800010D0012912D0022915D0032916D0042920
:1015900018D0052919D0FD22062901D0072909D123
:1015A000817914E0C1784906490E02E0C178BF2272
:1015B00006E0C1707047C178DF2201E0C178EF22F8
:1015C0001140F6E78179F72201E08179FB22114091
:1015D00081717047002910D0012911D0022914D03F
:1015E000032915D0042916D0052917D0022206296F
:1015F00001D0072908D1817912E0C178802201E069
:10160000C17840221143C1707047C1782022F9E7A8
:10161000C1781022F6E78179082201E0817904225D
:1016200011438171704701798906FCD5C0797047F3
:1016300001464079097900020843704770B50446B5
:101640004A68164B896816489C4203D143690125B4
:101650002D0508E0134B9C42436902D101256D051D
:1016600001E00125AD052B434361E078F3231840E9
:10167000E0700020A07010094A088018FEF7B2FD43
:101680002178C20449094901D20E0A4322706070D0
:10169000E0780C210843E07070BD000000A0064017
:1016A0000080044000B0064070B50F4D064684002F
:1016B00028590521FFF75BFF002806D02859FFF7BE
:1016C000B2FF0146304600F09FF828590621FFF787
:1016D0004EFF002806D02859C078400602D5304673
:1016E00000F099F870BD000064F0FF1F0279120647
:1016F000FCD5C17170470000054A10B5C0008018C4
:1017000089004058002801D0FEF778FE10BD000087
:10171000601A0000C200054810B510188900405832
:10172000002801D0FFF756FD10BD0000601A000030
:1017300010B51446054AC00080188900405800289A
:1017400003D01A462146FFF753FD10BD601A000072
:1017500010B51446054AC00080188900405800287A
:1017600003D01A462146FFF70BFD10BD601A00009A
:1017700010B50021FFF7C0FF10BD134610B50A4693
:101780000021FFF7D5FF10BD10B5034A80001058A7
:10179000FFF7ACFF10BD000064F0FF1F10B5012182
:1017A000FFF7AAFF10BD70B514460E460546FFF7B9
:1017B000F5FF00282346324607D001212846FFF7CF
:1017C000C7FF002800D0012070BD01212846FFF787
:1017D000BFFF0028F8D0284600F01DF8F3E700000E
:1017E00010B50349800008580121FFF7C8FE10BD5D
:1017F00064F0FF1F10B50349800008580121FFF76E
:10180000E9FE10BD64F0FF1F13B5012301AA0021FA
:10181000FFF79EFF1CBD38B50446FFF7BFFF002849
:1018200010D001236A4619462046FFF781FF0028A1
:1018300007D0684601782046FFF7A6FF2046FFF74D
:10184000D9FF38BD2046FFF7CBFF38BD10B5982231
:101850000021024800F0B3F810BD000058F6FF1F49
:101860000448017880221143034A4280034A42809F
:101870000170704700200540C5200000D9280000F5
:1018800072B60349034841800349418062B67047FC
:10189000A602000000200540B480000030B5448856
:1018A0008388008880210022850700D50021C50794
:1018B00001D040252943050701D501252943C50647
:1018C00001D504252943450701D5022529434506AD
:1018D00001D520252943850600D58022850501D51F
:1018E00010252A43C005850F15430848064A428043
:1018F000074A428045704471220A0271C3711A0A74
:101900008271017030BD0000C5200000002005403C
:10191000D928000072B6FFF7A5FA002801D1FEF71A
:1019200065FDFFF7AFFA00281CD0FFF7BBFDFEF7FF
:1019300045FEFEF751FEFEF77BFE00210720FFF774
:1019400067F800210A20FFF763F8FFF7D6FA0120B5
:10195000FFF7E0FC0720FFF727F96420FFF78EFD73
:10196000FEF730FEFFF770FAFFF798FA0D4A0028ED
:1019700001D0022004E0FFF79DFA002801D00120E9
:101980001070FFF763FFFEF743FEFEF71FFE62B61F
:10199000FEF7D6FFFFF724FBFFF75EFCFEF7B4FD72
:1019A000F6E7000070F0FF1F03E00B780370401CA7
:1019B000491C1346521E92B2002BF6D1704701E02B
:1019C0000170401C1346521E92B2002BF8D1704792
:1019D00000B589B0142103A8FEF702FC00201549C8
:1019E000009001900290088048805820FFF706FA86
:1019F000012103980903084303900F4906980843FF
:101A000006900121079809060843079003A8FFF7ED
:101A100045FC6946087A05210843694608727D201D
:101A200080010190022008706846FFF797F909B01D
:101A300000BD00007AF0FF1F00307000427801788E
:101A400012020A438178C078090411430006084352
:101A500070470000014988607047000000ED00E019
:101A600014F0FF1F04F0FF1F34F0FF1F24F0FF1FCE
:101A700054F0FF1F44F0FF1F0000000000000000B2
:101A8000010404070205070306010406AC1A00005E
:101A900000F0FF1F0001000004010000AC1B00006B
:101AA00000F1FF1F9008000020010000000000006E
:101AB00000000000000080000100000018F1FF1F7E
:101AC00000000000000000010100000098F1FF1F6D
:101AD00000000000000080000100000098F2FF1FDD
:101AE00000000000000000010100000018F3FF1FCB
:101AF00000000000000080000100000018F4FF1F3B
:101B000000000000000000010100000098F4FF1F29
:101B100000A0064000B0064000C0064000000000E3
:101B200000000000000000000000000000000000B5
:101B300000000A0004000000F0F6FF1F0000000093
:101B400000000A000400000018F7FF1F000000005A
:101B500000000A000400000040F7FF1F0000000022
:101B600000000A000400000068F7FF1F00000000EA
:101B700000000A000400000090F7FF1F00000000B2
:101B800000000A0004000000B8F7FF1F000000007A
:101B900000000A0004000000E0F7FF1F0000000042
:0C1BA00000000A000400000008F8FF1F0D
:020000040000FA
:1040000098130020834100008F410000914100007F
:1040100000000000000000000000000000000000A0
:1040200000000000000000000000000093410000BC
:10403000000000000000000095410000FDA4000009
:104040009941000099410000994100009941000008
:10405000994100009941000099410000E19200005F
:104060009941000099410000D1A00000D3A00000B8
:1040700015AD00001FAD000029AD000095520000F5
:1040800099410000994100009941000099410000C8
:1040900099410000994100009941000099410000B8
:1040A00031930000994100009941000099410000BE
:1040B0009941000099410000994100009941000098
:1040C00000F002F800F030F80CA030C808382418CE
:1040D0002D18A246671EAB4654465D46AC4201D140
:1040E00000F022F87E460F3E0FCCB6460126334242
:1040F00000D0FB1AA246AB46334318475465010073
:10410000746501000023002400250026103A01D325
:1041100078C1FBD8520700D330C100D50B6070477F
:104120001FB51FBD10B510BD00F0A6FF1146FFF76B
:10413000F7FF07F0C1FD00F0BEFF03B4FFF7F2FF89
:1041400003BC00F0F1FF000070B505460C461646B2
:1041500002E00FCC0FC5103E102EFAD2082E02D36B
:1041600003CC03C5083E042E07D301CC01C5361F7E
:1041700003E021782970641C6D1C761EF9D270BD95
:104180007047094880470948804709480047FEE7CB
:10419000FEE7FEE7FEE7FEE7FEE70000054806490A
:1041A000044A064B70470000A5A7000081410000AB
:1041B000C1400000980E002098130020980E0020A7
:1041C00001E004C0091F0429FBD28B0701D502803E
:1041D000801CC90700D00270704700290BD0C307AC
:1041E00002D00270401C491E022904D3830702D565
:1041F0000280801C891EE3E70022EEE70022DFE751
:10420000002203098B422CD3030A8B4211D30023D3
:104210009C464EE003460B433CD4002243088B42AD
:1042200031D303098B421CD3030A8B4201D394463A
:104230003FE0C3098B4201D3CB01C01A524183092D
:104240008B4201D38B01C01A524143098B4201D3E7
:104250004B01C01A524103098B4201D30B01C01A12
:104260005241C3088B4201D3CB00C01A524183088C
:104270008B4201D38B00C01A524143088B4201D3B9
:104280004B00C01A5241411A00D201465241104619
:1042900070475DE0CA0F00D04942031000D340428E
:1042A000534000229C4603098B422DD3030A8B42C4
:1042B00012D3FC22890112BA030A8B420CD3890162
:1042C00092118B4208D3890192118B4204D3890148
:1042D0003AD0921100E08909C3098B4201D3CB0186
:1042E000C01A524183098B4201D38B01C01A52413B
:1042F00043098B4201D34B01C01A524103098B423F
:1043000001D30B01C01A5241C3088B4201D3CB0029
:10431000C01A524183088B4201D38B00C01A52410C
:10432000D9D243088B4201D34B00C01A5241411AE3
:1043300000D20146634652415B10104601D3404211
:10434000002B00D54942704763465B1000D34042C2
:1043500001B50020C046C04602BD70477047704797
:1043600030B50346CA02400D1043164D164C0A15CF
:1043700002D02043002A06DBAA1A002A12DDD04010
:10438000FF2A0BDC30BD5205520D01D14000400820
:10439000AA1A07D4D0404042FF2A01DD002030BDD8
:1043A0000028FCDD4A00002B01D0012000E00020A5
:1043B000101801225205D042F0D8C817C0436040FF
:1043C00030BD00001E0400000000008010B500F0A9
:1043D00009F8006810BD10B5044600F003F8046049
:1043E00010BD000000487047380E002010B50020B6
:1043F0000249029A00F067FE10BD00000000F87F3D
:10440000FFFFFFFFFFFFFFFFFFFFFFFFFFFFFEFEBE
:10441000F0B50C46871A9C410D46861A9D4103D281
:10442000C01BA141D21963410D0D1F0DC94EEC1BDC
:10443000AE435CD07F057F0D0026002F51D02D05A7
:10444000AC46A943DD020123ED0A1B051D432023D1
:104450001B1B24D41746E740381871412F46E7400C
:10446000CC199D402818314661410C0D27D161447B
:104470009A4013D50023401C594152000ED14008E8
:10448000400001224B005205D34207D305204007CC
:10449000C14201D5B04900E0B0493046F0BD6B00E3
:1044A000002A00D001229A181F23203C1B1B01D593
:1044B000002302E0E540281871410C0DD7D00124FB
:1044C00024050919C407CD0740084908E40F28430B
:1044D0006144002CD5D00024401C61419A40D0D1C9
:1044E000CDE76A05520DD9D1C90FC907D5E79C4D53
:1044F0004E00002801D0012400E0002434195F00A0
:10450000002A01D0012600E00026BE19954FAC42DA
:104510000CD8AE420AD8B44206D001256D05EC4253
:10452000BCD010461946F0BD9942FCD00020394657
:10453000F0BDF0B51FB40C460F46811A9F412546C9
:10454000861A9D4106D20125ED076F40401ABC41F5
:1045500052187B41210D1E0D8D1BAC467D4D8D43A8
:104560007ED075056D0D7CD00D05AE46AC431B03AA
:104570001B0B794D52429D41202366469B1B14D351
:104580001746F740381800260090744160462F46C1
:104590000741E41900989D402818664116D47146D9
:1045A00071189A4025D5012320E093182A466A41C4
:1045B0005200002B00D0521C1E23203E9B1B002BC0
:1045C00061DD3541EE1728186641E8D500187641BF
:1045D0005B1C9A4000D3401C4B05F3181524E340A4
:1045E00010D3002B52D071467118D30FC01802D3CC
:1045F000491C05B0F0BD0123DB079A42F9D1400800
:104600004000F6E701225205B21801D1002853D02C
:104610000123CC0ADB029943891E002A08D1020C2F
:1046200003D0020C0004103902E0024600202039B9
:104630000023550B05D112020823550B01D152015D
:104640000D23550C01D112011B1DD50C01D1920077
:104650009B1C150D01D152005B1C2025EE1A01E0B8
:104660002CE022E00546F54015439840CA1AE107C0
:1046700069181305C918002ABBDA03204007081877
:10468000C10FC9070FE071466118B2E7F107400892
:104690000843711071444A000CD001235B059A4213
:1046A000A7D2C90FC9070020A3E74905490D26D1A4
:1046B000002001E00028F4D100219AE7284D66008F
:1046C000002801D0012100E0002171185F00002ABC
:1046D00001D0012600E00026BE19224FA94210D8C1
:1046E000AE420ED8B14208D001256D05E94206D090
:1046F0001946A802414010467BE79C4201D0214662
:1047000077E70020394674E710B50C465C4005D5C4
:104710000124E4076340FFF70CFF10BDFFF778FEAC
:1047200010BD30B40C465C4004D50124E40763405E
:1047300030BC6DE630BCFCE670B50124E407614096
:104740000D465D4002D4FFF763FE70BD6340FFF786
:10475000F0FE70BDFF0700000000F0FF0000F07FDA
:104760000000E0FF0000F87FF0B5F94D0C091E09CC
:104770002C402E402F468BB0A7437DD0B543FCD0B4
:10478000002E7AD0002CFCD00D465D40ED0F254365
:10479000AC1BFF25AD0464190894C502440DC90281
:1047A0002143500DDC0204430120C00701430443B0
:1047B000D2020191200C110C00958C460104234675
:1047C0008B430A9161460904E24D8A430991010A2B
:1047D0007D4449198039097805464D4301266D18F5
:1047E000F605751B6943C90C640B891C4C4364189E
:1047F000B5012C1B250C2E04B4434C434D43210C16
:10480000691889090591009DE90701D00121C907AF
:1048100004912C4601996708CD072F434C08059D4C
:10482000E10B4D432D0C29466646754302950D4616
:1048300045432E46029D7D1BB44100950D465D43C8
:1048400001942C0C2F040D465543AE462D0C3D43D0
:10485000029503947546049C2D04641B049406D2AF
:10486000029C039D641C002675410395029401ACD3
:1048700070CC009F7D1B01E03EE162E1B441090480
:104880000095079101940599A4086143090C0C4611
:104890004443650BE7040C4666467443A646640B26
:1048A0003C43039502947446049DE4042C1B049439
:1048B00006D2029C039D641C002675410395029458
:1048C00001AC70CC009F7D1BB44101940C465C434D
:1048D0000095650FE7000C465443A646640F3C4321
:1048E000039502947446049DE4002C1B049406D2A4
:1048F000029C039D641C002675410395029401AC43
:1049000070CC009F7D1BB441AE09AF06049DC90069
:10491000AD092F43049DA406AD060495079D3443BD
:1049200069180791059DE10B4D432D0C29466646FC
:10493000754302950D4645432E46029D7D1BB441AD
:1049400000950D465D4301942C0C2F040D465543F4
:10495000AE462D0C3D43029503947546049C2D04F0
:10496000641B049406D2029C039D641C00267541BE
:104970000395029401AC70CC009F7D1BB44101945F
:104980008C050694079C890A611800950791019C83
:104990000599A4086143090C0D464543680BEF04D3
:1049A0000D46644665436C0B3C43049FED047D1B40
:1049B000AC4602D20025641C6841009E019D371B55
:1049C00085410846584301950C46460FC50054439F
:1049D000600F28436546E4002C1B02D20025401CD2
:1049E0006E41019D3F1AB5412846BD098006284306
:1049F0008446A009BF064E020699A406761807430E
:104A0000079D002068410A99079019430020099BDF
:104A100000906046FF1913434041E20F64003A439F
:104A2000A4460446D71A8C41A04203D90120009025
:104A300020463A46C70F941840416246D20F22439F
:104A4000644664000494009CBE466400D71AA446E1
:104A5000044602978C417746002F01D1A04204D929
:104A60006046401C8446029A2046C40FA64694180D
:104A70004041049A0546D20F224364466400D31A8B
:104A80008D417146002901D1A84202D928461A4613
:104A9000641C10430122002800D01643610200204C
:104AA000079B891904465C410223002C02DB49184C
:104AB00013466441089DCE0A2D145D194B05670508
:104AC000E10A2C050D1908993E43C9076940002BDE
:104AD00008D0934006D30022761C5141002B01D10F
:104AE000760876001C4A002D43DB154241D0AA43CC
:104AF0003FD030460BB0F0BD06180D464D41174C67
:104B00007642AC411AD395181C465C41134A6D425B
:104B1000A24113D3012252054C00D4420AD15C00B9
:104B2000D4420BD04B4002D592021143E2E7490038
:104B30004908DFE75940C90FC90718E000200849B4
:104B4000D8E7054801420DD10342F7D0F2E7000053
:104B50000000FF074C5C01000000F07F0000E0FF58
:104B60000000F87F114859400143C0124140002025
:104B7000C0E70123089A9B069A4205DC03225207EC
:104B80008918C90FC907B5E7052252078918074ACE
:104B90001143D2125140ADE770B515461C4602468E
:104BA0000B4628462146FFF7DFFD70BDFFFFFF7F64
:104BB0001F22030C02D10F22000402D0030E03D0E7
:104BC00004E00020014670470002083A030F01D1BB
:104BD0000001121F830F01D18000921E002801DB0B
:104BE0004000521E120551184205C01241181046CD
:104BF0007047C10FC90700D04042012292071143FC
:104C0000D6E701218907D3E7F0B58B4C0F0925467C
:104C100089B0BD437BD01D092646AE43FAD00E466F
:104C20005E402740F60F3E43254071D024012142CB
:104C3000FBD0FF24AD19A4042D1B039501252D05E0
:104C4000DB02DB0AC9022B43C90A29431E01090101
:104C5000040F130F050121431701880B82039143B1
:104C60002D098C46A90B1E438A039543B30B9A0367
:104C700096433F09BA0B9403A74302962E467E4300
:104C80000497B6464E19D7190C460196544305971A
:104C90007E43371B7646BF1B3601B646BE0B361920
:104CA00000967646BC043719009C01D3641C00941E
:104CB0006400002F01D001263443029E049F7543F7
:104CC00066467E430496760034196E0034190094CB
:104CD000029C019E1C196643751BAE4606946546F0
:104CE0004519059C05956C43594375460891691A09
:104CF0000191049E01465143A41B0491611A009C3A
:104D00000791E10605D061090122114302E072E03A
:104D10006EE06109089D00272C0A2D066918049D84
:104D20007C412A0A2D066918019D6241AC0DAD0235
:104D30006D185441079A910D920255196141029ADA
:104D4000644658435443069B059A5A43121A131B50
:104D50009A0E9B015B187A41010B0005C318514163
:104D6000220A200644195A419A4200D2491C0120C5
:104D70004002814203D315230226F64302E01423A6
:104D80000326F6432020C51AA9401746AF40DA4053
:104D90000A4320460399D84009147318190551187D
:104DA000039A3843D2075140AC4009D001229440C5
:104DB00006D30022401C5141002C01D14008400084
:104DC0001E4A934212D3012203989206904207DBB7
:104DD0000520400709181A480143C012414004E069
:104DE000032040070818C10FC907002009B0F0BD13
:104DF0000020F107FAE705180C464C4111486D42B6
:104E0000A04115D394181A465A410E486442904165
:104E10000ED301204A004005824209D35A00824243
:104E200006D35940C90F084AC90700201143DDE7DE
:104E300000200649DAE700000000FF07FE07000037
:104E4000FFFFFF7F0000E0FF0000F07F0000F87F21
:104E500070B505464800440D124B0020002C0AD0C6
:104E6000634008D09A4206DA6642B24203DD120578
:104E70004019514170BD002C08D0002B09D0C90F3A
:104E8000C907002AF6DB084A114370BDC90FC907DC
:104E900070BD28460A03104302D00020034970BDAC
:104EA000284670BDFF0700000000F07F0000F87F7B
:104EB000F8B5224C4E00069DA6420AD8A64201D162
:104EC000002806D15E00A64203D8A6420AD1002AD5
:104ED00008D00D24240425422CD02946002000F0BF
:104EE000AFF8F8BD0C461C430CD4994202D0EFF346
:104EF0000080F8BD904202D0EFF30080F8BDEFF3E0
:104F00000080F8BD09242407E5008B4206D0EFF3AA
:104F10000080A043591A06D2284304E0101A05D392
:104F2000EFF30080A04380F30088F8BDEFF300802A
:104F3000A043F1E70095FFF759FAF8BD0000E0FF44
:104F4000F0B53D4B02460C461C400020002C63D0BF
:104F50003A4D8B4366D000296BDB0B0D1D05A94331
:104F600001252D0529430124FD33E34001D3921887
:104F70004941FF3381339C468B02940D0121234329
:104F800089074C42920200271B198C105D1A04D429
:104F90002D1B02D42B466500491992185B41640809
:104FA000F4D15C1A08D40125ED07EE1755197441A8
:104FB00002D42A462346491C94185B4101229207D9
:104FC0001D46E61B8D4106D4B61A854103D42B46F7
:104FD000550034467F1924195B415208802AEFD1CD
:104FE000234300D0022338460A22D04001D30122B5
:104FF00013438A0510436246890A12058918002B5B
:1050000009D00122D34002D30022401C5141002B81
:1050100001D140084000F0BD0B03134307D0C90F76
:10502000C907F0BD0803104303D1002901DB104676
:10503000F0BD00202946F0BD0000F07F0000F87FA1
:10504000C80212D54803400F002804D0C803C0434B
:10505000012188407047EFF300800001000903211F
:105060000907084380F3008870470020704700005C
:1050700000487047380E00207546FFF7F9FFAE462E
:10508000050069465346C008C000854618B020B5E3
:10509000FFF784F860BC00274908B6460026C0C563
:1050A000C0C5C0C5C0C5C0C5C0C5C0C5C0C5403DE0
:1050B00049008D46704710B50446C046C04620469C
:1050C000FFF73BF810BD10B50C461107090F092971
:1050D00004D00A290AD008290CD104E0114608207E
:1050E000FFF7AEFF06E0510606D501E0510601D5F7
:1050F0000120C007214610BDD10607D501010909CD
:10510000CC084907000E0006044309E0410F2002C5
:105110004907000A0143200E00061D22D141014328
:105120000846E7E77047000001491820ABBEFEE7DC
:105130002600020070B58C180578401C6B075B0FC9
:1051400001D10378401C2A1106D10278401C03E0EB
:105150000678401C0E70491C5B1EF9D12B0705D444
:105160000023521E0DD40B70491CFAE70378401C33
:10517000CB1A921C03E01D780D70491C5B1C521E5B
:10518000F9D5A142D8D3002070BD000070B54620EB
:1051900003F008FF002817D000200F4B0F4C1870A9
:1051A000616800250A07D20F904212D05A78521C2B
:1051B000D2B25A70192A0BD308225D70002805D08C
:1051C00050040143114302E00120E6E7914361608E
:1051D00070BD5D7070BD0000B4F0FF1F90F1FF1F47
:1051E00010B50121462003F0F9FD022200210248FA
:1051F00007F0B2FA10BD0000B4F0FF1F10B5002890
:1052000007D0012801D0022803D18021002000F01E
:1052100012F810BD10B50021062003F0DFFD0021BB
:10522000282003F0DBFD00212C2003F0D7FD2C20EB
:1052300003F0A0FE10BD70B504460D462C2003F00F
:10524000B5FD0821012004F0DFFF2146012004F014
:10525000DBFF2946012004F0D7FF2C2003F08AFE53
:1052600070BD000000B51F2100F0B5F8024841698B
:1052700082039143416100BD0080044010B50C469B
:105280000146034800F08CF82080012010BD00008A
:1052900000B003407047000030B504463C480D465E
:1052A000844204D13B484169820311434161297919
:1052B000204600F080F86979204600F084F8A9794A
:1052C000204600F098F8E979204600F08CF86888CC
:1052D000A061287801072020002902DA61680143D3
:1052E000616029781023C906002902DA6168194330
:1052F00061602978890702D52168014321602988E6
:10530000C90502D5E1680143E16028780106402023
:10531000002902DAE1680143E1602978490702D5F2
:105320006168014361602978CA070121002A05D01C
:10533000226802432260184AC80310602878400699
:1053400002D5A0681843A0602878800603D5A0681D
:1053500080221043A060288882051048E26801D5A9
:10536000024300E08243E260288842050220002ACE
:10537000E26901DA024300E08243E2612888000525
:10538000E06901D5084301E040084000E06130BD1C
:1053900000B003400080044000E100E00001000094
:1053A00000B5034600F017F8802219681142FCD0BE
:1053B000186980B200BD8268890792089200890F3F
:1053C0001143816070478268602389079A43490EC0
:1053D0001143816070470268C90652095201C90E23
:1053E000114301607047C2684907D208D200490FD3
:1053F0001143C160704782680C2389079A43090FE3
:1054000011438160704710B500212F2003F0E6FCA6
:1054100000212D2003F0E2FC0021152003F0DEFC2A
:1054200002210D2003F0DAFC10BD10B5002131205F
:1054300003F0D4FC0021322003F0D0FC0221332001
:1054400003F0CCFC10BD000070B51D2003F0AAFDD8
:10545000002816D000200E4B0E4C187061680025F5
:105460004A03D20F904211D05A78521CD2B25A70CD
:10547000192A0AD3012292045D70002803D0114337
:1054800002E00120E7E79143616070BD5D7070BD8F
:10549000B6F0FF1F90F1FF1F0348024981600349E6
:1054A000C160704781AC0000A0F7FF1FA5AC0000F1
:1054B00004490A78032A03D1C968002900D00847A3
:1054C00070470000A0F7FF1FF8B50020124E134DE3
:1054D000707104460127285D03F020FE002809D0E2
:1054E00070790028285D02D0B070347106E07070C9
:1054F0007771F470641CE4B2042CECD3F0780428C7
:1055000008D081000548001D4058002800D0804781
:105510000120F8BD0020F8BDA0F7FF1F78CA0000E9
:10552000002040688047FEE7F0B5984E91B0307992
:10553000B41DF02802D2FF2000F08EF930790C283B
:1055400048D013DC924D012820D0082879D00A28B1
:105550001AD170790D2817D18E4861780173A1781E
:105560004173207800020D3082B28DE00E280BD0FE
:10557000FF2809D18548F1788030C07E814203D16F
:1055800085480021C174817411B0F0BD707901218A
:105590008905012812D0102817D01128F4D1B1782C
:1055A0001E20C91F03F02AFDC2B27C4821460270AA
:1055B000401C07F0C6F811220121D9E068681122C9
:1055C000884301216860084601E06868DAE004F079
:1055D00073FBD9E7714D72792035082A73D009DC45
:1055E0006F4F130005F0A9FD08051B525760697045
:1055F0008005C9E70C2A0DD006DC092A70D00A2ADA
:105600006FD00B2AC0D197E0872A6DD08B2A6AD041
:105610008C2AB9D12078287360786873A7E0207845
:10562000FF250E355F4C02281AD00BDC0028ABD0CA
:105630000128A9D157482038007E01280AD001212D
:1056400009E097E0032811D0F1289DD10002401C09
:1056500082B28CE00021002001F058FE082213E005
:1056600021782820491C03F0C9FC03E02078002899
:1056700000D0401EC0B2207005F0D8FC2A460A2196
:10568000032004F019FB06220A2171E02078287417
:105690000002801CDCE7207868740002C01C82B223
:1056A0000C21032004F008FB3D4802222146801E05
:1056B00007F047F80222A11C01E0022221463846E9
:1056C00007F03FF852E014E0B1783120C91F03F031
:1056D00095FCC2B2324821468C3002730D30EFE7A0
:1056E00012E01DE000E027E02078A8736078E873FE
:1056F0003DE0B1783120C91F03F080FCC2B22848D8
:10570000AA752146C01CDBE7B1783120C91F03F020
:1057100075FCC2B2224821462C3002720930CFE714
:10572000B1783120C91F03F069FCC2B21C48214680
:105730004C3082761B30C3E7207869460870607869
:105740004870B1783C20093903F058FCC2B2694670
:105750008A7000A8A11C033006F0F3FF01226946FD
:10576000114804F011FB002800D10DE772790C21DB
:1057700003202CE770790128F7D10C4804F0A3FD31
:105780006868022108436860FEE60000760B00208E
:1057900090F1FF1F4C060020960C0020B806002058
:1057A000EC060020E0F0FF1FA4F0FF1F55AA55AA49
:1057B00070B5284D00262C46803445E0E07D002859
:1057C00006D001280ED0022816D003283CD122E0B2
:1057D00001222049104605F0C0FB2878AA2833D1C1
:1057E000012016E00122691C104605F0B6FB68781E
:1057F00055280BD102200CE00122A91C104605F00F
:10580000ACFBA878A075C01E942801D3E6751BE0F8
:105810000320E07518E0A07DE91CC01E82B20120C3
:1058200005F09BFB002814D0A07D401EC1B20948A2
:1058300003F0CAFB0749A27D491E515C884201D191
:10584000FFF772FEE675A675012005F081FB0028C2
:10585000B4D170BD760B00201CB555216A4611707D
:10586000AA215170062191700749C978D170107131
:105870000521684603F0A8FB6A4650710622694676
:10588000012005F080FB1CBD760B002070B504469E
:1058900002224EA106F044FF002812D0A0782B2847
:1058A00016D045280DD049280BD1072248A1E01C6D
:1058B00006F036FF012805D0062247A1E01C06F0BD
:1058C0002FFF70BD012004F001FF0A2244A152E025
:1058D000082246A1E01C06F023FF01282DD0052256
:1058E00045A1E01C06F01CFF01282FD0052244A191
:1058F000E01C06F015FF0128E3D143492034607A0B
:105900000A789042DDD00870E07A312848D0FF252F
:105910000E353E4C322853D03328D2D1207800287F
:1059200000D0401EC0B2207005F080FB2A460A213C
:10593000032004F0C1F906223DE021460C220B3180
:10594000334806F0FEFEFF220D3234E020460722E7
:1059500030A1083006F0E4FE002810D020460422D2
:105960002EA10D3006F0DCFE01280ED0012004F03F
:10597000ADFE0D222BA1002005F005FB70BD01201E
:1059800004F0A4FE11222BA1F5E7012004F09EFEF5
:1059900011222DA1002005F0F6FA02F0FDFBFEE732
:1059A0002E48007E012801D0012100E000210020C6
:1059B00001F0ACFC08220A21032004F07DF970BD3F
:1059C00021782820491C03F019FBABE70D0A0000E1
:1059D0004D5F5245414459004D5F474154540000CA
:1059E00041542B4E414D453F0D0000004C42444177
:1059F0004444523A000000004E414D453A00000038
:105A00005343414E3D000000BAF0FF1FE0F0FF1F7E
:105A1000AA0C00204453505F445344005F45564154
:105A20000000000041542B4C4244414444523F0D7D
:105A30000000000041542B4E414D453D4453505F02
:105A40004453440D0000000041542B464143544F41
:105A5000525952455345540D000000002C060020B9
:105A600010B5002808D0012806D0022805D0032848
:105A700002D1002004F060F810BD0120FAE7000018
:105A800010B502211D2003F0A9F9022200210248CD
:105A900006F062FE10BD0000B6F0FF1FF3B5002651
:105AA0000C4681B00D464034A4E002F075FB607CEA
:105AB000102845D008DC00280FD0012820D002286B
:105AC00028D003283BD12FE0112845D0202869D0C9
:105AD00021287BD0302832D193E001222946019839
:105AE00005F03BFA2878AA2804D00D2804D04428D1
:105AF00025D103E001207CE002207AE0032078E059
:105B00000122691C019805F028FA687855286DD1A2
:105B100010206EE00122691C019805F01EFA6878D9
:105B20000A2863D1202008E00122691C019805F0B1
:105B300014FA6878422859D130206074267459E0EC
:105B40000122A91C019805F008FAA8782074C01E4B
:105B50004E284BD211204CE0207CE91CC01E82B2A2
:105B6000019805F0FAF900281BD0207C401EC1B234
:105B7000284603F029FA0146227C681E105C814207
:105B80000DD1244801780198814206D000F072FCC2
:105B9000227C2946204806F0D4FD00F001F9667405
:105BA0002674FEBD217CAF1CC9190122019805F0A5
:105BB000D4F9207CC15D0D2906D0401CC0B22074F0
:105BC000322817D312E001E0212012E0217CEF1CE3
:105BD000C9190122019805F0C0F9207CC15D0A298C
:105BE00004D1002804D02846FFF750FE667401E077
:105BF00020206074019805F0ABF9002800D054E72C
:105C0000FEBD0122A91C019805F0A7F9A87800F0B3
:105C1000D1FCEBE7BBF0FF1F06F8FF1F10B500211A
:105C2000072003F0DBF810BD70B51C4904468888D6
:105C30001B4A401C80B2888015780023012D0DD0AE
:105C4000282804D38B802079EF210840207120463A
:105C500003F048FC204603F075FC70BD8B80137088
:105C6000207910210843207151784B00C9180B4B43
:105C70005433595C217051784D004919C91849783D
:105C8000617081085078890042008018C0188078BF
:105C90008007800F01432171D9E70000E4F0FF1F66
:105CA00092F0FF1F10B504F05FFB10BD10B506F0B9
:105CB000D9FD10BD10B504F077FB10BD10B5074835
:105CC00002F0F7FF0548403002F0F3FF0348803050
:105CD00002F0EFFF02F0D5FF10BD000000F00F4012
:105CE00010B50120800306F011FE10BD10B5054C63
:105CF0000020214604F0CCFB2146012004F0C8FB23
:105D000010BD0000801A060010B506F0E1FD10BDC0
:105D10000948002181610949416107210161084861
:105D2000C16903220902090A92071143C1610549A9
:105D3000400708607047000000E000E0FF700200CC
:105D400004ED00E000E100E010B5E124640221462A
:105D5000002004F053FC2146012004F04FFC2146B2
:105D6000022004F04BFC10BD70471CB56946088842
:105D7000042108431821884340210843FF2183312F
:105D800088436946803008807D204001488000209B
:105D90008880684605F07CF905F05CF91CBD0000C0
:105DA000FEB5F74F3879BC1DF02802D2FF2000F075
:105DB00043FB39790C2977D017DC012932D0F14E19
:105DC000082972D0F04A07206F2340025B011018A7
:105DD000D5180A2935D00B2918D179790B0005F08F
:105DE000ACF905F5F4F3F2F115000F2972D0F029A2
:105DF0000DD0FF290AD1E248F9785638C07881429F
:105E000004D1DF480021163841750175FEBD78794F
:105E10000028FBD1DD4801210170617841702178B3
:105E20008170FEBD7879042808D01128F9D111229B
:105E30000121032003F040FF1122F3E1032201219D
:105E40003DE2CF49D24F4A790C2A71D00ADC1300C7
:105E500005F073F90C2C4BABBDE4FEFDFCFBFAF92D
:105E6000F807DEE7862A70D014DC832A6ED009DCBE
:105E70000D2A6CD00E2A6BD0822AD2D12078000253
:105E8000801CFCE1842A7CD0852ACAD120780002BB
:105E9000401DF4E1873A130005F04FF908F9F8F7CF
:105EA000050505F6F505BCE771E2A1E2E87E0028EC
:105EB0000FD1207800280CD001280CD00228B0D1B6
:105EC0007068000303D40220E87660782877012206
:105ED0005202BBE189E27068000303D40120E87636
:105EE00060782877FF220132B0E1207800280ED0B8
:105EF00001280ED0022812D003282AD0042830D03E
:105F0000052845D006288CD101F0CCFCFEBD01222D
:105F10009CE170680003F9D400F0C8FBFEBD607816
:105F20000028FBD0716809033BD400F0A7FC38E0DF
:105F30005DE101214001C90320380843B8E0012197
:105F40004001C90320380843B9E0E9E062E05EE1BE
:105F500082E160780028E1D07168090321D4012131
:105F60001DE060780028D9D07168090301D400F0E1
:105F700029FE60780A214002FF38FE3882B20320F1
:105F800000E085E003F098FE60784002FD3876E19D
:105F900060780028C2D07168090302D4002100F0A3
:105FA000D7FB6078C107CAD0C3E77068000303D489
:105FB0002078A11C01F062F9207801027048407934
:105FC00008185CE1CCE1ADE193E186E15DE1706848
:105FD0000003F1D4607869460870A0784870E078D2
:105FE00088702179E079090640186179A27909045D
:105FF0001202891840180190207A617A0002401834
:106000006946088120786A46C107C90F400800F038
:106010002BFED1E720780002C01C30E1706800033D
:10602000CAD4607869460870A0784870E078217911
:1060300000024018694648806179207A09064018B4
:10604000A17906E0B5E093E086E079E06CE043E01A
:1060500037E0E27909041202891840180190607A49
:10606000A17A0002401869460881E07A217B00028B
:1060700040186946488120786A46C106C90E400921
:1060800000F054FC98E7FCE0E2E06DE060E053E0F3
:106090002078C143C90602D00002001DEFE081064E
:1060A000890E202906D2410901204901C0030818A0
:1060B000F886FEBD410901204901C0030818388750
:1060C000FEBD70680003A4D46078A1780002411876
:1060D000207800F007FB6FE77068000310D4207889
:1060E000002806D1E178227909028918284A403A25
:1060F000D1826178A2780902891889B201F03CFA4C
:10610000207801021E484079081882B20A21032033
:1061100003F0D2FD20780028D2D100F0CFF9FEBDE7
:1061200020780002801DAAE070680003AAD461787C
:10613000207801F095F93FE720780002C01D9EE02D
:10614000706800039ED46178207801F0DFF833E7AF
:1061500020780002083092E07068000392D4207822
:10616000611C01F0E7F927E720780002093086E09A
:106170002278027261784172104601F0CFFB22E072
:1061800006F8FF1F90F1FF1FACF8FF1F92F0FF1FF2
:106190006C0600209A480A2142790320FF3201321E
:1061A0008EE097480A2142790320FF32FF32023203
:1061B00086E020789349012808D00228AFD10870E2
:1061C000601C03F09DF80028EBD0E3E70870601C2A
:1061D00003F096F80028E4D0E01D04F06DF80028E4
:1061E000D8D1874803214079090242182EE020784F
:1061F000012894D184480078002805D00D2283A17D
:10620000002004F0C0FEFEBDFF220D321EE020780B
:1062100001280AD00228F6D1804861780173A1785C
:1062200041730522012101204AE07068000302D475
:10623000607804F0FBFE207801027148407908186C
:1062400082B20A21032003F037FD06220A2136E03C
:10625000207800020D3012E020780125ED0401289D
:1062600008D0022800D0A7E601F0EAF87068A84339
:106270007060A1E601F0BCF870682843F8E782B2CC
:10628000E4E7207800020E30F9E72178FF221202BD
:1062900001290AD0022916D08129B4D100212977F9
:1062A00001606977A977E97758E0E87E002805D191
:1062B0006078002802D0287703200CE00B2103200F
:1062C00003F0FAFCFEBDE87E0028F7D160780028D4
:1062D000F4D028770420E876FEBDE97E0329FBD1BF
:1062E0002278297F8A42F7D14D4A02600802401C79
:1062F00016E0E97E0329EFD121782A7F9142EBD184
:10630000617869770068491C03463F339B099942CD
:1063100002D38006800E00E04020A8771002801C87
:1063200082B2CBE7E97E0429D6D121782A7F914237
:10633000D2D16278217912068918A278E378120402
:106340001B02D218891801606279217A1206891815
:10635000A279E37912041B02D21889184160FEBDAC
:10636000E87E0428FBD12078297F8842F7D1617824
:10637000687F8142F3D12B4980014018B9780939EF
:106380008AB2A11C06F0DDF90120E877FEBD79791B
:106390002548012904D00B2919D08B291FD116E0DB
:1063A0002278802A04D0812A07D0822A0AD016E0D7
:1063B00062780270A278427011E062788270A278EE
:1063C000C2700CE062780271A278427107E0227814
:1063D000027262784272A2788272E278C272207887
:1063E0000002401882B20C211DE70A220FA107E724
:1063F00078790128CAD17068022108437060FEBD17
:1064000006F8FF1F91F0FF1FBBF0FF1F41542B4CFC
:106410004244414444523F0D000000004C0600201D
:10642000AC0D0000ACF8FF1FD806002041542B4FE4
:1064300054413D310D0000001CB555216A461170D4
:10644000AA215170062191700849C978D170107144
:106450000521684602F0B8FD6A46507104480622DC
:106460006946007804F08FFD1CBD000006F8FF1F90
:10647000BBF0FF1F10B50E49C97E002914D10D4C89
:106480006178884201D1611C04E0A178884204D17E
:106490000849891C074801F006FD2078022804D02D
:1064A0000020C04303F00FFF10BD0348FAE70000CF
:1064B0008C060020BBF0FF1F5555AAAA10B50B494A
:1064C0000B4A498800204300D35A994208D209490F
:1064D000FF2208700E320A21032003F0EDFB10BDED
:1064E000401CC0B22828EED910BD00002C060020A8
:1064F00042A20100E0F0FF1F70B5094802F082FDE2
:1065000000260225074C002803D025706670A57070
:1065100070BD054802F076FD0028F6D170BD000080
:106520005555AAAABBF0FF1F55AA55AA10B50024BD
:10653000204600F005F8641CE4B2042CF8D310BD2A
:10654000034910B50001401803F048FC10BD0000DD
:1065500050F1FF1F70B50446007907220007850F30
:106560000021204606F0F8F82079F3210840A90020
:106570000843207170BD10B50021292002F02EFCC7
:106580000021122002F02AFC0021372002F026FC14
:10659000372002F0EFFC10BD10B50221452002F0BB
:1065A0001DFC02220021024806F0D6F810BD0000B2
:1065B00079F0FF1F10B5FF24F534030004F0BDFD92
:1065C0000707050810182028070005F069F910BD15
:1065D000292002F0EBFB204604F078F829201EE089
:1065E000062002F0E3FB204604F070F8062016E0D7
:1065F000282002F0DBFB204604F068F828200EE09B
:10660000072002F0D3FB204604F060F8072006E0E4
:10661000312002F0CBFB204604F058F8312002F084
:10662000A9FC10BD10B5044600F092FF002C01D06B
:1066300000F0CCFD00F0A4FA00F0C2F800F076F80B
:10664000002C01D001F018F800F0C2FE00F02AFF83
:1066500010BD0000094810B5002102464175203ADE
:10666000D18611870175C176FF21817600F008F887
:1066700001210846FFF7D6FF10BD00008C06002060
:1066800070B5074D074E0024E0004019801908221C
:10669000054906F056F8641CE4B2082CF4D370BD2A
:1066A000ACF8FF1FB40D0000D49F010010B50C49D9
:1066B0000020487502F0CCFA01210846FFF7B2FF2E
:1066C0000121084601F084F900220A21032003F089
:1066D000F3FA7F2252020A21032003F0EDFA10BDE3
:1066E0008C06002038B50C4600210091082817D8E8
:1066F000002815D0210E6A461170210C5170210A14
:1067000091704500D47007486B46415B042200201D
:1067100003F07CFC044835212818890140180486C0
:1067200038BD0000B09F0100ACF8FF1F002010B57D
:10673000064A352301469B014400A418E418401C76
:1067400080B221860928F7D310BD0000ACF8FF1FE6
:10675000F8B50F46082823D8002821D0401EC6B21D
:10676000FF2016498130002470434518012F19D0AD
:106770000C2060432818FF306130017C0122114356
:1067800001740C2060432A18FF32214630467132D2
:1067900000F0CCF8641CE4B2202CE7D30120F8BD53
:1067A0000020F8BD642003F09CFF0C2060432818F3
:1067B000FF306130017C49084900E1E7ACF8FF1F78
:1067C000F0B500242646FF2213498132002062439F
:1067D00055180C21414369180B46FF3361330122E0
:1067E0001A740A465E744B23FF325B0141325386B2
:1067F00087000A4BFF31DB5901314B67084911878C
:106800008D21401C80B251872028E2D3641CA4B2A1
:10681000082CD8D3F0BD0000ACF8FF1F40A0010049
:10682000DC05000070B5124CE28E10041FD5114B30
:1068300011491878401CC0B218700978042801D397
:10684000022903D0082812D3002910D11002001DFC
:10685000002582B21D700A21032003F02DFA0028C2
:1068600005D0E08E401CE086C00600D1E58670BDF4
:106870006C060020C4F0FF1FBBF0FF1FFEB5082808
:1068800021D800281FD0401E0022C6B21046012188
:106890000843694608704B204A70400148800B4805
:1068A00008818D200A4D48811446A0002858019087
:1068B0006A462146304600F039F8641CE4B2202CC8
:1068C000F3D30120FEBD0020FEBD0000DC0500006A
:1068D00040A0010070B5124C228F10041FD5114B3F
:1068E00011495878401CC0B258700978042801D367
:1068F000022903D0082812D3002910D11002001D4C
:10690000002582B25D700A21032003F0D5F900282A
:1069100005D0208F401C2087C00600D1258770BD80
:106920006C060020C4F0FF1FBBF0FF1FF0B591B054
:1069300014460D46064608282ED21F2D2CD24B2277
:1069400061889201002002F039FE60803D4A0020FB
:10695000616802F033FE606021893B4A002002F04A
:106960002DFE2081192261899201002002F026FE6D
:1069700071002A09891880B2344A60814900525A4C
:106980002907090F8B00C91851188FB22178C90740
:106990000DD06178002902D0002011B0F0BD009028
:1069A0002389618802A8626801F0D8F80FE0FF200F
:1069B0002D3003F096FE00200290039004902449AD
:1069C00005900690089009900A9007910B90207806
:1069D000C0060AD50122D2070599039851400591B6
:1069E000504007990390514007910CAA03990298CF
:1069F00003F066FA0DAA0599049803F061FA0EAA4D
:106A00000799069803F05CFA0FAA0999089803F011
:106A100057FA10AA0B990A9803F052FA0CAB052208
:106A20003946002003F080FAFF2081300C214643D4
:106A30004D4308480ECC30184019FF3071300EC05D
:106A40000120AAE700770100B80B0000C0A00100F8
:106A50000000F03FACF8FF1FFEB5474E474BB07843
:106A60000725401CC0B2B07000906F2040011C1878
:106A70007278207F01906D0200025D19C11C001D1B
:106A80002F68130004F059FB05040D1D3F587500D5
:106A90008AB20B21032003F00FF90020B07001200F
:106AA0003FE0002F06D082B20B21032003F004F94F
:106AB000022036E000980A285BD30020B0708AB22A
:106AC0001CE0E17F002913D0617F3F37BA09491CE0
:106AD000914202D30320707007E00022B270617708
:106AE00082B20B21032003F0E7F80020E07740E0BA
:106AF000009932293DD30021B17082B20B210320CD
:106B000003F0DAF835E000221C48114603E0037870
:106B1000401C9A18491C8F42F9D86868904202D1EB
:106B20000420707025E000207070B07028606077DD
:106B3000A077E07768601CE0019800F0F1FD002884
:106B400017D0002701217770084600F041FF207F11
:106B5000607502F07DF827772F606777A777E77772
:106B6000412252020B2103206F6003F0A5F801209F
:106B7000FEBD0020FEBD0000BEF0FF1FACF8FF1FF1
:106B8000F0B500210D4E03250C461427182048436C
:106B900082191046A03001230374037745744577AA
:106BA000857485772038064B47630364C032491CDF
:106BB000048789B294800829E8D3F0BDACF8FF1FA0
:106BC000204E00003EB508281DD800281BD0401ECE
:106BD000C4B200221046012108436B4618700321FD
:106BE00059709970142101911A816A46002120463A
:106BF00000F03AF8054801906A460121204600F06D
:106C000033F801203EBD00203EBD0000204E0000B4
:106C100070B506460020124D012900D12870297850
:106C2000104C002902D0012914D110E0304600F0A8
:106C3000A3FA00280ED0667502F00AF8FF2201328E
:106C40000B21032003F038F80120287002E0217F97
:106C5000002901D0002070BD2870012070BD000007
:106C6000BEF0FF1F8C060020F0B5B5B00E460546FD
:106C70001446142130A8FDF7C1FA082D2BD2022E9C
:106C8000FCD21820AF49684341180C207043081803
:106C90002F90A030007C2178AB4A4840C006C00F3E
:106CA0002D900020616802F089FC02466060207827
:106CB0000CA9C3072A9116A920A82B912C90002B70
:106CC00071D06078002103230427012804D0022812
:106CD00061D0032868D090E0A078012806D003286E
:106CE0000AD0052814D0072831D086E02389314600
:106CF00002A801F055FA66E02389314602A801F0A6
:106D000001FC2389314662682A9801F0FBFB95E07B
:106D10000320019100900F462389314602A801F01B
:106D200009FD2389314662682A9801F039FA032067
:106D3000009001972389314662682B9801F0FAFC94
:106D40002389314662682C9801F02AFA7CE0002001
:106D5000019000972389314602A801F0EBFC012045
:106D6000019000972389314662682A9801F0E2FC7D
:106D70000020019000972389314662682B9801F02A
:106D8000D9FC0120019000972389314662682C9834
:106D900001F0D0FC58E0A078012806D002280DD0E0
:106DA000032817D029E06DE020E02389314602A8AE
:106DB00001F09EFA2A9801F0ADFC3FE023893146AC
:106DC00002A801F095FA2389314662682A9801F0F9
:106DD000E7F933E02389314602A801F089FA2389D3
:106DE000314662682A9801F083FA27E0A0780128EA
:106DF00006D002280AD0032810D0002035B0F0BDFC
:106E00002389314602A801F07DFBD3E7019100936D
:106E10002389314602A801F08DFCD4E70191009747
:106E20002389314602A801F085FC012001900097DA
:106E30002389314662682A9801F07CFC2B9801F086
:106E400069FC2C9801F066FC2078C0060AD5012266
:106E50000399D20751400391059951400591079933
:106E60005140079137481B224019D20180180190E8
:106E70002D99681C0090002915D00198407E0128AA
:106E800008D010E0FF202D3003F02BFC02A801F009
:106E900041FC8FE700980022C0B2114600F04AFA88
:106EA0000A2003F013FC32A82E9033A82C9034A8AB
:106EB0002B902649280140180027F10040182A90FD
:106EC000384628214843064602ADA91903C930AA0D
:106ED00002F0F6FF751931AAE968A86802F0F0FF20
:106EE000696928692E9A02F0EBFFE969A8692C9A72
:106EF00002F0E6FF696A286A2B9A02F0E1FF2A98FD
:106F00007900415A30AB0522002003F00DF87F1CB8
:106F1000FFB2042FD4D32D9800280CD00198407EC6
:106F2000012808D11E2003F0D1FB00980022C0B236
:106F3000012100F0FFF90ECC2F98B0300EC00120D7
:106F40005CE70000ACF8FF1F00770100E0A0010043
:106F5000F3B583B00C465A49039818220818203814
:106F60000290039857495043574A002780180190D0
:106F70005348039A10308518D000461852495000E3
:106F8000103940184038C18F203D6A46012002F078
:106F9000A6FF6A461178D078090640185178927891
:106FA0000904120289184018FDF723FE1722D24364
:106FB000FDF74EFF490032464908803AD167906795
:106FC0000022134605F0A8FC03D10298C77705B04C
:106FD000F0BD01980146803980388A6EC36E304614
:106FE000314680388039806FC96F05F0C7FC1AD2EE
:106FF0002078322801D30298C7772078401CC0B28D
:10700000207064280AD32770E87F002806D1012069
:10701000E87702460021039800F08CF9E87F012808
:10702000D5D12770D3E701980146803980380A6F9F
:10703000436F3046314680388039806FC96F05F024
:10704000CFFCEED2019801468038C36F30468039BC
:107050008A6F8038803E806FF16F05F0C1FC1AD2D4
:107060001A480078062817D119484068C10201D58E
:10707000000700E0400300280EDA2078401CC0B270
:1070800020700A2808D3277002990120C87712209F
:1070900001F070FF00E02770E87F012897D1EF77BB
:1070A0000C49039808181B21C9014018007E0128CB
:1070B0008DD101221146039800F03CF987E70000CA
:1070C000C7F0FF1FB80C002070A1010070F0FF1F77
:1070D00090F1FF1FACF8FF1F10B52448017D032974
:1070E00030D12349097806292CD1C07E002829D126
:1070F000204C207821460931030004F01EF80805D1
:107100000924272A2D30330D1A490931012001E0C5
:107110000220491CFFF71CFF2078411C21700C281D
:1071200001D30020207013490020491C0A5C012A69
:1071300003D0401CC0B20828F8D3082802D112207E
:1071400001F034FE10BD0320891CE3E70420C91CB4
:10715000E0E70520091DDDE70620491DDAE70720E5
:10716000891DD7E70820C91DD4E700008C06002040
:1071700070F0FF1FC6F0FF1F70B5040014D00B4D58
:107180000B492A4601F0BCFB00280CD0012108461F
:1071900000F01EFC0649E000401840190822091DB5
:1071A00005F0CFFA012070BD002070BDAC0D0000CD
:1071B000ACF8FF1F10B544220349002001F0A0FBEA
:1071C000002800D0012010BD5C06002070B5002111
:1071D0000E4E90230D460B240A460020624392195E
:1071E000002903D0002801D0814203D11418403473
:1071F000237302E0141840342573401C80B20B281E
:10720000EED3491C89B20929E5D370BDACF8FF1F44
:10721000F8B500210C460091FDF7F3FC0025134B57
:107220002A46FDF77EFA124B2A46FDF79DFA0F46D5
:107230000646104D03E0042C11D0052C0FD0324629
:107240003B4600200C4904F06DFD6A4602F038FE12
:107250006000295A6B460122002002F065FE641C82
:10726000E4B20A2CE7D30120F8BD00000000624020
:1072700000003440B8A2010000002440F8B50D46DB
:1072800000210091082835D8002833D047000B2171
:1072900048431949002446182978BA22002002F0F0
:1072A0008DF9C0B22870FDF7ACFC0022134BFDF73E
:1072B00038FA0022124BFDF757FA02460B4600201F
:1072C000104904F02FFD6A4602F0FAFD0E486B46A5
:1072D000C05B0122001981B2002002F025FE3019A6
:1072E00029784030641CE4B26D1C41730A2CD3D35E
:1072F0000120F8BD0020F8BDACF8FF1F000062407F
:107300000000344000002440A6A2010070B50546EC
:10731000002901D0012400E000240022214600F0D1
:1073200009F803481B214019C9014018047670BDB3
:10733000ACF8FF1FF8B505460020009068461646D9
:107340000C46C170082D2AD82046304306D10021B2
:10735000284600F0CDFB0A2003F0B8F91049680078
:10736000095A6B460422002002F050FE012C16D16F
:10737000002D0BD00B4C207E002807D10B216B4633
:107380000422090202F042FE01202076002E06D1DE
:107390000A2003F09BF90121284600F0A9FBF8BD63
:1073A00094A201002C06002070B50546002901D0EA
:1073B000012400E0002401222146FFF7BBFF03481F
:1073C0001B214019C9014018047670BDACF8FF1F9D
:1073D00010B500200121054A1B23DB011418E41815
:1073E000401C80B221760928F8D310BDACF8FF1FED
:1073F00010B500210846FFF715F900200F4A034693
:10740000182141438918A031401C0B7480B20B77BE
:107410000828F5D30021084600F0DAFA002400F02D
:10742000BBFE641CE0B20121FFF792F9A4B2082C64
:10743000F5D39220FFF7ECFE10BD0000ACF8FF1F63
:1074400010B506480221C176417D01770122520222
:107450000A21032002F030FC10BD00008C06002041
:1074600038B5044600200D460090082C14D8002C96
:1074700012D0082202F0A2F86946C87007496000DD
:10748000095A6B460422002002F0C0FD04486D2119
:10749000001949014018457038BD0000C29F010025
:1074A000ACF8FF1F012005496D2252010B189B18F3
:1074B0005870401C80B20928F8D37047ACF8FF1F01
:1074C00070B51B4C0520217D0B0003F036FE06191C
:1074D000041A192D2F1904F0E3F901F01BFB607D4C
:1074E0000225002802D0E576207708E00121084631
:1074F00000F06EFA00220A21032002F0DDFB257560
:1075000070BDE17E0029FBD1E07603220121104607
:1075100002F0D2FB607D002805D17F2252020A21B1
:10752000032002F0C9FB0320207570BD0020FBE79B
:107530008C06002010B5082806D8044AC000801820
:107540000822001D05F0FDF810BD0000ACF8FF1F7B
:1075500070B5074D074E0024E0004119801908223C
:10756000001D05F0EEF8641CA4B2092CF4D370BD24
:10757000D49F0100ACF8FF1FF8B50E460746082857
:107580002FD8002F06D117483146C28A002002F0BA
:1075900015F886B21448790009181B20C001081894
:1075A000009040886421FCF72BFE0446642130469D
:1075B000FCF726FE0546AC4201D9641E02E0AC424F
:1075C00001D2641CA4B26420604381B2384600F04A
:1075D0000DF8AC42EFD13146384600F007F800987C
:1075E0004680F8BD2C060020ACF8FF1FF8B5044615
:1075F0001BA000687D2200909201002001F0DEFFB8
:1076000080B2FDF7FEFA0022164BFDF78AF8002241
:10761000154BFDF7A9F80022144BFDF7A5F802461B
:107620000B460020124904F07DFB124F0546640012
:10763000385B0E46401C81B26B460422002002F0EB
:10764000E5FC6A462846314602F03AFC395B6B4657
:107650000122002002F068FC012003F037F8F8BD99
:107660000000208A0040BF40000059400000344024
:107670000000244030A2010030B57D218901084B73
:107680000120084A1B245980E4014500AD182D193A
:10769000401C80B269800928F7D3D98230BD000030
:1076A0002C060020ACF8FF1FF8B5194E0921708890
:1076B0000446FCF7A5FD641C748000290BD1154815
:1076C000164C0178144DA07E0A2905D0FF27062903
:1076D00005D00B291AD0F8BD00280AD1F8BDFF2823
:1076E000FCD0282101F08AFCC0B2A0763178884213
:1076F00001D9401E02E0884208D2401CC0B2A076E8
:107700004000295A0020FFF771FFF8BDA776F8BDA9
:10771000E0F0FF1F70F0FF1F42A201008C06002066
:1077200070B5040010D0094D09492A4601F056F9F8
:10773000002808D00649E000401840190822091D19
:1077400004F0FFFF012070BD002070BDAC0D0000F3
:10775000ACF8FF1FF8B54B4E4B4CB088FF21401CD6
:1077600080B2B080E77E7D227831D20000253B00D8
:1077700003F0E3FC0705071F395B6F7C0600B5804B
:10778000F8BD884208D901F06DFAFF22E5761202B1
:107790000A21032002F090FA207FFFF7C1FF0028A2
:1077A000EED0B5800620E076207F607501F050FABB
:1077B000F8BD88420AD901F03DFAFF22E5761202AF
:1077C0000A21032002F078FAFEF770FF207FFFF70E
:1077D000D3FC0028ECD0E576207F607501F038FA04
:1077E000FEF76CFE15E090420CD901F023FAFF225F
:1077F000E57612020B21032002F05EFA207F0121C0
:10780000FFF706FA207F0021FFF702FA0028CFD009
:10781000E57600220A21032002F04EFA7F2252026E
:107820000A21032002F048FAF8BD904208D901F07D
:1078300019FAFF22E57612020B21032002F03CFA2E
:10784000207FFFF709F90028EED0B5800620E0760A
:10785000E4E7884204D901F0EDF9FEF711FFE5767F
:10786000FFF7A8FC0028DFD0E576F8BD884202D9F2
:1078700001F0F8F9E57600F009F80028F5D0E57692
:107880000022CDE7BEF0FF1F8C06002010B5442279
:107890000349002001F0A2F8002800D0012010BD0B
:1078A0005C06002010B51B480024447501F0D0F997
:1078B00001210846FEF7B6FE7D2116488901603891
:1078C0004180C182144A0020182141438918A03107
:1078D000401C0C7480B20C770828F5D301210846AF
:1078E00000F076F8002400F057FC641CE0B201219F
:1078F000FEF72EFFA4B2082CF5D300220A210320A4
:1079000002F0DAF97F2252020A21032002F0D4F9B0
:1079100010BD00008C060020ACF8FF1FF0B50E462D
:1079200085B00546B0424ED0082D4CD8082E4AD816
:10793000002D48D0002E46D0182024496843441812
:10794000224698320DCA6F460DC76A461078EF225C
:1079500010401822724351188031097E6A46C906C8
:10796000C90F090108431070771EF8B20021FFF714
:107970007BF92246A432F8B20121FFF775F9FF2105
:10798000284681314843114900244018039000F0F3
:1079900003FC0C21039861434218E1B2F8B2103A9B
:1079A000FEF7C4FF641CA4B2202CF0D30748690082
:1079B00008181B21C901401841883046FFF7DCFD3B
:1079C000012005B0F0BD0020FBE70000ACF8FF1F70
:1079D000F8B504460F460220FEF742F8122001F0E7
:1079E000E5F9414D002C0BD001240B2060434119D7
:1079F000E0B24D31FFF742FC641CA4B2092CF4D371
:107A00009620FFF705FC002400F0C6FB1820604319
:107A100046193246B032E0B20021FFF725F932466E
:107A2000BC32E0B20121FFF71FF9641CA4B2082C9C
:107A3000EAD301243526B601600040198019018E71
:107A4000E0B2FEF74FFE641CA4B2092CF4D31B2451
:107A5000E401002F0BD00026700040190019418866
:107A6000F0B2FFF789FD761CB6B2092EF4D30026DA
:107A7000A8190019017EF0B2FFF796FC761CB6B289
:107A8000092EF5D300246D26760128198019417836
:107A9000E0B2FFF7E5FC641CA4B2092CF5D3002684
:107AA000FF213046813148430024471900F074FB20
:107AB0000C2060433A18FF32E1B2F0B27132FEF7A7
:107AC00035FF641CA4B2202CF0D3761CB6B2082E6D
:107AD000E6D3FEF7F3FC05480078062802D1032020
:107AE000FDF7BEFFF8BD0000ACF8FF1F70F0FF1FF0
:107AF000F3B581B00F4601981749400040181B218B
:107B0000C9014618002F02D0012F07D00CE0708861
:107B10006421FCF775FB0446002505E0002470880D
:107B20006421FCF76DFB0546AC4201D9641E02E0FE
:107B3000AC4201D2641CA4B26420604381B20198BB
:107B4000FFF754FDAC42EFD1012F03D171880198AA
:107B5000FFF74CFDFEBD0000ACF8FF1FFFB58BB07A
:107B60000F461846149CFDF74CF80022664BFCF7B4
:107B7000D8FD664E00223346FCF7F6FD08900991C9
:107B80002046FDF73EF800223346FCF7EDFD0446A3
:107B90000D463846FDF735F800225D4BFCF7C1FD78
:107BA00000223346FCF7E0FD06460F460D98FDF730
:107BB00028F8039102900022564B30463946FCF7D4
:107BC000D3FD554E02460B460020314604F0AAF87C
:107BD00001915249009003C90122FDF739F9039B35
:107BE000029AFDF711F84E4B0CCBFCF7BDFD059149
:107BF0000490012220462946FDF72AF904460D4645
:107C00000599049804F0B2FD22462B46FCF7ACFD22
:107C1000039102900022434B09990898FCF7A4FDB8
:107C200002460B460020314604F07CF806460F461B
:107C3000019B009A03990298FCF796FD00223A4BAB
:107C400009910890FCF760FD04460D46019B009ADF
:107C500003990298FCF7D8FF0022334B0191009062
:107C6000FCF76AFD32463B46FCF7CEFF22462B4628
:107C7000FCF77AFD0B9A03C20B9A059908320B9216
:107C8000049803F0C1FD032300229B07FCF7BCFF0F
:107C900032463B46FCF7B8FF22462B46FCF764FD14
:107CA0000B9A214B03C20B9A009808320B920022C8
:107CB0000199FCF729FD32463B46FCF7A5FF224619
:107CC0002B46FCF751FD0B9A174B03C20B9A0999EF
:107CD0001646083600220898FCF723FD22462B465C
:107CE000FCF742FD7160306008360599049803F096
:107CF0008BFD0122FDF7ACF822462B46FCF734FD44
:107D000003C60FB0F0BD000000709740000059405E
:107D100000C0A240000044400000244028A0010010
:107D200020A00100000034400000F03F10B5012009
:107D3000FEF706FC03220221002001F0BDFF10BD6A
:107D400010B50220FDF78CFE1249042008700020B7
:107D500002F09CFA292001F029F8072001F026F80A
:107D6000062001F023F8282001F020F8312001F04E
:107D70001DF8322001F01AF81C2001F017F806490E
:107D800003224868D2039043486000030349C00FB0
:107D9000087010BDA0F7FF1F90F1FF1F78F0FF1FC4
:107DA00010B50021232001F019F8232001F0E2F89A
:107DB00010BDF8B507461D4614460E46232000F0B8
:107DC000F5FF3946002002F01FFA3002010E0020B4
:107DD00002F01AFA3004010E002002F015FAF1B296
:107DE000002002F011FA05E0FF21002002F00CFA59
:107DF0002070641C28466D1EADB20028F4D12320EB
:107E000001F0B8F8F8BD70B505460C46232000F027
:107E1000CDFF2946002002F0F7F92002010E0020D4
:107E200002F0F2F92004010E002002F0EDF9E1B2B7
:107E3000002002F0E9F9232001F09CF870BDF8B5AC
:107E400007461C4615460E46232000F0AFFF394674
:107E5000002002F0D9F93002010E002002F0D4F91E
:107E60003004010E002002F0CFF9F1B2002002E050
:107E7000297800206D1C02F0C7F92046641EA4B2C8
:107E80000028F5D1232001F075F8F8BD10B504469F
:107E9000232000F08BFF2146002002F0B5F92320BB
:107EA00001F068F810BD03780A78534003700A782F
:107EB0005A400A70017851400170704710B504466D
:107EC000083001F07FFE606801F0CEF90F480178BC
:107ED000FB221140017001788906890E8031017002
:107EE0004178EF221140417001790907890F022979
:107EF000FAD10179C906FCD44178C906C90E41708E
:107F0000017980221143017110BD0000004006403C
:107F100010B50446083001F055FE606801F0A4F980
:107F200009480178FB22114001700179C906FCD48F
