:020000040000FA
:10400000F0130020834100008F4100009141000027
:1040100000000000000000000000000000000000A0
:1040200000000000000000000000000093410000BC
:1040300000000000000000009541000065C900007C
:104040009941000099410000994100009941000008
:10405000994100009941000099410000B5AB000072
:10406000994100009941000051C2000053C2000074
:1040700019D5000023D500002DD50000DD52000029
:1040800099410000994100009941000099410000C8
:1040900099410000994100009941000099410000B8
:1040A00011AC0000994100009941000099410000C5
:1040B0009941000099410000994100009941000098
:1040C00000F002F800F030F80CA030C808382418CE
:1040D0002D18A246671EAB4654465D46AC4201D140
:1040E00000F022F87E460F3E0FCCB6460126334242
:1040F00000D0FB1AA246AB4633431847548F010049
:10410000748F01000023002400250026103A01D3FB
:1041100078C1FBD8520700D330C100D50B6070477F
:104120001FB51FBD10B510BD00F0A6FF1146FFF76B
:10413000F7FF0AF0A1FA00F0BEFF03B4FFF7F2FFA9
:1041400003BC00F0F1FF000070B505460C461646B2
:1041500002E00FCC0FC5103E102EFAD2082E02D36B
:1041600003CC03C5083E042E07D301CC01C5361F7E
:1041700003E021782970641C6D1C761EF9D270BD95
:104180007047094880470948804709480047FEE7CB
:10419000FEE7FEE7FEE7FEE7FEE70000054806490A
:1041A000044A064B70470000F9CC00008141000032
:1041B000C1400000F00E0020F0130020F00E00209F
:1041C00001E004C0091F0429FBD28B0701D502803E
:1041D000801CC90700D00270704700290BD0C307AC
:1041E00002D00270401C491E022904D3830702D565
:1041F0000280801C891EE3E70022EEE70022DFE751
:10420000002203098B422CD3030A8B4211D30023D3
:104210009C464EE003460B433CD4002243088B42AD
:1042200031D303098B421CD3030A8B4201D394463A
:104230003FE0C3098B4201D3CB01C01A524183092D
:104240008B4201D38B01C01A524143098B4201D3E7
:104250004B01C01A524103098B4201D30B01C01A12
:104260005241C3088B4201D3CB00C01A524183088C
:104270008B4201D38B00C01A524143088B4201D3B9
:104280004B00C01A5241411A00D201465241104619
:1042900070475DE0CA0F00D04942031000D340428E
:1042A000534000229C4603098B422DD3030A8B42C4
:1042B00012D3FC22890112BA030A8B420CD3890162
:1042C00092118B4208D3890192118B4204D3890148
:1042D0003AD0921100E08909C3098B4201D3CB0186
:1042E000C01A524183098B4201D38B01C01A52413B
:1042F00043098B4201D34B01C01A524103098B423F
:1043000001D30B01C01A5241C3088B4201D3CB0029
:10431000C01A524183088B4201D38B00C01A52410C
:10432000D9D243088B4201D34B00C01A5241411AE3
:1043300000D20146634652415B10104601D3404211
:10434000002B00D54942704763465B1000D34042C2
:1043500001B50020C046C04602BD70477047704797
:1043600030B50346CA02400D1043164D164C0A15CF
:1043700002D02043002A06DBAA1A002A12DDD04010
:10438000FF2A0BDC30BD5205520D01D14000400820
:10439000AA1A07D4D0404042FF2A01DD002030BDD8
:1043A0000028FCDD4A00002B01D0012000E00020A5
:1043B000101801225205D042F0D8C817C0436040FF
:1043C00030BD00001E0400000000008010B500F0A9
:1043D00009F8006810BD10B5044600F003F8046049
:1043E00010BD000000487047900E002010B500205E
:1043F0000249029A00F067FE10BD00000000F87F3D
:10440000FFFFFFFFFFFFFFFFFFFFFFFFFFFFFEFEBE
:10441000F0B50C46871A9C410D46861A9D4103D281
:10442000C01BA141D21963410D0D1F0DC94EEC1BDC
:10443000AE435CD07F057F0D0026002F51D02D05A7
:10444000AC46A943DD020123ED0A1B051D432023D1
:104450001B1B24D41746E740381871412F46E7400C
:10446000CC199D402818314661410C0D27D161447B
:104470009A4013D50023401C594152000ED14008E8
:10448000400001224B005205D34207D305204007CC
:10449000C14201D5B04900E0B0493046F0BD6B00E3
:1044A000002A00D001229A181F23203C1B1B01D593
:1044B000002302E0E540281871410C0DD7D00124FB
:1044C00024050919C407CD0740084908E40F28430B
:1044D0006144002CD5D00024401C61419A40D0D1C9
:1044E000CDE76A05520DD9D1C90FC907D5E79C4D53
:1044F0004E00002801D0012400E0002434195F00A0
:10450000002A01D0012600E00026BE19954FAC42DA
:104510000CD8AE420AD8B44206D001256D05EC4253
:10452000BCD010461946F0BD9942FCD00020394657
:10453000F0BDF0B51FB40C460F46811A9F412546C9
:10454000861A9D4106D20125ED076F40401ABC41F5
:1045500052187B41210D1E0D8D1BAC467D4D8D43A8
:104560007ED075056D0D7CD00D05AE46AC431B03AA
:104570001B0B794D52429D41202366469B1B14D351
:104580001746F740381800260090744160462F46C1
:104590000741E41900989D402818664116D47146D9
:1045A00071189A4025D5012320E093182A466A41C4
:1045B0005200002B00D0521C1E23203E9B1B002BC0
:1045C00061DD3541EE1728186641E8D500187641BF
:1045D0005B1C9A4000D3401C4B05F3181524E340A4
:1045E00010D3002B52D071467118D30FC01802D3CC
:1045F000491C05B0F0BD0123DB079A42F9D1400800
:104600004000F6E701225205B21801D1002853D02C
:104610000123CC0ADB029943891E002A08D1020C2F
:1046200003D0020C0004103902E0024600202039B9
:104630000023550B05D112020823550B01D152015D
:104640000D23550C01D112011B1DD50C01D1920077
:104650009B1C150D01D152005B1C2025EE1A01E0B8
:104660002CE022E00546F54015439840CA1AE107C0
:1046700069181305C918002ABBDA03204007081877
:10468000C10FC9070FE071466118B2E7F107400892
:104690000843711071444A000CD001235B059A4213
:1046A000A7D2C90FC9070020A3E74905490D26D1A4
:1046B000002001E00028F4D100219AE7284D66008F
:1046C000002801D0012100E0002171185F00002ABC
:1046D00001D0012600E00026BE19224FA94210D8C1
:1046E000AE420ED8B14208D001256D05E94206D090
:1046F0001946A802414010467BE79C4201D0214662
:1047000077E70020394674E710B50C465C4005D5C4
:104710000124E4076340FFF70CFF10BDFFF778FEAC
:1047200010BD30B40C465C4004D50124E40763405E
:1047300030BC6DE630BCFCE670B50124E407614096
:104740000D465D4002D4FFF763FE70BD6340FFF786
:10475000F0FE70BDFF0700000000F0FF0000F07FDA
:104760000000E0FF0000F87FF0B5F94D0C091E09CC
:104770002C402E402F468BB0A7437DD0B543FCD0B4
:10478000002E7AD0002CFCD00D465D40ED0F254365
:10479000AC1BFF25AD0464190894C502440DC90281
:1047A0002143500DDC0204430120C00701430443B0
:1047B000D2020191200C110C00958C460104234675
:1047C0008B430A9161460904E24D8A430991010A2B
:1047D0007D4449198039097805464D4301266D18F5
:1047E000F605751B6943C90C640B891C4C4364189E
:1047F000B5012C1B250C2E04B4434C434D43210C16
:10480000691889090591009DE90701D00121C907AF
:1048100004912C4601996708CD072F434C08059D4C
:10482000E10B4D432D0C29466646754302950D4616
:1048300045432E46029D7D1BB44100950D465D43C8
:1048400001942C0C2F040D465543AE462D0C3D43D0
:10485000029503947546049C2D04641B049406D2AF
:10486000029C039D641C002675410395029401ACD3
:1048700070CC009F7D1B01E03EE162E1B441090480
:104880000095079101940599A4086143090C0C4611
:104890004443650BE7040C4666467443A646640B26
:1048A0003C43039502947446049DE4042C1B049439
:1048B00006D2029C039D641C002675410395029458
:1048C00001AC70CC009F7D1BB44101940C465C434D
:1048D0000095650FE7000C465443A646640F3C4321
:1048E000039502947446049DE4002C1B049406D2A4
:1048F000029C039D641C002675410395029401AC43
:1049000070CC009F7D1BB441AE09AF06049DC90069
:10491000AD092F43049DA406AD060495079D3443BD
:1049200069180791059DE10B4D432D0C29466646FC
:10493000754302950D4645432E46029D7D1BB441AD
:1049400000950D465D4301942C0C2F040D465543F4
:10495000AE462D0C3D43029503947546049C2D04F0
:10496000641B049406D2029C039D641C00267541BE
:104970000395029401AC70CC009F7D1BB44101945F
:104980008C050694079C890A611800950791019C83
:104990000599A4086143090C0D464543680BEF04D3
:1049A0000D46644665436C0B3C43049FED047D1B40
:1049B000AC4602D20025641C6841009E019D371B55
:1049C00085410846584301950C46460FC50054439F
:1049D000600F28436546E4002C1B02D20025401CD2
:1049E0006E41019D3F1AB5412846BD098006284306
:1049F0008446A009BF064E020699A406761807430E
:104A0000079D002068410A99079019430020099BDF
:104A100000906046FF1913434041E20F64003A439F
:104A2000A4460446D71A8C41A04203D90120009025
:104A300020463A46C70F941840416246D20F22439F
:104A4000644664000494009CBE466400D71AA446E1
:104A5000044602978C417746002F01D1A04204D929
:104A60006046401C8446029A2046C40FA64694180D
:104A70004041049A0546D20F224364466400D31A8B
:104A80008D417146002901D1A84202D928461A4613
:104A9000641C10430122002800D01643610200204C
:104AA000079B891904465C410223002C02DB49184C
:104AB00013466441089DCE0A2D145D194B05670508
:104AC000E10A2C050D1908993E43C9076940002BDE
:104AD00008D0934006D30022761C5141002B01D10F
:104AE000760876001C4A002D43DB154241D0AA43CC
:104AF0003FD030460BB0F0BD06180D464D41174C67
:104B00007642AC411AD395181C465C41134A6D425B
:104B1000A24113D3012252054C00D4420AD15C00B9
:104B2000D4420BD04B4002D592021143E2E7490038
:104B30004908DFE75940C90FC90718E000200849B4
:104B4000D8E7054801420DD10342F7D0F2E7000053
:104B50000000FF074C8601000000F07F0000E0FF2E
:104B60000000F87F114859400143C0124140002025
:104B7000C0E70123089A9B069A4205DC03225207EC
:104B80008918C90FC907B5E7052252078918074ACE
:104B90001143D2125140ADE770B515461C4602468E
:104BA0000B4628462146FFF7DFFD70BDFFFFFF7F64
:104BB0001F22030C02D10F22000402D0030E03D0E7
:104BC00004E00020014670470002083A030F01D1BB
:104BD0000001121F830F01D18000921E002801DB0B
:104BE0004000521E120551184205C01241181046CD
:104BF0007047C10FC90700D04042012292071143FC
:104C0000D6E701218907D3E7F0B58B4C0F0925467C
:104C100089B0BD437BD01D092646AE43FAD00E466F
:104C20005E402740F60F3E43254071D024012142CB
:104C3000FBD0FF24AD19A4042D1B039501252D05E0
:104C4000DB02DB0AC9022B43C90A29431E01090101
:104C5000040F130F050121431701880B82039143B1
:104C60002D098C46A90B1E438A039543B30B9A0367
:104C700096433F09BA0B9403A74302962E467E4300
:104C80000497B6464E19D7190C460196544305971A
:104C90007E43371B7646BF1B3601B646BE0B361920
:104CA00000967646BC043719009C01D3641C00941E
:104CB0006400002F01D001263443029E049F7543F7
:104CC00066467E430496760034196E0034190094CB
:104CD000029C019E1C196643751BAE4606946546F0
:104CE0004519059C05956C43594375460891691A09
:104CF0000191049E01465143A41B0491611A009C3A
:104D00000791E10605D061090122114302E072E03A
:104D10006EE06109089D00272C0A2D066918049D84
:104D20007C412A0A2D066918019D6241AC0DAD0235
:104D30006D185441079A910D920255196141029ADA
:104D4000644658435443069B059A5A43121A131B50
:104D50009A0E9B015B187A41010B0005C318514163
:104D6000220A200644195A419A4200D2491C0120C5
:104D70004002814203D315230226F64302E01423A6
:104D80000326F6432020C51AA9401746AF40DA4053
:104D90000A4320460399D84009147318190551187D
:104DA000039A3843D2075140AC4009D001229440C5
:104DB00006D30022401C5141002C01D14008400084
:104DC0001E4A934212D3012203989206904207DBB7
:104DD0000520400709181A480143C012414004E069
:104DE000032040070818C10FC907002009B0F0BD13
:104DF0000020F107FAE705180C464C4111486D42B6
:104E0000A04115D394181A465A410E486442904165
:104E10000ED301204A004005824209D35A00824243
:104E200006D35940C90F084AC90700201143DDE7DE
:104E300000200649DAE700000000FF07FE07000037
:104E4000FFFFFF7F0000E0FF0000F07F0000F87F21
:104E5000F8B5224C4E00069DA6420AD8A64201D1C2
:104E6000002806D15E00A64203D8A6420AD1002A35
:104E700008D00D24240425422CD02946002000F01F
:104E8000DFF8F8BD0C461C430CD4994202D0EFF376
:104E90000080F8BD904202D0EFF30080F8BDEFF340
:104EA0000080F8BD09242407E5008B4206D0EFF30B
:104EB0000080A043591A06D2284304E0101A05D3F3
:104EC000EFF30080A04380F30088F8BDEFF300808B
:104ED000A043F1E70095FFF789FAF8BD0000E0FF75
:104EE00070B505464800440D124B0020002C0AD036
:104EF000634008D09A4206DA6642B24203DD1205E8
:104F00004019514170BD002C08D0002B09D0C90FA9
:104F1000C907002AF6DB084A114370BDC90FC9074B
:104F200070BD28460A03104302D00020034970BD1B
:104F3000284670BDFF0700000000F07F0000F87FEA
:104F4000F0B53D4B02460C461C400020002C63D0BF
:104F50003A4D8B4366D000296BDB0B0D1D05A94331
:104F600001252D0529430124FD33E34001D3921887
:104F70004941FF3381339C468B02940D0121234329
:104F800089074C42920200271B198C105D1A04D429
:104F90002D1B02D42B466500491992185B41640809
:104FA000F4D15C1A08D40125ED07EE1755197441A8
:104FB00002D42A462346491C94185B4101229207D9
:104FC0001D46E61B8D4106D4B61A854103D42B46F7
:104FD000550034467F1924195B415208802AEFD1CD
:104FE000234300D0022338460A22D04001D30122B5
:104FF00013438A0510436246890A12058918002B5B
:1050000009D00122D34002D30022401C5141002B81
:1050100001D140084000F0BD0B03134307D0C90F76
:10502000C907F0BD0803104303D1002901DB104676
:10503000F0BD00202946F0BD0000F07F0000F87FA1
:10504000C80212D54803400F002804D0C803C0434B
:10505000012188407047EFF300800001000903211F
:105060000907084380F3008870470020704700005C
:1050700000487047900E00207546FFF7F9FFAE46D6
:10508000050069465346C008C000854618B020B5E3
:10509000FFF784F860BC00274908B6460026C0C563
:1050A000C0C5C0C5C0C5C0C5C0C5C0C5C0C5403DE0
:1050B00049008D46704710B50446C046C04620469C
:1050C000FFF73BF810BD10B50C461107090F092971
:1050D00004D00A290AD008290CD104E0114608207E
:1050E000FFF7AEFF06E0510606D501E0510601D5F7
:1050F0000120C007214610BDD10607D501010909CD
:10510000CC084907000E0006044309E0410F2002C5
:105110004907000A0143200E00061D22D141014328
:105120000846E7E77047000001491820ABBEFEE7DC
:105130002600020070B58C180578401C6B075B0FC9
:1051400001D10378401C2A1106D10278401C03E0EB
:105150000678401C0E70491C5B1EF9D12B0705D444
:105160000023521E0DD40B70491CFAE70378401C33
:10517000CB1A921C03E01D780D70491C5B1C521E5B
:10518000F9D5A142D8D3002070BD000010B546204B
:1051900005F0F8FA002801D1012000E000201949AB
:1051A000087008460078184909790907C90F88422C
:1051B00024D014484078401CC0B2124948701928C5
:1051C0001FDB002048700846007800280FD00E48EA
:1051D000406801210905884340180B49486008468A
:1051E00040680821884308300749486009E00648BC
:1051F0004068082188430449486002E000200149D2
:10520000487010BDB0F0FF1F8CF1FF1F10B50121D9
:10521000462005F0FBF802220021024809F084FF35
:1052200010BD0000B0F0FF1F10B50446002C04D0E4
:10523000012C03D0022C0BD105E00AE080210020D4
:1052400000F01AF805E08021002000F015F800E0D9
:1052500000BF00BF10BD10B50021062005F0D6F834
:105260000021282005F0D2F800212C2005F0CEF8EE
:105270002C2005F067FA10BD70B504460D462C20B1
:1052800005F0A4F80821012007F0E4F821460120E8
:1052900007F0E0F82946012007F0DCF82C2005F0A3
:1052A00051FA70BD10B504461F21204600F011F9D7
:1052B000034840690121490788430149486110BDFD
:1052C0000080044070B504460D462146024800F0B7
:1052D000DBF82880012070BD00B00340704700005B
:1052E00030B504460D466548844206D1644840699D
:1052F000012149070843624948612979204600F0A5
:10530000D5F86979204600F0D9F8A979204600F04F
:10531000F0F8E979204600F0E4F86888A061287880
:105320000007C00F002806D000BF60682021084396
:10533000606000BF00BF2878C006C00F002806D0FC
:1053400000BF606810210843606000BF00BF28787C
:105350008007C00F002806D000BF20682021084326
:10536000206000BF00BF2888C005C00F002806D0FD
:1053700000BFE06820210843E06000BF00BF28783C
:105380000006C00F002806D000BFE0684021084397
:10539000E06000BF00BF28784007C00F002806D09B
:1053A00000BF606840210843606000BF00BF2878EC
:1053B000C007C00F00280CD000BF20684021084360
:1053C000206000BF0F20012181402E4A116000BFE4
:1053D00000BF28784006C00F002806D000BFA06894
:1053E00010210843A06000BF00BF28788006C00FCE
:1053F000002806D000BFA06880210843A06000BF3D
:1054000000BF28888005C00F002807D000BFE068D3
:10541000FF2101310843E06000BF07E000BFE06802
:10542000FF2101318843E06000BF00BF28884005AC
:10543000C00F002806D000BFE06902210843E061E8
:1054400000BF06E000BFE06902218843E06100BFC1
:1054500000BF28880005C00F002806D000BFE06903
:1054600001210843E06100BF06E000BFE069400899
:105470004000E06100BF00BF30BD000000B003404D
:105480000080044000E100E030B504460D462946A6
:10549000204600F01EF800BF00BF206880210840B1
:1054A0000028F9D000BF206980B230BD8268920820
:1054B00092008B079B0F13438360704710B582687F
:1054C00060241346A3431A464B01234013438360D1
:1054D00010BD026852095201CB06DB0E1343036074
:1054E0007047C268D208D2004B075B0F1343C360FA
:1054F000704710B582680C241346A3431A468B00EC
:1055000023401343836010BD10B500212F2004F009
:105510007DFF00212D2004F079FF0021152004F0EB
:1055200075FF02210D2004F071FF10BD10B50021A0
:10553000312004F06BFF0021322004F067FF0221CC
:10554000332004F063FF10BD10B51D2005F01AF9DB
:10555000002801D1012000E000201649087008460B
:105560000078154949684903C90F88421ED011487F
:105570004078401CC0B20F494870192819DB002040
:10558000487008460078002808D00B484068012180
:10559000890488434018084948600AE00648406882
:1055A0000121890488430449486002E00020014940
:1055B000487010BDB2F0FF1F8CF1FF1F0248034975
:1055C00088600348C860704765D40000A8F7FF1FD3
:1055D00089D4000010B5044606480078032807D196
:1055E0000448C068002803D00248C16820468847A4
:1055F00010BD0000A8F7FF1F10B500201B4948711F
:1056000000241BE01A49085D05F0BAF9002813D000
:1056100016484079002808D11548005D13494870A4
:10562000012048710846C47006E01148005D0F492A
:1056300088700846047103E0601CC4B2042CE1DBEE
:1056400000BF0A48C078042801D1002010BD0748D7
:10565000C078800007490858002805D00349C97858
:105660008900044A505880470120EFE7A8F7FF1F40
:1056700074F4000078F4000000214868804700BFFF
:10568000FEE7000030B591B0FE4CA01F0079F02875
:1056900002DAFF2000F082FAFA48801F00790C2815
:1056A00065D006DC012814D0082878D00A2877D1E4
:1056B00049E00E2875D0FF28F9D1F248801FC17843
:1056C0009830C078814203D10021EF48C1748174C1
:1056D000E9E1EC48801F407901280CD1EB48406893
:1056E000012189058843E9494860112201210846C2
:1056F00006F012FB26E0E348801F4079102808D10D
:10570000E24840680121890588434018DF49486024
:1057100018E0DC48801F4079112813D1D948801F38
:105720008078C11F1E2005F06DF8D9490870084621
:1057300002782146401C09F0E9FC112201210320D6
:1057400006F0EAFAAFE1CF48801F40790D280DD16D
:105750006078D0490873A178CE4841732078000260
:105760000D3082B20A21032006F0D6FA9BE1C5482B
:10577000801F4079082871D007DC030008F075F914
:10578000087E198494A4B8C6DE7E0C2867D009DC94
:10579000092871D00A2870D00B286FD126E15EE16C
:1057A00080E15BE187286AD08B2869D08C28F4D10E
:1057B00042E1207802281ED004DC002807D001280E
:1057C0005FD105E003282ED0F1285AD148E059E0F6
:1057D000B0482038007E012801D0012000E00020E0
:1057E00005462946002002F079FC08220A21032000
:1057F00006F092FA46E0A8480178491C282005F0F6
:1058000001F8A54908700846007808F085F8FF22DD
:105810000E320A21032006F07FFA06220A21032015
:1058200006F07AFA2EE09C480078002803D09A48C7
:105830000078401E00E00020974908700846007874
:1058400008F06AF8FF220E320A21032006F064FAFB
:1058500006220A21032006F05FFA13E07EE0EAE068
:10586000207800028749891F4979401882B20C21AB
:10587000032006F051FA05E088E09FE0EBE05EE0EF
:10588000B5E000BF00BFE7E0217881482030017417
:10589000207800027B49891F4979401882B20C2187
:1058A000032006F039FAD7E0217879482030417496
:1058B000207800027349891F4979401882B20C216F
:1058C000032006F029FA00BF022221467048323038
:1058D00009F01CFC0222A11C6D48343009F016FCB2
:1058E0006848801F42790C21032006F015FAB3E0C6
:1058F000022221466648343009F008FC6148801FC6
:1059000042790C21032006F007FAA5E05D48801FCC
:105910008078C11F312004F075FFC1B25C48C030EF
:105920000173027B21460D3009F0F0FB5548801FC2
:1059300042790C21032006F0EFF98DE000BF2178B9
:1059400053482030817361780E3041704D48801F7C
:1059500042790C21032006F0DFF97DE04948801FE1
:105960008078C11F312004F04DFFC1B2484820307B
:105970008175827D2146173009F0C8FB4148801FA0
:1059800042790C21032006F0C7F965E03D48801FED
:105990008078C11F312004F035FFC1B23C4860302F
:1059A0000172027A2146093009F0B0FB3548801FA8
:1059B00042790C21032006F0AFF94DE03148801FF9
:1059C0008078C11F312004F01DFFC1B23048803003
:1059D0008176827E21461B3009F098FB2948801F82
:1059E00042790C21032006F097F935E000BF2178B9
:1059F00068460171617841712248801F80780146B4
:105A000009393C2004F0FEFEC1B2684681718279FA
:105A1000A11CC01D09F07AFB012201A91F4806F054
:105A200000FA002806D01748801F42790C21032075
:105A300006F072F910E000BF21781548203001739C
:105A400061780C3041700F48801F42790C2103208F
:105A500006F062F900E000BF00BF24E023E009483F
:105A6000801F407901280CD1122004F0AFFC0C48B3
:105A700006F07AFD0548406802218843801C0349EE
:105A8000486010E0D40B0020EE0C00208CF1FF1FCA
:105A900010070020A4060020DCF0FF1FA0F0FF1F6D
:105AA00055AA55AA00BF00BF11B030BD10B56CE0BB
:105AB0003948C07D002806D0012814D0022825D0FE
:105AC000032860D13CE0012233498039104607F0B9
:105AD000A2FE314880380078AA2800D054E0012185
:105AE0002D48C17550E001222B497F39104607F03F
:105AF00092FE294880384078552803D00021264856
:105B0000C17541E002212448C1753DE001222249CE
:105B10007E39104607F07FFE1F488038817880303C
:105B20008175807D962803DC1B48807D032803DA7D
:105B300000211948C17527E003211748C17523E0EA
:105B40001548807DC01E82B213497D39012007F0BF
:105B500062FE002800D110BD0F48807D401EC1B2FA
:105B60000D48803804F02CFE0B49897D491E0A4AF5
:105B7000803A515C884201D1FFF784FD002106483C
:105B8000C175817500E000BF00BF012007F03CFE39
:105B900000288DD100BFDEE74E0C00201CB5044666
:105BA000552168460170AA2141700621817007487D
:105BB000C1786846C1700471052104F001FE694690
:105BC00048710622012007F044FE1CBDCE0B0020C8
:105BD00070B5044602226CA1204609F083FA002821
:105BE00000D170BDA0782B281DD045281AD0492897
:105BF00002D04F287BD114E0072264A1E01C09F0F9
:105C000071FA012807D106F0DFFF0A2261A1002006
:105C100007F01FFE04E0062261A1E01C09F062FA11
:105C2000AEE0ADE0ACE008225FA1E01C09F05AFA5A
:105C300001280CD10C2221460B315E4809F066FA8E
:105C4000FF220D320A21032006F066F896E00522B5
:105C500059A1E01C09F046FA01282CD1072258A1CD
:105C60002046083009F03EFA002808D1012006F04D
:105C7000ABFF112254A1002007F0EBFD7EE00422CF
:105C800056A120460D3009F02DFA01280AD106F060
:105C90009BFF112253A1002007F0DBFD03F000FB66
:105CA00000BFFEE7012006F08FFF0D2252A1002069
:105CB00007F0CFFD62E0052253A1E01C09F012FAC3
:105CC00001285BD12920005D51490978884200D123
:105CD00056E02920005D4E4908702B20005D3128D8
:105CE00012D14C48007E012802D0012001E046E09C
:105CF000002005462946002002F0F0F908220A217A
:105D0000032006F009F839E02B20005D322817D176
:105D100041480178491C282004F074FD3E49087070
:105D20000846007807F0F8FDFF220E320A21032012
:105D300005F0F2FF06220A21032005F0EDFF1DE029
:105D40002B20005D332819D133480078002803D078
:105D500031480078401E00E000202F4908700846B6
:105D6000007807F0D9FDFF220E320A21032005F04A
:105D7000D3FF06220A21032005F0CEFF00E000BF7A
:105D800000BF00BF2DE700000D0A00004D5F524527
:105D90004144590041542B4E414D453F0D000000F8
:105DA0004D5F4741545400004C4244414444523AF0
:105DB00000000000020D00204E414D453A00000059
:105DC0004453505F4453440041542B4E414D453D94
:105DD0004453505F4453440D000000005F4556415A
:105DE0000000000041542B464143544F5259524544
:105DF0005345540D0000000041542B4C4244414493
:105E000044523F0D000000005343414E3D0000004E
:105E1000B6F0FF1F84060020DCF0FF1F10B504461B
:105E2000002C0CD0012C0AD0022C03D1012005F04B
:105E3000E1FD04E0032C02D1002005F0DBFD10BDE4
:105E400010B502211D2004F0E1FA022200210248CF
:105E500009F06AF910BD0000B2F0FF1F70B50546E9
:105E60000C46FAE003F01CFA5120005D102862D0C5
:105E700008DC00280FD0012827D0022835D00328BD
:105E800070D145E0112871D020286DD021286CD028
:105E90003028F5D1D3E001222146284607F0BBFC8B
:105EA0002078AA2803D10121512001550CE0207847
:105EB0000D2803D102215120015505E02078442806
:105EC00002D1032151200155C6E00122611C284660
:105ED00007F0A1FC6078552803D11021512001550D
:105EE00002E0002151200155B6E00122611C284644
:105EF00007F091FC60780A2806D120215120015535
:105F000000215020015502E0002151200155A3E05D
:105F10000122611C284607F07EFC6078422806D1E9
:105F200030215120015500215020015502E000216F
:105F30005120015590E00122A11C284607F06BFC7E
:105F4000A17850200155005D502803DC5020005DF1
:105F5000032803DA0021512001557DE01121512051
:105F6000015579E077E001E02DE04BE05020005D45
:105F7000C01E82B2E11C284607F04DFC002800D16B
:105F800070BD5020005D401EC1B2204604F018FCD8
:105F90005021095D491E615C88420ED1334800786A
:105FA000A84208D0284600F0DFFE5020025D2146BE
:105FB0002F4809F0ABF800F041F9002151200155BC
:105FC00050200155DCE75020005D801C01190122A2
:105FD000284607F020FC5020005D801C205C0D2826
:105FE00003D12121512001550BE05020005D401CC0
:105FF000C1B250200155005D322802DB0021512042
:10600000015529E05020005DC01C011901222846DD
:1060100007F001FC5020005DC01C205C0A280AD15A
:106020005020005D002803D120215120015513E0AC
:106030002046FFF7CDFD0021512001550CE0012243
:10604000A11C284607F0E7FBA07800F059FF0021CB
:106050005120015500E000BF00BF284607F0D4FBE7
:10606000002800D0FEE600BF8AE70000B7F0FF1F5F
:106070000EF8FF1F10B50021072004F0C7F910BD6E
:1060800010B5044620480088401C1F4908801F485E
:106090000078012826D1002008801C49087020794A
:1060A0001021884310302071184840784100401872
:1060B0001749085C20701548407841004018144981
:1060C0004018407860702079800880000F49497836
:1060D0004A0089180E4A891889788907890F084368
:1060E00020710AE008480088282806DB00200649BD
:1060F00008802079102188432071204604F0AEFEEC
:10610000204604F0F2FE10BD44F1FF1F8BF0FF1F8C
:106110002FF1FF1F10B506F0B5FA10BD10B509F04C
:106120008BF810BD10B506F0FBFA10BD10B507488E
:1061300004F091F80548403004F08DF803488030B1
:1061400004F089F804F06FF810BD000000F00F4073
:1061500010B50120800309F0D7F810BD10B504492F
:10616000002006F07DFB0249012006F079FB10BDFE
:10617000801A060010B509F0A1F810BD10B5002076
:106180000949886109484861072008610321081FFF
:1061900005F08CFC0020C043C206D20E01219140C4
:1061A000034A116000BF10BD00E000E0FF70020074
:1061B00000E100E010B5E1214902002006F08CFC6E
:1061C000E1214902012006F087FCE1214902022079
:1061D00006F082FC10BD70471CB56846008804219B
:1061E0008843011D684601800088082188430146D4
:1061F0006846018000881021884301466846018076
:1062000000884021884341186846018000880221A7
:1062100088430146684601800088FF218131884318
:1062200001468031684601807D214901418000217D
:10623000818007F0A7FB07F085FB1CBDFEB5FE4C77
:10624000A01F0079F02802DAFF2000F06FFDFA4865
:10625000801F00790C287DD008DC012826D0082872
:1062600079D00A283ED00B2876D1F7E30F2874D0D6
:10627000F0280ED0FF28F7D1EF48801FC078EF49F3
:10628000C978884204D10021EC484030417501753D
:10629000E5E3E948801F4079002806D10120E8495C
:1062A00008706078487020788870F1E7E248801FB5
:1062B0004079042802D0112811D105E003220121E0
:1062C000104605F029FD0BE011220121032005F005
:1062D00023FD11220121084605F01EFD00E000BF4C
:1062E00000BFD5E7D448801F40790C2873D009DC63
:1062F000030007F0BAFB0C297AF2F1F0EFEEEDECB7
:10630000EBEAE986862867D00EDC832876D006DCA7
:106310000D2874D00E2873D0822872D14BE18428C6
:1063200070D08528F9D12FE28738082869D2430038
:106330007B449B885B009F4477029502B302640014
:10634000640064006503A803BE48C07E002844D1F1
:10635000207803E0EFE3EFE3EFE3EFE3002807D17A
:10636000B548801F42790A21032005F0D5FC3BE0A7
:106370002078012815D1B44840680003C00F0028D8
:1063800005D10120AF49C8766178AE480177AA48A7
:10639000801F4079C21DF9320A21032005F0BCFCA0
:1063A00022E0207802281FD1A74840680003C00FD0
:1063B000002805D10220A349C8766178A148017759
:1063C0009D48801F4079C21DFF32FA320A21032006
:1063D00005F0A2FC08E0D6E208E29748801F427967
:1063E0000A21032005F098FC59E3207800280AD1FF
:1063F00001220A21032005F08FFCC5E029E1D6E245
:1064000009E34BE375E12078012808D18E48406804
:106410000003C00F0028F0D100F0FCFDB4E02078AC
:10642000022826D160780028E7D08748406800031A
:10643000C00F002802D1607800F03EFF6078C10FE5
:10644000091849104900411A09D06078401E4001DE
:106450000121C90308437B492039C88694E060784C
:10646000401E40010121C9030843764920390887AD
:106470008AE02078032831D16078002819D072484A
:1064800040680003C00F002803D16078012100F0AC
:1064900013FE6078C10F091849104900411A09D04C
:1064A0006078401E40010121C90308436549203935
:1064B000C88669E06078401E40010121C903084395
:1064C0006049203908875FE012E2F2E1D3E1B4E1EC
:1064D00095E162E140E1C5E076E056E020780428ED
:1064E00020D1607800284FD0574840680003C00F83
:1064F000002802D1607801F049F96078401E40021E
:10650000C01C82B20A21032005F006FC6078401E00
:106510004000401C0002C01C82B20A21032005F08A
:10652000FBFB31E02078052829D1607800282BD0AA
:10653000454840680003C00F002803D1607800215F
:1065400000F0BAFD6078C10F091849104900411ADE
:106550000AD06078401E40010121C903084381B27E
:1065600038482038C1860FE06078401E4001012184
:10657000C903084381B233482038018704E02078FA
:10658000062801D102F034F989E22F48406800035F
:10659000C00F002803D12078A11C01F04BFD20780A
:1065A00000022549891F4979401882B20A21032037
:1065B00005F0B2FB73E220780002801C82B20A214F
:1065C000032005F0A9FB6AE21F4840680003C00FE2
:1065D000002827D1617868460170A1784170E17880
:1065E000817020790006617909044018A1790902B7
:1065F0004018E17940180190207A0002617A401831
:1066000081B2684601812578EA0F52195210520072
:10661000AA1AD1B22E46EA0F921950106A4601F01A
:1066200013F900BF207800020349891F49794018F7
:1066300082B20A21032009E014F8FF1FB8F7FF1FF8
:106640008BF0FF1FE40600208CF1FF1F05F064FBB8
:1066500025E220780002C01C82B20A21032005F046
:106660005BFB1CE2FE4840680003C00F002835D1E8
:10667000617868460170A1784170E0780002217964
:10668000401881B26846418060790006A17909040A
:106690004018E17909024018217A40180190607A87
:1066A0000002A17A401881B268460181E07A0002B6
:1066B000217B401881B2684641812578EA17D20EC5
:1066C000521952115201AA1AD1B22E46EA17D20E0D
:1066D000921950116A4600F06FFE00BF2078000248
:1066E000E0494979401882B20A21032005F014FBE1
:1066F000D5E12078C117C90E091849114901411A7D
:106700001F2920D12078C117890E09188911890104
:10671000411A20290BDA2078C117C90E091849112E
:1067200049010122D2031143CF4AD18613E02078D8
:10673000C117C90E0918491149010122D203114399
:10674000C94A118707E020780002001D82B20A21A1
:10675000032005F0E1FAA2E1C14840680003C00F40
:10676000002806D162781202A378D118207800F0B0
:106770006DFC20780002BB494979401882B20A2199
:10678000032005F0C9FA8AE120780002401D82B298
:106790000A21032005F0C0FA81E1B14840680003F6
:1067A000C00F002812D12078002807D1E07800021D
:1067B0002179401881B2AC484038C1826278120217
:1067C000A378D21891B2207801F0DEFD2078000283
:1067D000A4494979401882B20A21032005F09CFAA5
:1067E0002078002801D100F0F7FA58E12078000263
:1067F000801D82B20A21032005F08EFA4FE19848ED
:1068000040680003C00F002803D16178207801F0B0
:1068100015FD2078000293494979401882B20A2177
:10682000032005F079FA3AE120780002C01D82B217
:106830000A21032005F070FA31E18948406800031D
:10684000C00F002803D16178207801F047FC207840
:10685000000284494979401882B20A21032005F0D8
:106860005BFA1CE120780002083082B20A21032082
:1068700005F052FA13E17A4840680003C00F00287F
:1068800003D12078611C01F057FD20780002754982
:106890004979401882B20A21032005F03DFAFEE052
:1068A00020780002093082B20A21032005F034FA70
:1068B000F5E020786C494031087260784872617860
:1068C000207801F0D5FF002808D066484079C21D25
:1068D000F9320A21032005F01FFA08E061484079E7
:1068E000C21DFF32FA320A21032005F015FAD6E064
:1068F0002078012829D120785C490870601C04F0B8
:106900006BF9002817D0E01D05F026FE002808D0FE
:1069100054484079C21DF9320A21032005F0FCF9E0
:1069200030E0504840790321090242180A2103202F
:1069300005F0F2F926E04B484079C21DFF32FA32E9
:106940000A21032005F0E8F91CE02078022819D17B
:10695000207846490870601C04F03EF9002808D0F1
:1069600040484079C21DF9320A21032005F0D4F9CC
:1069700008E03C484079C21DFF32FA320A21032068
:1069800005F0CAF98BE0207801280FD1384800784B
:10699000002806D1FF220D320A21032005F0BCF9A0
:1069A00004E00D2233A1002006F053FF77E02078A9
:1069B000012818D12A4840680003C00F002802D1DE
:1069C000607806F0A9FF207800022649497940182E
:1069D00082B20A21032005F09FF906220A21032032
:1069E00005F09AF90DE0207802280AD160781E4956
:1069F00020390873A078487305220121084605F064
:106A00008BF94CE0207800020D3082B20A2103207D
:106A100005F082F943E0207801280AD101F0D2FB89
:106A20000F4840680121C904884340180C49486058
:106A30000BE02078022808D101F0F0FB08484068FC
:106A40000121C904884306494860207800020549AD
:106A50004979401882B20A21032013E021E051E174
:106A60008CF1FF1F0EF8FF1FC40600208EF0FF1FE1
:106A7000B7F0FF1F41542B4C4244414444523F0D58
:106A80000000000005F048F909E0207800020E300F
:106A900082B20A21032005F03FF900BF00BF00BF0A
:106AA00030E199484079030006F0DFFF05044962B0
:106AB0008EB2D2002078012813D19448C07E0028DD
:106AC00008D16078002805D06078904908770320C5
:106AD000C8762FE0FF2212020B21032005F01CF9DB
:106AE00028E02078022813D18848C07E002808D1E9
:106AF0006078002805D06078844908770420C8763B
:106B000018E0FF2212020B21032005F005F911E025
:106B1000207881280ED100207C4908772031086038
:106B20002039487700217948817700207749C87754
:106B3000203148608DE08EE0D4E0E2E0CCE07348A4
:106B4000C07E032813D120787049097F88420ED176
:106B50006F486E49203108606C48007F00026A4926
:106B60004979401882B20B21032005F0D5F870E076
:106B70006648C07E032826D120786449097F884270
:106B800021D16078614948770846407F401C203118
:106B900009683F318909884207D35C482030007872
:106BA0008106890E5948817702E040215748817754
:106BB0005648007F000254494979401882B20B219F
:106BC000032005F0A9F844E05048C07E04281ED1F7
:106BD00020784E49097F884219D160780006A17853
:106BE00009044018E1780902401821794118474802
:106BF0002030016060790006A17909044018E1792C
:106C000009024018217A401840492031486020E0AC
:106C10003E48C07E04281AD120783C49097F88422A
:106C200015D160783949497F884210D1394D3748AC
:106C3000407F80012D1834488078093882B2A11C29
:106C4000284608F063FA01203049C87700BF00E009
:106C500000BF00BF56E02C484079012804D00B2823
:106C60001FD08B282BD11DE02078802805D161789A
:106C700029480170A178417012E02078812806D15E
:106C8000617825488170A178801C417008E02078E7
:106C9000822805D1617820480171A178001D4170DA
:106CA0000EE000BF21781C48017261780830417005
:106CB000A17808388172E1780A30417000E000BFA5
:106CC00000BF2078000210494979401882B20C2197
:106CD000012005F021F815E00A2210A1002006F09D
:106CE000B8FD0FE008484079012809D1122003F0CF
:106CF0006DFB0D48406802218843801C0A494860AA
:106D000000E000BF00BFFEBD0EF8FF1FE40600203C
:106D1000AC0D000004F9FF1F3007002041542B4F39
:106D200054413D310D0000008CF1FF1F1CB504469D
:106D3000552168460170AA214170062181700848DA
:106D4000C1786846C1700471052103F039FD6946B8
:106D5000487106220348007806F07BFD1CBD000048
:106D60000EF8FF1FB7F0FF1F10B504461448C07E91
:106D7000002824D113480078844204D111491248D4
:106D800002F08DF807E011480078844203D10F49E2
:106D90000D4802F084F80C480078022803D10C4812
:106DA00005F0E2FB0BE008480078022803D109480F
:106DB00005F0DAFB03E00020C04305F0D5FB10BD71
:106DC000E4060020B8F0FF1FB7F0FF1FB9F0FF1F67
:106DD0005555AAAA55AA55AA10B5002411E00B488A
:106DE000408861000A4A515A884208DA094804700A
:106DF000FF220E320A21032004F08EFF10BD601C1A
:106E0000C4B2282CEBDD00BFF8E7000084060020A8
:106E100042CC0100DCF0FF1F10B50E4803F0F9FC76
:106E2000002809D002200C49087000200B49087086
:106E300002200B4908700CE00A4803F0EAFC002825
:106E400007D0002004490870022004490870044952
:106E5000087010BD5555AAAAB7F0FF1FB8F0FF1F64
:106E6000B9F0FF1F55AA55AA10B5002400BF04E0D1
:106E7000204600F005F8601CC4B2042CF8DB10BDFD
:106E800010B504462101024A881804F0F9FF10BD2C
:106E90004CF1FF1F70B5044620790007850F0722CB
:106EA0000021204608F040F920790C218843A900F0
:106EB0000C2211400843207170BD10B5002129201B
:106EC00003F0A4FA0021122003F0A0FA00213720D9
:106ED00003F09CFA372003F035FC122003F076FA19
:106EE00010BD000010B50221452003F08FFA0222E8
:106EF0000021024808F018F910BD00007EF0FF1FC5
:106F000010B50446230006F0B0FD07050609141F5E
:106F10002A3540003AE007F05DF937E0292003F018
:106F200055FAFF20F53005F04FFE292003F00AFC4A
:106F30002CE0062003F04AFAFF20F53005F044FE6D
:106F4000062003F0FFFB21E0282003F03FFAFF209A
:106F5000F53005F039FE282003F0F4FB16E0072099
:106F600003F034FAFF20F53005F02EFE072003F081
:106F7000E9FB0BE0312003F029FAFF20F53005F0A2
:106F800023FE312003F0DEFB00E000BF00BF10BD98
:106F900070B504460D4601F0E1F9002C01D000F077
:106FA000E5FF00F09DFB00F0D3F800F077F8002C2F
:106FB00001D001F07DFA01F0F9F801F061F970BD3E
:106FC00010B50020084948752039C8860887002177
:106FD00005480175C176FF21817600F007F801218F
:106FE0000846FFF7D5FF10BDE406002010B50024C9
:106FF00008E0E200054950180822054908F086F823
:10700000601CC4B2082CF4DB10BD0000B8060020E0
:10701000E4C9010010B500200B49487503F0E6F8FB
:1070200001210846FFF7B4FF0121084601F07EFC6C
:1070300000220A21032004F06FFE7F2252020A215F
:10704000032004F069FE10BDE406002038B50546B3
:107050000C4600200090082D01DC002D00D138BD29
:10706000210E684601702002010E6846417020041E
:10707000010E68468170C4706800064A115A6B465A
:107080000422002005F056F86900034A545200BF5C
:10709000E5E70000C0C901007406002010B500201B
:1070A00005E000214200034B9952411C88B2092897
:1070B000F7DB10BD7406002070B504460E46082CA0
:1070C00001DC002C01D1002070BD601EC4B200257F
:1070D00037E0012E14D1642005F082FDFF208130BD
:1070E00060431A4941180C206843085CB043FF21F3
:1070F00081316143154A8A180C216943505412E0CA
:10710000FF2081306043114941180C206843085C1E
:1071100040084000401CFF21813161430B4A8A181E
:107120000C2169435054FF208130604307494118C6
:107130000C2068430A182946204600F03DF9681CD7
:10714000C5B2202DC5DB0120BEE7000074FAFF1F89
:1071500010B5002159E0002053E00024FF228132C5
:107160004A432B4BD3180C2242439C54FF228132BA
:107170004A43274BD3180C2242439A5C52085200D0
:10718000521CFF2381334B43214C1C190C234343D6
:10719000E2540024FF2281324A431D4BD3180C22B3
:1071A00042439A1854704B246401FF2281324A43AF
:1071B000174BD3180C2242439A1854808200154B67
:1071C0009C58FF2281324A43114BD3180C22424370
:1071D0009A185460104CFF2281320B4653430C4ADC
:1071E0009B180C2242439A1814818D24FF2281326D
:1071F0004A43074BD3180C2242439A185481421C2D
:1072000090B22028A9DB4A1C91B20829A3DB10BD4B
:1072100074FAFF1F3CCA0100DC05000010B52348CA
:10722000C08E0121C9030840002800D110BD2048AC
:107230000078401C1E49087008460078042803DBCB
:107240001C48007802280FD019480078042803DB76
:1072500018480078022807D015480078082822DB53
:107260001448007800281ED10020114908700F48EA
:10727000C08E0002001D82B20A21032004F04CFDE2
:10728000002810D00948C08E401C81B20748C18632
:107290000146C88EC117C90E091849114901411A82
:1072A00001D10248C18600BFC0E70000C40600202B
:1072B000C0F0FF1FB7F0FF1F3EB50546082D01DCEB
:1072C000002D01D100203EBD681EC5B200216846D8
:1072D0000170007841084900491C6846017000218E
:1072E00041704B21490141800A4901818D21418131
:1072F00000240AE0A0000849085801906A46214687
:10730000284600F059F8601CC4B2202CF2DB0120A2
:10731000D9E70000DC0500003CCA010010B5234895
:10732000008F0121C9030840002800D110BD20486A
:107330000078401C1E49087008460078042803DBCA
:107340001C48007802280FD019480078042803DB75
:1073500018480078022807D015480078082822DB52
:107360001448007800281ED10020114908700F48E9
:10737000008F0002001D82B20A21032004F0CCFC21
:10738000002810D00948008F401C81B207480187AF
:107390000146088FC117C90E091849114901411A40
:1073A00001D10248018700BFC0E70000C4060020E9
:1073B000C1F0FF1FB7F0FF1FF0B593B006460D46B2
:1073C0001446082E01DA1F2D02DB002013B0F0BD99
:1073D00061884B229201002003F0CEFD60804D4A6F
:1073E0000020616803F0C8FD606021894A4A0020DE
:1073F00003F0C2FD2081618919229201002003F06F
:10740000BBFD6081EA17120F521912117300D218D6
:107410005200424B9A5A2846EB171B0F1B181B11A0
:107420001B01EB1A9F00DB19D21892B2129220783E
:10743000C007C00F00280DD06078002808D16089EF
:1074400000902389618808A8626801F041FB12E07E
:107450000020BBE7FF202D3005F0C2FB0021089182
:1074600009910A910B912E480C910D9000200E90DD
:107470000F90109011902078C006C00F002810D0F7
:107480000122D207099951400898099108900B9957
:1074900051400A980B910A900D9951400C980D910A
:1074A0000C900999089803AA0191009004F086FDB8
:1074B0000B990A9804AA0191009004F07FFD0D99A0
:1074C0000C9805AA0191009004F078FD0F990E9890
:1074D00006AA0191009004F071FD1199109807AA75
:1074E0000191009004F06AFD03AB0522002012997F
:1074F00004F0AAFDFF20813070430A4941180C2096
:1075000068430818A368226861688360026041606C
:1075100001205BE700770100B80B0000BCCA010046
:107520000000F03F74FAFF1F70B504466848007809
:10753000401C6749087067480078030006F095FA18
:10754000050414376F94C3006348007F0002C01C19
:1075500082B20B21032004F0DFFB00205C4908709D
:1075600001205C490870AFE05B48203000680028CB
:107570000CD05948007F0002001D82B20B2103206D
:1075800004F0CAFB0220534908700FE0504800780D
:107590000A280BDB00204E4908704F48007F00028C
:1075A000C01C82B20B21032004F0B6FB8CE04A48D9
:1075B000C07F002822D04848407F401C46492031E7
:1075C00009683F318909884203D303204149087083
:1075D00010E000203E4908703F48407F401C3E4973
:1075E00048770846007F0002001D82B20B2103206D
:1075F00004F092FB00203849C8770FE03448007847
:1076000032280BDB0020324908703348007F00022B
:10761000001D82B20B21032004F07EFB54E0002108
:107620002E4A002003E013785918521C401C2A4BA4
:1076300020331B688342F6D8274B20335B688B428C
:1076400003D10423234D2B700DE00023214D2B701B
:107650001F4D2B70204D20352B60203D6B77AB7775
:10766000EB7720356B602FE01B49087F00F0AAFF05
:10767000002827D00020174908700121084601F092
:1076800055F91548007F1449487502F0AFFD0020F8
:1076900011490877002110482030016020384177D7
:1076A00000200D49887700210B48C17700200A4946
:1076B00020314860412252020B21032004F02CFBB0
:1076C000012070BD00E000BF00BF0020F9E700000E
:1076D000BCF0FF1FBBF0FF1FE406002004F9FF1FF2
:1076E00000204BE0002318214143264A535418211F
:1076F000414389180B7318214143515C49084900E3
:10770000491C182242431F4B9954182141431A46E1
:107710008918097B49084900491C18224243D2189C
:107720001173032318214143164A89184B701821FD
:1077300002464A43134951184B7318214143114AD9
:1077400089188B70182102464A430E4951188B73D1
:107750001423182141430B4A89184B600A4B182106
:10776000414389180B6100231821414389180B817B
:107770001821414389188B82411C88B20828B1DB4B
:1077800070470000B4F9FF1F204E00003EB50446CC
:10779000082C01DC002C01D100203EBD601EC4B2CB
:1077A000002168460170007841084900491C68467C
:1077B00001700321417081701420019000216846FE
:1077C00001816A46204600F03FF8044801906A466D
:1077D0000121204600F038F80120DEE7204E0000AD
:1077E00070B504460D46012D02D1002014490870E1
:1077F00013480078002802D001281CD112E020464E
:1078000000F084FB00280CD00E48447502F0EEFC1A
:10781000FF2201320B21032004F07EFA01200849E7
:10782000087009E00748007F002803D10449087068
:10783000012070BD00E000BF00BF0020F9E700009C
:10784000BAF0FF1FE4060020F0B5B1B005460F46C0
:107850001446142103A8FCF7D1FC082D01DA022FED
:1078600002DB002031B0F0BD18206843ED4941181B
:107870000C207843085CC006C00F2178C906C90FE8
:1078800048400290E84A0020616803F075FB6060A0
:107890002078C007C00F00287ED06078012815D15D
:1078A000A078012812D12389394608A8626801F01E
:1078B000FBFC2389394612A8626801F0F5FC1CA87C
:1078C00002F07AF826A802F077F81EE16078012825
:1078D00015D1A078032812D12389394608A86268F7
:1078E00001F01AFF2389394612A8626801F014FFDB
:1078F0001CA802F061F826A802F05EF805E16078A5
:10790000012823D1A078052820D10020032100914F
:1079100001902389394608A8626802F063F8238938
:10792000394612A8626801F0BFFC002003210091D3
:107930000190238939461CA8626802F053F8238914
:10794000394626A8626801F0AFFCDEE060780128C5
:107950002DD1A07807282AD1002004210091019080
:107960002389394608A8626802F03CF80120042106
:10797000009101902389394612A8626802F032F81A
:107980000020042100910190238939461CA86268D7
:1079900002F028F8012000E0A7E004210091019006
:1079A0002389394626A8626802F01CF8ADE06078A9
:1079B000022812D1A07801280FD12389394608A8BE
:1079C000626801F057FD12A801F0F6FF1CA801F053
:1079D000F3FF26A801F0F0FF97E06078022815D1A8
:1079E000A078022812D12389394608A8626801F0DC
:1079F00041FD2389394612A8626801F055FC1CA894
:107A000001F0DAFF26A801F0D7FF7EE060780228B7
:107A100015D1A078032812D12389394608A86268B5
:107A200001F028FD2389394612A8626801F022FD81
:107A30001CA801F0C1FF26A801F0BEFF65E0607838
:107A4000032812D1A07801280FD12389394608A82C
:107A5000626801F061FE12A801F0AEFF1CA801F0FF
:107A6000ABFF26A801F0A8FF4FE06078032819D1EA
:107A7000A078022816D100200321009101902389CB
:107A8000394608A8626801F0ADFF2389394612A87B
:107A9000626801F009FC1CA801F08EFF26A801F025
:107AA0008BFF32E0607803281DD1A07803281AD11B
:107AB00000200421009101902389394608A86268BA
:107AC00001F090FF012004210091019023893946A3
:107AD00012A8626801F086FF1CA801F06DFF26A8BD
:107AE00001F06AFF11E00020BCE6FF202D3005F018
:107AF00077F808A801F060FF12A801F05DFF1CA84C
:107B000001F05AFF26A801F057FF2078C006C00FE9
:107B1000002810D00122D2070999514008980991F4
:107B200008900B9951400A980B910A900D99514079
:107B30000C980D910C90029800280DD03B49681CC0
:107B4000085C012808D1691CC8B20022114600F067
:107B5000D9FA0A2005F038F8002643E028207043BF
:107B600008A9081803C803AA0191009004F026FA96
:107B70002820704308A941188868C96804AA01919F
:107B8000009004F01BFA2820704308A940184169AE
:107B9000006905AA0191009004F010FA28207043B2
:107BA00008A941188869C96906AA0191009004F0E2
:107BB00005FA2820704308A94018416A006A07AAFC
:107BC0000191009004F0FAF92801194A8018FA008E
:107BD00080187200815A03AB0522002004F034FAA9
:107BE000701CC6B2042EB9DB029800280DD00F49D4
:107BF000681C085C012808D11E2004F0E5FF691C00
:107C0000C8B20022012100F07DFA1820684305491E
:107C100041180C207843081821460EC90EC00120D7
:107C200020E60000B4F9FF1F007701009C06002049
:107C3000DCCA0100F0B585B004460F46601E400066
:107C40006F4A115A03AA012004F0DAF96846007B52
:107C500001066846407B000409186846807B0002E4
:107C600009186846C07B081802900298FCF7C1FF0B
:107C700005460022634BFCF777FD49004908621E68
:107C8000D200614B9A1803C2601EC0001946081842
:107C90000022134605684168284607F03BFB04D1E3
:107CA0000021601E594A1154A7E0601E1821484364
:107CB0005749081805684368601EC00052490818F3
:107CC00003C82A460191009007F056FB24D2387869
:107CD000322803DB0021601E4C4A11543878401CC6
:107CE000C0B2387064280FDB00203870601E49492C
:107CF000085C002808D10121601E464A1154012267
:107D00000021204600F0FEF9601E4249085C01286F
:107D100073D10020387070E0601E182148433C4940
:107D20004018C168806801910090601EC00036490B
:107D300009180D6849682846019B009A07F04EFB18
:107D400059D2601E182148433149401841690069E1
:107D500001910090601EC0002B4909180D68496808
:107D60002846019B009A07F039FB2FD22A48007859
:107D700006282DD12848C088002829D127484068E6
:107D8000C002C00F002805D0244800790007C00FAA
:107D900000280BD121484068C002C00F002817D12D
:107DA0001E4840684003C00F002811D03878401C9E
:107DB000C0B238700A280BDB002038700121601E29
:107DC000124A1154122002F0BDFC01E0002038706C
:107DD000601E1049085C01280FD10021601E0D4A69
:107DE00011540F48005D012807D101221146204699
:107DF00000F088F901E00020387005B0F0BD000007
:107E000060CB010000007041100D0020CAF0FF1F80
:107E100070CB0100C2F0FF1F9CF7FF1F8CF1FF1F0A
:107E20009C06002010B53448007D032800D010BD0A
:107E300032480078062800D0F9E72F48C07E002895
:107E400000D0F4E72E480078030005F00EFE080588
:107E50000A10161C22282E342A490120FFF7EAFEB8
:107E60002AE02849491C0220FFF7E4FE24E02549C6
:107E7000891C0320FFF7DEFE1EE02249C91C0420F6
:107E8000FFF7D8FE18E01F49091D0520FFF7D2FEB5
:107E900012E01C49491D0620FFF7CCFE0CE01949F1
:107EA000891D0720FFF7C6FE06E01649C91D0820F8
:107EB000FFF7C0FE00E000BF00BF11480178007866
:107EC000401C0F4A10700C2902DB0020114608707C
:107ED000002406E00C48005D012800D103E0601C8E
:107EE000C4B2082CF6DB00BF082C02D1122002F02D
:107EF0006DFA00BF9BE70000E40600209CF7FF1F1F
:107F0000D2F0FF1FD3F0FF1FCAF0FF1F10B50446C9
:107F1000002C00D110BD0B4A0B49204601F0D8FEC1
:107F2000002800D1F6E70121084600F0FFFC611EA1
:107F3000CA000649501808220349091D07F0E6F84F
:107F40000120E7E7AC0D000004F9FF1FB806002090
:107F500010B544220449002001F0BAFE002800D1E7
:107F600010BD0120FCE70000B406002010B5002180
:107F70001AE0002014E0002903D0002801D081423B
:107F800006D190240B224A43094BD218145405E021
:107F900000240B224A43064BD2181454421C90B2C0
:107FA0000B28E8DB4A1C91B20929E2DB10BD000076
:107FB00050F9FF1FF0B585B007460020049000245B
:107FC0002BE0042C27D0052C25D03846FCF719FED1
:107FD0000022144B03910290FCF7A3FB05460E46CA
:107FE0000022114B28463146FCF7BEFB02460B46E9
:107FF0000191009000200D4906F076FB04AA039140
:10800000029003F0DBFF6000094A115A04AB012221
:10801000002004F019F8601CC4B20A2CD1DB012046
:1080200005B0F0BD00006240000034400000244074
:10803000B8CC010070B588B005460C46002005900C
:10804000082D01DC002D02D1002008B070BD0026F3
:1080500036E02178BA22002002F08EFF20702078CE
:10806000FCF7CFFD0022184B03910290FCF759FB5F
:10807000079106900022154B07990698FCF774FBB0
:1080800002460B46019100900020114906F02CFB9E
:1080900005AA0391029003F091FF68000D4A105A5F
:1080A000801981B205AB0122002003F0CDFF2278B8
:1080B0000B20684308494118701C0A54641CC6B25E
:1080C0000A2EC6DB0120C0E70000624000003440F9
:1080D00000002440A6CC010050F9FF1F70B50446F3
:1080E0000D46002D01D0012000E0002006460022B0
:1080F0003146204600F006F80148065570BD0000E4
:108100009C060020F8B504460D4616460020009057
:108110006846C570082C00DDF8BD002D08D1002E82
:1081200006D10021204600F09BFC0A2004F04CFD03
:108130006000124A115A6B460422002003F0FAFF35
:10814000012D18D1002C0DD00D48007E002809D13A
:108150000A4801886B460422002003F0EBFF01204F
:1081600007490876002E06D10A2004F02DFD0121D2
:10817000204600F075FC00BFCEE7000094CC010063
:108180008406002070B504460D46002D01D0012064
:1081900000E000200646012231462046FFF7B2FFEC
:1081A0000148065570BD00009C060020002004E038
:1081B0000121034A1154411C88B20928F8DB704799
:1081C0009C06002010B500210846FEF7E1FE0024C1
:1081D0000AE00022182060430F490A541820604327
:1081E00040180273601C84B2082CF2DB00210846A0
:1081F00000F09CFB002408E001F052F8611CC8B2BA
:108200000121FEF759FF601C84B2082CF4DB922098
:10821000FFF7D0FE10BD0000B4F9FF1F10B502201B
:108220000549C8760846407D0877012252020A2196
:10823000032003F071FD10BDE406002038B50446AC
:108240000D4600200090082C01DC002C00D138BD28
:1082500008222946002002F08FFE6946C87060009F
:10826000054A115A6B460422002003F063FF0348BD
:10827000055500BFEBE70000D2C90100A5060020AC
:10828000012003E0034A1054411C88B20928F9DB9D
:1082900070470000A506002010B52648007D0300A9
:1082A00005F0E3FB060405213B3C40443FE005F0BC
:1082B00091FF01F0D7FE1F48407D002806D0022024
:1082C0001C49C8760846407D087708E00121084629
:1082D00000F02CFB00220A21032003F01DFD0221E7
:1082E0001448017523E01348C07E002814D10521ED
:1082F0001048C17603220121104603F00DFD0D4800
:10830000407D002805D17F2252020A21032003F07C
:1083100003FD03200749087509E008E00520054929
:10832000087504E000200349087500E000BF00BFA5
:1083300010BD0000E406002070B504460D46082C70
:1083400000DD70BDE200044950180822294606F0FD
:10835000DDFE00BFF5E7000008F9FF1F10B500249F
:108360000AE0E200064BD118E300064A98180822FA
:1083700006F0CCFE601C84B2092CF2DB10BD0000BC
:10838000E4C9010008F9FF1FF8B505460F46082D9E
:1083900000DDF8BD002D06D11948C28A39460020FB
:1083A00002F0EAFD87B26900154A921C505A642116
:1083B000FBF730FF84B264213846FBF72BFF86B20F
:1083C00015E0B44202DD601E84B203E0B44201DA7B
:1083D000601C84B26420604381B2284600F012F829
:1083E000B44204D13946284600F00CF800E0E8E732
:1083F00000BF68000249891C0F5200BFC9E7000096
:1084000084060020F0B589B004460F4622A000681B
:1084100003907D2292013946002002F0ADFD87B223
:108420003846FCF7EEFB054600221C4BFCF779F9B9
:1084300000221B4B01910090FCF796F907910690E2
:108440000022184B07990698FCF78EF905462A4634
:108450000B460020144906F047F90591049060008E
:10846000124A105A401C81B203AB0422002003F0D0
:1084700061FE03AA0599049803F0A0FD60000B4A71
:10848000115A03AB0122002003F0DEFD012004F0AD
:108490009BFB09B0F0BD00000000208A0040BF40F7
:1084A00000005940000034400000244030CC01005E
:1084B00010B57D218901094A5180012007E07D2105
:1084C00089014200054B9B1C9952411C88B2092826
:1084D000F5DB7D218901014AD18210BD840600208F
:1084E00010B5334908880988491C314B1980092186
:1084F000FBF790FE002900D010BD2E4800780A2816
:1085000011D12D48807E00284FD02B48807E401E00
:10851000294988760846807E4000284A115A002062
:10852000FFF770FF41E023480078062836D1224843
:10853000807EFF2832D02049887E282102F062F90F
:108540001D4988760846807E1D49097888420DDDE0
:108550001948807E401EC1B217488176807E400057
:10856000164A115A0020FFF74DFF1EE01248807E88
:108570001349097888420DDA0F48807E401C0E4965
:1085800088760846807E40000C4A115A0020FFF78A
:1085900039FF0AE0FF200849887606E005480078A0
:1085A0000B2802D1FF210448817600BFA4E7000018
:1085B000DEF0FF1F9CF7FF1FE406002042CC010005
:1085C000DCF0FF1F10B50446002C00D110BD094A95
:1085D0000949204601F042FC002800D1F6E7611E5F
:1085E000CA000649501808220349091D06F08EFDED
:1085F0000120EBE7AC0D000004F9FF1FB8060020D6
:1086000010B572480088401C704908807048C07ED0
:10861000030005F02AFA0705092C5B87ABC0D800D8
:1086200000206A490880CFE068480088FF2178313F
:1086300088420ADD01F0E4FD00206549C876FF228A
:1086400012020A21032003F067FB6149087FFFF74C
:10865000B9FF00280AD000205C49088006205C4948
:10866000C8760846007F487501F0C0FDACE0574869
:108670000088FF21783188420CDD01F0A5FD002142
:108680005348C176FF2212020A21032003F044FB63
:10869000FEF7C0FC4E49087FFFF738FC002814D0D5
:1086A00000214B48C176007F4949487501F09EFD85
:1086B000FEF792FB00220A21032003F02DFB7F220C
:1086C00052020A21032003F027FB7DE03F48008887
:1086D0007D21C90088420FDD01F076FD00203C4974
:1086E000C876FF2212020B21032003F015FB384944
:1086F000087F0121FFF774F83549087F0021FFF753
:108700006FF800280DD000203149C87600220A21D8
:10871000032003F001FB7F2252020A21032003F011
:10872000FBFA51E0294800887D21C90088420ADD12
:1087300001F066FD00202649C876FF2212020B21B7
:10874000032003F0E9FA2249087FFEF7EDFE002836
:108750000BD000201D49088006201D49C8767F22C5
:1087600052020A21032003F0D7FA2DE017480088AF
:10877000FF217831884206DD01F026FDFEF736FC48
:1087800000201349C876FFF7E3FB002802D0002041
:108790000F49C87618E00D480088FF2178318842DB
:1087A00004DD01F02DFD00210948C17600F012F82A
:1087B000002807D000210648C17600220A210320A4
:1087C00003F0AAFA00E000BF00BF10BDBEF0FF1F1B
:1087D000E406002010B544220449002001F03EFBCD
:1087E000002800D110BD0120FCE70000B4060020E5
:1087F00010B500201C49487501F0F8FC012108461D
:10880000FEF7C6FB7D208001174960394880C88289
:1088100000240AE000221820604314490A5418205A
:10882000604340180273601C84B2082CF2DB012103
:10883000084600F07BF8002408E000F031FD611CE0
:10884000C8B20121FEF738FC601C84B2082CF4DBAE
:1088500000220A21032003F05FFA7F2252020A213C
:10886000032003F059FA10BDE4060020B4F9FF1FFD
:10887000FEB505460C46A54207D0082D05DC082CA0
:1088800003DC002D01D0002C01D10020FEBD681EAC
:10889000182148432349421807CA6B4607C3694653
:1088A000087810218843611E182251431D4A515CEB
:1088B000C906C90F09011022114008436946087012
:1088C000611EC8B26A460021FEF7BEFF691E18236A
:1088D0005943144BC9180A460C32611EC8B2012113
:1088E000FEF7B2FF002612E000F0DAFC6B1EFF2755
:1088F00081377B430B4FC037DB190C277743DA19DD
:10890000F1B2631ED8B2FEF757FD701C86B2202E5E
:10891000EADB6800044A115A2046FFF735FD0120C2
:10892000B4E70000B4F9FF1F86060020F8B506463C
:108930000F460220FDF772FA122001F047FD002ECB
:108940000DD0012409E00B226243414BD218511C87
:10895000E0B2FFF76FFB601C84B2092CF3DB9620BA
:10896000FFF728FB002417E000F09AFC1821614370
:10897000374B6433CA18E0B20021FEF765FF1821B7
:108980006143334B6433C9180A460C32E0B201210B
:10899000FEF75AFF601C84B2082CE5DB012408E0D6
:1089A00060002C4A115AE0B20090FEF74FFB601CA9
:1089B00084B2092CF4DB002F0DD0002409E0610003
:1089C000244A1232515AE0B20091FFF7DDFC601CDC
:1089D00084B2092CF3DB002407E01E4A2832115D23
:1089E000E0B2FFF7CFFB601C84B2092CF5DB00245A
:1089F00007E0184A3132115DE0B2FFF71FFC601C3E
:108A000084B2092CF5DB002416E0002510E000F00C
:108A100047FCFF20813060430F4BC0180C236B4391
:108A2000C218E9B2E0B20090FEF7C6FC681C85B23D
:108A3000202DECDB601C84B2082CE6DBFEF7CCF9C1
:108A400006480078062802D10320FDF7E7F9F8BDB3
:108A500050F9FF1F7406002074FAFF1F9CF7FF1FD8
:108A6000F8B506460F46002F08D17100174A505A34
:108A70006421FBF7CFFB84B2002509E0012F07D169
:108A800000247100114A505A6421FBF7C3FB85B2E0
:108A900019E0AC4202DD601E84B203E0AC4201DAB0
:108AA000601C84B26420604381B23046FFF7AAFCA8
:108AB000AC4208D1012F05D17000044A115A30464A
:108AC000FFF7A0FC00E0E4E700BFF8BD8606002049
:108AD000FFB597B004460F461A98FCF792F80022AB
:108AE000814B03910290FBF71CFE00227F4B059106
:108AF0000490FBF739FE159114902098FCF781F84B
:108B000000227A4B05910490FBF72EFE13911290F0
:108B10003846FCF776F80022754B03910290FBF77C
:108B200000FE0022714B05910490FBF71DFE119190
:108B300010901998FCF765F80F910E9000226D4B7C
:108B400011991098FBF710FE02460B460591049010
:108B50000020694905F0C8FD0D910C9067480CC8CC
:108B6000002001218907FCF74FF8039102900F9B29
:108B70000E9AFCF749F80591049061480CC80498D6
:108B8000FBF7F2FD0B910A90002001218907139B4E
:108B9000129AFCF739F8059104900B990A9806F09F
:108BA000CFFA03910290059B049AFBF7DDFD099132
:108BB00008900022534B15991498FBF7D5FD0246F7
:108BC0000B460591049000204B4905F08DFD07915F
:108BD00006900D9B0C9A09990898FBF7C5FD002299
:108BE000494B05910490FBF78FFD05460E460D9B02
:108BF0000C9A09990898FCF707F80022424B01915A
:108C00000090FBF799FD03910290079B069AFBF7F2
:108C1000FBFF2A46334605910490FBF7A5FD6160F2
:108C2000206008340B990A9805F088FA0022012385
:108C30009B0701910090FBF7E7FF0122D20751400B
:108C400003910290079B069AFBF7DEFF2A46334604
:108C500005910490FBF788FD6160206008340D9B4E
:108C60000C9A09990898FBF7CFFF0022264B019137
:108C70000090FBF749FD03910290079B069AFBF7D2
:108C8000C3FF2A46334605910490FBF76DFD6160F2
:108C9000206008340D9B0C9A09990898FBF764FD35
:108CA0000022194B03910290FBF73BFD2A46334605
:108CB00005910490FBF758FD6160206008340B9922
:108CC0000A9805F03BFA002201239B0703910290CA
:108CD000FBF79AFF2A46334605910490FBF744FDC3
:108CE000616020601BB0F0BD0070974000005940EB
:108CF00000C0A2400000444000002440B8C9010068
:108D0000B0C90100000034400000F03F10B5012060
:108D1000FEF7B6F803220221002002F0FDFF10BD8D
:108D200010B50220FDF77AF80420174908700020DA
:108D300003F0F6FB292001F049FB072001F046FB78
:108D4000062001F043FB282001F040FB312001F018
:108D50003DFB322001F03AFB1C2001F037FB0B48B1
:108D600040680121C90388430849486008464068B3
:108D7000012109048843054948600846406800030A
:108D8000C00F0349087010BDA8F7FF1F8CF1FF1F2B
:108D900080F0FF1F10B50021232001F037FB2320B6
:108DA00001F0D0FC10BDF8B506460C4615461F462E
:108DB000232001F00BFB3146002003F04BFB200287
:108DC000010E002003F046FB2004010E002003F0FA
:108DD00041FBE1B2002003F03DFB05E0FF21002054
:108DE00003F038FB28706D1C3846791E8FB20028BE
:108DF000F4D1232001F0A6FCF8BD70B505460C4661
:108E0000232001F0E3FA2946002003F023FB20028F
:108E1000010E002003F01EFB2004010E002003F0D1
:108E200019FBE1B2002003F015FB232001F08AFCBE
:108E300070BDF8B506460C4615461F46232001F0C6
:108E4000C5FA3146002003F005FB2002010E002088
:108E500003F000FB2004010E002003F0FBFAE1B256
:108E6000002003F0F7FA04E029786D1C002003F0DD
:108E7000F1FA3846791E8FB20028F5D1232001F08F
:108E800061FCF8BD10B50446232001F09FFA21468D
:108E9000002003F0DFFA232001F054FC10BD02781B
:108EA0000B785A4002700A7803785A400A700278A8
:108EB0000B785A400270704700B5034618460830D8
:108EC00002F06CFE586801F015FE17480078042186
:108ED00088431549087008460078C02188438030CF
:108EE0001149087008464078102188430E4948709F
:108EF00000BF0D4800790C21084080080228F8D1F5
:108F000000BF09480079102108400028F9D106481F
:108F10004078E02188430449487008460079802160
:108F200008430149087100BD0040064000B50346F2
:108F30001846083002F032FE586801F0DBFD104898
:108F40000078042188430E49087000BF0C4800795E
:108F5000102108400028F9D100BF094800794021BC
:108F600008400028F9D006484078E02188430449A9
:108F7000487008460079802108430149087100BD06
:108F80000040064000B503461846083002F006FED1
:108F9000586801F0AFFD10480078042188430E495D
:108FA000087000BF0C480079102108400028F9D152
:108FB00000BF09480079402108400028F9D0064840
:108FC0004078E021884304494870084600798021B0
:108FD00008430149087100BD0040064010B5034632
:108FE00000249807800F002802D01E4C204610BD98
:108FF00030201D494871002048700A20487218022C
:10900000000E0872012048700B721804000E48729E
:10901000012000F073F8144840792021084000280E
:1090200002D01048C01D04430F4840791021084069
:10903000002802D00B480F3004430B484079C0078A
:10904000C00F002802D0074810300443064840797A
:1090500002210840002802D0024811300443204673
:10906000C5E70000013000000000024070B5064670
:1090700000241F493046FBF7C3F8401EC5B21D4807
:10908000407980210840002803D11B480443204632
:1090900070BD1848C0784021084000281AD11548F2
:1090A000C0788021084000280AD01248C078800685
:1090B000800EA906890E884202D00F48001D044385
:1090C0000C48C07880098001A906890E0843094927
:1090D000C8700AE00748C0788006800EA906890E8D
:1090E000884202D00448001D04432046D0E7000017
:1090F00040420F0000000240143000000949C968D6
:10910000012212041143074AD1608021064A51719D
:10911000002806D000BF0449497980221140002967
:10912000F9D07047003000F00000024030B503462F
:109130000C4600259807800F002802D0244D2846B1
:1091400030BD302023494871002048700620487205
:109150001802000E0872012048700B721804000EED
:109160004872022048702004000E48720C720320DE
:109170004870200E48722002000E08720120FFF78E
:10918000BDFF1448407920210840002802D0104833
:10919000C01D05430F48407910210840002802D027
:1091A0000B480F3005430B484079C007C00F00281B
:1091B00002D0074810300543064840790221084094
:1091C000002802D00248113005432846B8E70000C5
:1091D000013000000000024070B503460C46154601
:1091E00000269807800F002802D02B4E304670BD15
:1091F00030202A4948710020487006204872180221
:10920000000E0872012048700B721804000E48729C
:10921000022048702004000E48720C72032048702F
:10922000200E48722002000E0872042048702804A4
:10923000000E48720D7205204870280E48722802F0
:10924000000E08720120FFF759FF144840792021D1
:109250000840002802D01048C01D06430F4840793E
:1092600010210840002802D00B480F3006430B485D
:109270004079C007C00F002802D0074810300643CD
:109280000648407902210840002802D002481130E7
:1092900006433046ABE7000001300000000002400A
:1092A00010B504F061FB10BDFFB58FB004460F464A
:1092B0001198FBF7A6FC039102906A480CC80020A5
:1092C00001218907FBF7A0FC01910090039B029A02
:1092D000FBF79AFC0591049063480CC80498FBF7CF
:1092E00043FA0D910C900D990C9805F029FF0B9104
:1092F0000A900D990C9804F021FF09910890099BA0
:10930000089A0B990A98FBF7FFF90022574B059131
:109310000490FBF7F9F90791069014211298FAF7D7
:1093200079FF0390FBF765FC02460B46059104901C
:1093300000204F4905F0D8F905460E46002F50D1C0
:10934000002121606160083400204849099B089A87
:10935000FBF7DAF9039102900120C00770400095F5
:1093600001900B462846029A0199FBF74DFC0591A6
:109370000490079B069AFBF7F7F9616020600834B8
:1093800000203A49099B089AFBF7BEF92A46334662
:1093900003910290FBF738FC05910490079B069A15
:1093A000FBF7E2F961602060083400212160616010
:1093B0000834099B089A0B990A98FBF7B2F9002226
:1093C0002A4B03910290FBF7ACF90122D2075140DE
:1093D00005910490079B069AFBF7C6F9616020602F
:1093E0003DE0012F3BD10021216061600834284617
:1093F00031460B9B0A9AFBF707FC05910490079BEB
:10940000069AFBF7B1F961602060083428463146BE
:109410000B9B0A9AFBF7F8FB05910490079B069AB1
:10942000FBF7A2F9616020600834002121606160CF
:109430000834099B089A0B990A98FBF772F90022E5
:109440000A4B03910290FBF76CF9FA075140059122
:109450000490079B069AFBF787F96160206013B0C0
:10946000F0BD0000B8C90100B0C901000000F03F24
:1094700000002440FFB591B004460F461398FBF757
:10948000C0FB039102909F480CC80020012189076E
:10949000FBF7BAFB01910090039B029AFBF7B4FB28
:1094A0000591049098480CC80498FBF75DF90B915E
:1094B0000A900B990A9805F043FE099108900B99C0
:1094C0000A9804F03BFE0791069000208F4905F0B2
:1094D00085FE02460B460191009000208C49FBF767
:1094E00043F9002201239B0703910290FBF78CFBB9
:1094F00002460B460591049009990898FBF734F948
:109500000D910C90002082490D9B0C9AFBF7FCF802
:1095100005460E4614211498FAF77CFE0390FBF7DB
:1095200068FB02460B46059104900020794905F03E
:10953000DBF80F910E90002F74D100207449079B27
:10954000069AFBF7E1F82A46334601910090FBF7B3
:109550000BF9039102900F9B0E9AFBF755FB00222B
:1095600001239B0705910490FBF7FEF861602060E2
:10957000083400206649079B069AFBF7C5F80122CC
:10958000D2074A40039202902A4633460399FBF7DA
:10959000EBF8059104900F9B0E9AFBF735FB616089
:1095A0002060083400205A49079B069AFBF7ACF864
:1095B0002A46334601910090FBF7D6F803910290BA
:1095C0000F9B0E9AFBF720FB002201239B070591BE
:1095D0000490FBF7C9F861602060083400204C4912
:1095E0000D9B0C9AFBF79DF80122D2074A40059289
:1095F00004902A4633460599FBF7B6F8616020606F
:109600000834002001218907079B069AFBF7FCFA22
:109610002A46334605910490FBF7A6F86160206066
:109620006DE0FFE7012F6AD100203949079B069AB8
:10963000FBF777F82A46334601910090FBF794F840
:10964000039102900F9B0E9AFBF7DEFA0022BB07F4
:1096500005910490FBF788F86160206008340020D1
:109660002B49079B069AFBF75CF82A463346039181
:109670000290FBF779F8059104900F9B0E9AFBF787
:10968000C3FA61602060083400202149079B069AD4
:10969000FBF747F82A46334601910090FBF764F840
:1096A000039102900F9B0E9AFBF7AEFA0022BB07C4
:1096B00005910490FBF758F86160206008340020A1
:1096C00013490D9B0C9AFBF72CF8FA074A400592B8
:1096D00004902A4633460599FBF746F861602060FE
:1096E00008340020B907079B069AFBF78DFA2A4633
:1096F000334605910490FBF737F86160206015B0A0
:10970000F0BD0000B8C90100B0C901000000084068
:109710000000F03F00002440FFB593B004460F4620
:109720001598FBF76EFA079106909F480CC8002029
:1097300001218907FBF768FA03910290079B069ABB
:10974000FBF762FA0591049098480CC80498FBF75F
:109750000BF80D910C900D990C9805F0F1FC0B9104
:109760000A900D990C9804F0E9FC099108900020EA
:109770000121890705F032FD02460B460191009058
:1097800000208B49FAF7F0FF002201239B07039189
:109790000290FBF739FA02460B46059104900B99AB
:1097A0000A98FAF7E1FF0F910E90002080490F9B75
:1097B0000E9AFAF7A9FF05460E4614211698FAF7F5
:1097C00029FD0390FBF715FA02460B46059104901C
:1097D0000020784904F088FF11911090002F74D177
:1097E00000207349099B089AFAF78EFF2A463346F0
:1097F00001910090FAF7B8FF03910290119B109A23
:10980000FBF702FA002201239B0705910490FAF767
:10981000ABFF61602060083400206549099B089A0D
:10982000FAF772FF0122D2074A40039202902A46B9
:1098300033460399FAF798FF05910490119B109A0B
:10984000FBF7E2F961602060083400205849099B69
:10985000089AFAF759FF2A46334601910090FAF721
:1098600083FF03910290119B109AFBF7CDF9002220
:1098700001239B0705910490FAF776FF6160206051
:10988000083400204A490F9B0E9AFAF74AFF01223A
:10989000D2074A40059204902A4633460599FAF7C2
:1098A00063FF616020600834002001218907099B63
:1098B000089AFBF7A9F92A46334605910490FAF76E
:1098C00053FF616020606DE0FFE7012F6AD1002047
:1098D0003749099B089AFAF724FF2A463346019133
:1098E0000090FAF741FF03910290119B109AFBF749
:1098F0008BF90022BB0705910490FAF735FF6160F0
:109900002060083400202A49099B089AFAF709FFC9
:109910002A46334603910290FAF726FF05910490F8
:10992000119B109AFBF770F96160206008340020E9
:109930001F49099B089AFAF7F4FE2A46334601911B
:109940000090FAF711FF03910290119B109AFBF718
:109950005BF90022BB0705910490FAF705FF6160EF
:1099600020600834002012490F9B0E9AFAF7D9FEA6
:10997000FA074A40059204902A4633460599FAF7B9
:10998000F3FE6160206008340020B907099B089A43
:10999000FBF73AF92A46334605910490FAF7E4FEBC
:1099A0006160206017B0F0BDB8C90100B0C9010006
:1099B0000000F03F000024400022026042600830B6
:1099C00002604260083006490260416008300021B0
:1099D000016041600830026042600830704700005A
:1099E0000000F03FFFB595B004460F461798FBF70F
:1099F00008F905910490B1480CC80020012189079D
:109A0000FBF702F903910290059B049AFBF7FCF81F
:109A100007910690AA480CC80698FAF7A5FE0F9180
:109A20000E900F990E9805F08BFB0D910C900F99ED
:109A30000E9804F083FB0B910A901F98FBF7E1F856
:109A40000022A04B03910290FAF75EFE0791069068
:109A50001E98FBF7D6F802460B46039102909749F1
:109A600003C9FAF781FE05910490079B069AFBF75C
:109A7000CBF8099108900999089805F061FB00223C
:109A800001239B0701910090FBF7BEF802460B46AD
:109A90000391029000208C49FAF766FE0022012310
:109AA0009B0705910490FBF7AFF802460B46079120
:109AB00006900D990C98FAF757FE1191109000201E
:109AC0008149119B109AFAF71FFE05460E46142194
:109AD0001898FAF79FFB0590FBF78BF802460B46A8
