:020000040000FA
:10400000F8130020834100008F410000914100001F
:1040100000000000000000000000000000000000A0
:1040200000000000000000000000000093410000BC
:1040300000000000000000009541000065CA00007B
:104040009941000099410000994100009941000008
:1040500099410000994100009941000025AC000001
:10406000994100009941000051C3000053C3000072
:1040700019D6000023D600002DD60000DD52000026
:1040800099410000994100009941000099410000C8
:1040900099410000994100009941000099410000B8
:1040A00081AC000099410000994100009941000055
:1040B0009941000099410000994100009941000098
:1040C00000F002F800F030F80CA030C808382418CE
:1040D0002D18A246671EAB4654465D46AC4201D140
:1040E00000F022F87E460F3E0FCCB6460126334242
:1040F00000D0FB1AA246AB46334318475490010048
:10410000749001000023002400250026103A01D3FA
:1041100078C1FBD8520700D330C100D50B6070477F
:104120001FB51FBD10B510BD00F0A6FF1146FFF76B
:10413000F7FF0AF021FB00F0BEFF03B4FFF7F2FF28
:1041400003BC00F0F1FF000070B505460C461646B2
:1041500002E00FCC0FC5103E102EFAD2082E02D36B
:1041600003CC03C5083E042E07D301CC01C5361F7E
:1041700003E021782970641C6D1C761EF9D270BD95
:104180007047094880470948804709480047FEE7CB
:10419000FEE7FEE7FEE7FEE7FEE70000054806490A
:1041A000044A064B70470000F9CD00008141000031
:1041B000C1400000F80E0020F8130020F80E002087
:1041C00001E004C0091F0429FBD28B0701D502803E
:1041D000801CC90700D00270704700290BD0C307AC
:1041E00002D00270401C491E022904D3830702D565
:1041F0000280801C891EE3E70022EEE70022DFE751
:10420000002203098B422CD3030A8B4211D30023D3
:104210009C464EE003460B433CD4002243088B42AD
:1042200031D303098B421CD3030A8B4201D394463A
:104230003FE0C3098B4201D3CB01C01A524183092D
:104240008B4201D38B01C01A524143098B4201D3E7
:104250004B01C01A524103098B4201D30B01C01A12
:104260005241C3088B4201D3CB00C01A524183088C
:104270008B4201D38B00C01A524143088B4201D3B9
:104280004B00C01A5241411A00D201465241104619
:1042900070475DE0CA0F00D04942031000D340428E
:1042A000534000229C4603098B422DD3030A8B42C4
:1042B00012D3FC22890112BA030A8B420CD3890162
:1042C00092118B4208D3890192118B4204D3890148
:1042D0003AD0921100E08909C3098B4201D3CB0186
:1042E000C01A524183098B4201D38B01C01A52413B
:1042F00043098B4201D34B01C01A524103098B423F
:1043000001D30B01C01A5241C3088B4201D3CB0029
:10431000C01A524183088B4201D38B00C01A52410C
:10432000D9D243088B4201D34B00C01A5241411AE3
:1043300000D20146634652415B10104601D3404211
:10434000002B00D54942704763465B1000D34042C2
:1043500001B50020C046C04602BD70477047704797
:1043600030B50346CA02400D1043164D164C0A15CF
:1043700002D02043002A06DBAA1A002A12DDD04010
:10438000FF2A0BDC30BD5205520D01D14000400820
:10439000AA1A07D4D0404042FF2A01DD002030BDD8
:1043A0000028FCDD4A00002B01D0012000E00020A5
:1043B000101801225205D042F0D8C817C0436040FF
:1043C00030BD00001E0400000000008010B500F0A9
:1043D00009F8006810BD10B5044600F003F8046049
:1043E00010BD000000487047980E002010B5002056
:1043F0000249029A00F067FE10BD00000000F87F3D
:10440000FFFFFFFFFFFFFFFFFFFFFFFFFFFFFEFEBE
:10441000F0B50C46871A9C410D46861A9D4103D281
:10442000C01BA141D21963410D0D1F0DC94EEC1BDC
:10443000AE435CD07F057F0D0026002F51D02D05A7
:10444000AC46A943DD020123ED0A1B051D432023D1
:104450001B1B24D41746E740381871412F46E7400C
:10446000CC199D402818314661410C0D27D161447B
:104470009A4013D50023401C594152000ED14008E8
:10448000400001224B005205D34207D305204007CC
:10449000C14201D5B04900E0B0493046F0BD6B00E3
:1044A000002A00D001229A181F23203C1B1B01D593
:1044B000002302E0E540281871410C0DD7D00124FB
:1044C00024050919C407CD0740084908E40F28430B
:1044D0006144002CD5D00024401C61419A40D0D1C9
:1044E000CDE76A05520DD9D1C90FC907D5E79C4D53
:1044F0004E00002801D0012400E0002434195F00A0
:10450000002A01D0012600E00026BE19954FAC42DA
:104510000CD8AE420AD8B44206D001256D05EC4253
:10452000BCD010461946F0BD9942FCD00020394657
:10453000F0BDF0B51FB40C460F46811A9F412546C9
:10454000861A9D4106D20125ED076F40401ABC41F5
:1045500052187B41210D1E0D8D1BAC467D4D8D43A8
:104560007ED075056D0D7CD00D05AE46AC431B03AA
:104570001B0B794D52429D41202366469B1B14D351
:104580001746F740381800260090744160462F46C1
:104590000741E41900989D402818664116D47146D9
:1045A00071189A4025D5012320E093182A466A41C4
:1045B0005200002B00D0521C1E23203E9B1B002BC0
:1045C00061DD3541EE1728186641E8D500187641BF
:1045D0005B1C9A4000D3401C4B05F3181524E340A4
:1045E00010D3002B52D071467118D30FC01802D3CC
:1045F000491C05B0F0BD0123DB079A42F9D1400800
:104600004000F6E701225205B21801D1002853D02C
:104610000123CC0ADB029943891E002A08D1020C2F
:1046200003D0020C0004103902E0024600202039B9
:104630000023550B05D112020823550B01D152015D
:104640000D23550C01D112011B1DD50C01D1920077
:104650009B1C150D01D152005B1C2025EE1A01E0B8
:104660002CE022E00546F54015439840CA1AE107C0
:1046700069181305C918002ABBDA03204007081877
:10468000C10FC9070FE071466118B2E7F107400892
:104690000843711071444A000CD001235B059A4213
:1046A000A7D2C90FC9070020A3E74905490D26D1A4
:1046B000002001E00028F4D100219AE7284D66008F
:1046C000002801D0012100E0002171185F00002ABC
:1046D00001D0012600E00026BE19224FA94210D8C1
:1046E000AE420ED8B14208D001256D05E94206D090
:1046F0001946A802414010467BE79C4201D0214662
:1047000077E70020394674E710B50C465C4005D5C4
:104710000124E4076340FFF70CFF10BDFFF778FEAC
:1047200010BD30B40C465C4004D50124E40763405E
:1047300030BC6DE630BCFCE670B50124E407614096
:104740000D465D4002D4FFF763FE70BD6340FFF786
:10475000F0FE70BDFF0700000000F0FF0000F07FDA
:104760000000E0FF0000F87FF0B5F94D0C091E09CC
:104770002C402E402F468BB0A7437DD0B543FCD0B4
:10478000002E7AD0002CFCD00D465D40ED0F254365
:10479000AC1BFF25AD0464190894C502440DC90281
:1047A0002143500DDC0204430120C00701430443B0
:1047B000D2020191200C110C00958C460104234675
:1047C0008B430A9161460904E24D8A430991010A2B
:1047D0007D4449198039097805464D4301266D18F5
:1047E000F605751B6943C90C640B891C4C4364189E
:1047F000B5012C1B250C2E04B4434C434D43210C16
:10480000691889090591009DE90701D00121C907AF
:1048100004912C4601996708CD072F434C08059D4C
:10482000E10B4D432D0C29466646754302950D4616
:1048300045432E46029D7D1BB44100950D465D43C8
:1048400001942C0C2F040D465543AE462D0C3D43D0
:10485000029503947546049C2D04641B049406D2AF
:10486000029C039D641C002675410395029401ACD3
:1048700070CC009F7D1B01E03EE162E1B441090480
:104880000095079101940599A4086143090C0C4611
:104890004443650BE7040C4666467443A646640B26
:1048A0003C43039502947446049DE4042C1B049439
:1048B00006D2029C039D641C002675410395029458
:1048C00001AC70CC009F7D1BB44101940C465C434D
:1048D0000095650FE7000C465443A646640F3C4321
:1048E000039502947446049DE4002C1B049406D2A4
:1048F000029C039D641C002675410395029401AC43
:1049000070CC009F7D1BB441AE09AF06049DC90069
:10491000AD092F43049DA406AD060495079D3443BD
:1049200069180791059DE10B4D432D0C29466646FC
:10493000754302950D4645432E46029D7D1BB441AD
:1049400000950D465D4301942C0C2F040D465543F4
:10495000AE462D0C3D43029503947546049C2D04F0
:10496000641B049406D2029C039D641C00267541BE
:104970000395029401AC70CC009F7D1BB44101945F
:104980008C050694079C890A611800950791019C83
:104990000599A4086143090C0D464543680BEF04D3
:1049A0000D46644665436C0B3C43049FED047D1B40
:1049B000AC4602D20025641C6841009E019D371B55
:1049C00085410846584301950C46460FC50054439F
:1049D000600F28436546E4002C1B02D20025401CD2
:1049E0006E41019D3F1AB5412846BD098006284306
:1049F0008446A009BF064E020699A406761807430E
:104A0000079D002068410A99079019430020099BDF
:104A100000906046FF1913434041E20F64003A439F
:104A2000A4460446D71A8C41A04203D90120009025
:104A300020463A46C70F941840416246D20F22439F
:104A4000644664000494009CBE466400D71AA446E1
:104A5000044602978C417746002F01D1A04204D929
:104A60006046401C8446029A2046C40FA64694180D
:104A70004041049A0546D20F224364466400D31A8B
:104A80008D417146002901D1A84202D928461A4613
:104A9000641C10430122002800D01643610200204C
:104AA000079B891904465C410223002C02DB49184C
:104AB00013466441089DCE0A2D145D194B05670508
:104AC000E10A2C050D1908993E43C9076940002BDE
:104AD00008D0934006D30022761C5141002B01D10F
:104AE000760876001C4A002D43DB154241D0AA43CC
:104AF0003FD030460BB0F0BD06180D464D41174C67
:104B00007642AC411AD395181C465C41134A6D425B
:104B1000A24113D3012252054C00D4420AD15C00B9
:104B2000D4420BD04B4002D592021143E2E7490038
:104B30004908DFE75940C90FC90718E000200849B4
:104B4000D8E7054801420DD10342F7D0F2E7000053
:104B50000000FF074C8701000000F07F0000E0FF2D
:104B60000000F87F114859400143C0124140002025
:104B7000C0E70123089A9B069A4205DC03225207EC
:104B80008918C90FC907B5E7052252078918074ACE
:104B90001143D2125140ADE770B515461C4602468E
:104BA0000B4628462146FFF7DFFD70BDFFFFFF7F64
:104BB0001F22030C02D10F22000402D0030E03D0E7
:104BC00004E00020014670470002083A030F01D1BB
:104BD0000001121F830F01D18000921E002801DB0B
:104BE0004000521E120551184205C01241181046CD
:104BF0007047C10FC90700D04042012292071143FC
:104C0000D6E701218907D3E7F0B58B4C0F0925467C
:104C100089B0BD437BD01D092646AE43FAD00E466F
:104C20005E402740F60F3E43254071D024012142CB
:104C3000FBD0FF24AD19A4042D1B039501252D05E0
:104C4000DB02DB0AC9022B43C90A29431E01090101
:104C5000040F130F050121431701880B82039143B1
:104C60002D098C46A90B1E438A039543B30B9A0367
:104C700096433F09BA0B9403A74302962E467E4300
:104C80000497B6464E19D7190C460196544305971A
:104C90007E43371B7646BF1B3601B646BE0B361920
:104CA00000967646BC043719009C01D3641C00941E
:104CB0006400002F01D001263443029E049F7543F7
:104CC00066467E430496760034196E0034190094CB
:104CD000029C019E1C196643751BAE4606946546F0
:104CE0004519059C05956C43594375460891691A09
:104CF0000191049E01465143A41B0491611A009C3A
:104D00000791E10605D061090122114302E072E03A
:104D10006EE06109089D00272C0A2D066918049D84
:104D20007C412A0A2D066918019D6241AC0DAD0235
:104D30006D185441079A910D920255196141029ADA
:104D4000644658435443069B059A5A43121A131B50
:104D50009A0E9B015B187A41010B0005C318514163
:104D6000220A200644195A419A4200D2491C0120C5
:104D70004002814203D315230226F64302E01423A6
:104D80000326F6432020C51AA9401746AF40DA4053
:104D90000A4320460399D84009147318190551187D
:104DA000039A3843D2075140AC4009D001229440C5
:104DB00006D30022401C5141002C01D14008400084
:104DC0001E4A934212D3012203989206904207DBB7
:104DD0000520400709181A480143C012414004E069
:104DE000032040070818C10FC907002009B0F0BD13
:104DF0000020F107FAE705180C464C4111486D42B6
:104E0000A04115D394181A465A410E486442904165
:104E10000ED301204A004005824209D35A00824243
:104E200006D35940C90F084AC90700201143DDE7DE
:104E300000200649DAE700000000FF07FE07000037
:104E4000FFFFFF7F0000E0FF0000F07F0000F87F21
:104E5000F8B5224C4E00069DA6420AD8A64201D1C2
:104E6000002806D15E00A64203D8A6420AD1002A35
:104E700008D00D24240425422CD02946002000F01F
:104E8000DFF8F8BD0C461C430CD4994202D0EFF376
:104E90000080F8BD904202D0EFF30080F8BDEFF340
:104EA0000080F8BD09242407E5008B4206D0EFF30B
:104EB0000080A043591A06D2284304E0101A05D3F3
:104EC000EFF30080A04380F30088F8BDEFF300808B
:104ED000A043F1E70095FFF789FAF8BD0000E0FF75
:104EE00070B505464800440D124B0020002C0AD036
:104EF000634008D09A4206DA6642B24203DD1205E8
:104F00004019514170BD002C08D0002B09D0C90FA9
:104F1000C907002AF6DB084A114370BDC90FC9074B
:104F200070BD28460A03104302D00020034970BD1B
:104F3000284670BDFF0700000000F07F0000F87FEA
:104F4000F0B53D4B02460C461C400020002C63D0BF
:104F50003A4D8B4366D000296BDB0B0D1D05A94331
:104F600001252D0529430124FD33E34001D3921887
:104F70004941FF3381339C468B02940D0121234329
:104F800089074C42920200271B198C105D1A04D429
:104F90002D1B02D42B466500491992185B41640809
:104FA000F4D15C1A08D40125ED07EE1755197441A8
:104FB00002D42A462346491C94185B4101229207D9
:104FC0001D46E61B8D4106D4B61A854103D42B46F7
:104FD000550034467F1924195B415208802AEFD1CD
:104FE000234300D0022338460A22D04001D30122B5
:104FF00013438A0510436246890A12058918002B5B
:1050000009D00122D34002D30022401C5141002B81
:1050100001D140084000F0BD0B03134307D0C90F76
:10502000C907F0BD0803104303D1002901DB104676
:10503000F0BD00202946F0BD0000F07F0000F87FA1
:10504000C80212D54803400F002804D0C803C0434B
:10505000012188407047EFF300800001000903211F
:105060000907084380F3008870470020704700005C
:1050700000487047980E00207546FFF7F9FFAE46CE
:10508000050069465346C008C000854618B020B5E3
:10509000FFF784F860BC00274908B6460026C0C563
:1050A000C0C5C0C5C0C5C0C5C0C5C0C5C0C5403DE0
:1050B00049008D46704710B50446C046C04620469C
:1050C000FFF73BF810BD10B50C461107090F092971
:1050D00004D00A290AD008290CD104E0114608207E
:1050E000FFF7AEFF06E0510606D501E0510601D5F7
:1050F0000120C007214610BDD10607D501010909CD
:10510000CC084907000E0006044309E0410F2002C5
:105110004907000A0143200E00061D22D141014328
:105120000846E7E77047000001491820ABBEFEE7DC
:105130002600020070B58C180578401C6B075B0FC9
:1051400001D10378401C2A1106D10278401C03E0EB
:105150000678401C0E70491C5B1EF9D12B0705D444
:105160000023521E0DD40B70491CFAE70378401C33
:10517000CB1A921C03E01D780D70491C5B1C521E5B
:10518000F9D5A142D8D3002070BD000010B546204B
:1051900005F030FB002801D1012000E00020194972
:1051A000087008460078184909790907C90F88422C
:1051B00024D014484078401CC0B2124948701928C5
:1051C0001FDB002048700846007800280FD00E48EA
:1051D000406801210905884340180B49486008468A
:1051E00040680821884308300749486009E00648BC
:1051F0004068082188430449486002E000200149D2
:10520000487010BDB0F0FF1F8CF1FF1F10B50121D9
:10521000462005F033F90222002102480AF004F882
:1052200010BD0000B0F0FF1F10B50446002C04D0E4
:10523000012C03D0022C0BD105E00AE080210020D4
:1052400000F01AF805E08021002000F015F800E0D9
:1052500000BF00BF10BD10B50021062005F00EF9FB
:105260000021282005F00AF900212C2005F006F97C
:105270002C2005F09FFA10BD70B504460D462C2079
:1052800005F0DCF80821012007F064F9214601202F
:1052900007F060F92946012007F05CF92C2005F0A1
:1052A00089FA70BD10B504461F21204600F011F99F
:1052B000034840690121490788430149486110BDFD
:1052C0000080044070B504460D462146024800F0B7
:1052D000DBF82880012070BD00B00340704700005B
:1052E00030B504460D466548844206D1644840699D
:1052F000012149070843624948612979204600F0A5
:10530000D5F86979204600F0D9F8A979204600F04F
:10531000F0F8E979204600F0E4F86888A061287880
:105320000007C00F002806D000BF60682021084396
:10533000606000BF00BF2878C006C00F002806D0FC
:1053400000BF606810210843606000BF00BF28787C
:105350008007C00F002806D000BF20682021084326
:10536000206000BF00BF2888C005C00F002806D0FD
:1053700000BFE06820210843E06000BF00BF28783C
:105380000006C00F002806D000BFE0684021084397
:10539000E06000BF00BF28784007C00F002806D09B
:1053A00000BF606840210843606000BF00BF2878EC
:1053B000C007C00F00280CD000BF20684021084360
:1053C000206000BF0F20012181402E4A116000BFE4
:1053D00000BF28784006C00F002806D000BFA06894
:1053E00010210843A06000BF00BF28788006C00FCE
:1053F000002806D000BFA06880210843A06000BF3D
:1054000000BF28888005C00F002807D000BFE068D3
:10541000FF2101310843E06000BF07E000BFE06802
:10542000FF2101318843E06000BF00BF28884005AC
:10543000C00F002806D000BFE06902210843E061E8
:1054400000BF06E000BFE06902218843E06100BFC1
:1054500000BF28880005C00F002806D000BFE06903
:1054600001210843E06100BF06E000BFE069400899
:105470004000E06100BF00BF30BD000000B003404D
:105480000080044000E100E030B504460D462946A6
:10549000204600F01EF800BF00BF206880210840B1
:1054A0000028F9D000BF206980B230BD8268920820
:1054B00092008B079B0F13438360704710B582687F
:1054C00060241346A3431A464B01234013438360D1
:1054D00010BD026852095201CB06DB0E1343036074
:1054E0007047C268D208D2004B075B0F1343C360FA
:1054F000704710B582680C241346A3431A468B00EC
:1055000023401343836010BD10B500212F2004F009
:10551000B5FF00212D2004F0B1FF0021152004F07B
:10552000ADFF02210D2004F0A9FF10BD10B5002130
:10553000312004F0A3FF0021322004F09FFF02215C
:10554000332004F09BFF10BD10B51D2005F052F96B
:10555000002801D1012000E000201649087008460B
:105560000078154949684903C90F88421ED011487F
:105570004078401CC0B20F494870192819DB002040
:10558000487008460078002808D00B484068012180
:10559000890488434018084948600AE00648406882
:1055A0000121890488430449486002E00020014940
:1055B000487010BDB2F0FF1F8CF1FF1F0248034975
:1055C00088600348C860704765D50000A8F7FF1FD2
:1055D00089D5000010B5044606480078032807D195
:1055E0000448C068002803D00248C16820468847A4
:1055F00010BD0000A8F7FF1F10B500201B4948711F
:1056000000241BE01A49085D05F0F2F9002813D0C8
:1056100016484079002808D11548005D13494870A4
:10562000012048710846C47006E01148005D0F492A
:1056300088700846047103E0601CC4B2042CE1DBEE
:1056400000BF0A48C078042801D1002010BD0748D7
:10565000C078800007490858002805D00349C97858
:105660008900044A505880470120EFE7A8F7FF1F40
:1056700074F5000078F5000000214868804700BFFD
:10568000FEE7000030B591B0F94CA01F0079F0287A
:1056900002DAFF2000F092FAF548801F00790C280A
:1056A0006ED006DC012814D008287DD00A287CD1D1
:1056B00049E00E287AD0FF28F9D1ED48801FC17843
:1056C0009830C078814203D10021EA48C1748174C6
:1056D000F3E1E748801F407901280CD1E648406893
:1056E000012189058843E4494860112201210846C7
:1056F00006F092FB26E0DE48801F4079102808D192
:10570000DD4840680121890588434018DA4948602E
:1057100018E0D748801F4079112813D1D448801F42
:105720008078C11F1E2005F0A5F8D44908700846EE
:1057300002782146401C09F069FD11220121032055
:1057400006F06AFBB9E1CA48801F40790D2816D1DE
:105750002078012803D16078C949087007E02078D3
:10576000022804D16078C7490873A078487320786C
:1057700000020D3082B20A21032006F04DFB9CE1AD
:10578000BB48801F4079082872D007DC030008F06E
:10579000ECF9087F1A8595A5B9C7DF7F0C2868D07A
:1057A0000ADC092872D002E074E185E171E10A287F
:1057B0006DD00B286CD125E187286AD08B2869D061
:1057C0008C28F7D144E1207802281ED004DC002880
:1057D00007D001285FD105E003282ED0F1285AD147
:1057E00048E059E0A7482038007E012801D0012078
:1057F00000E0002005462946002002F09FFC082218
:105800000A21032006F008FB46E09D480178491C68
:10581000282005F02FF89A4908700846007808F00B
:10582000FBF8FF220E320A21032006F0F5FA0622C9
:105830000A21032006F0F0FA2EE0914800780028B3
:1058400003D08F480078401E00E000208C4908708B
:105850000846007808F0E0F8FF220E320A21032003
:1058600006F0DAFA06220A21032006F0D5FA13E040
:1058700080E0ECE0207800027D49891F49794018DA
:1058800082B20C21032006F0C7FA05E08AE0A1E00D
:10589000FCE05EE0B7E000BF00BFF8E021787748A9
:1058A00020304175207800027149891F49794018DC
:1058B00082B20C21032006F0AFFAE8E021786F48AD
:1058C00020308175207800026949891F4979401884
:1058D00082B20C21032006F09FFA00BF022221466B
:1058E0006648373009F092FC0222A11C6348393027
:1058F00009F08CFC5E48801F42790C21032006F0E1
:105900008BFAC4E0022221465C48393009F07EFC63
:105910005748801F42790C21032006F07DFAB6E03B
:105920005348801F8078C11F312004F0A3FFC1B20B
:105930005248C0304174427C2146123009F066FC66
:105940004B48801F42790C21032006F065FA9EE047
:1059500000BF21784948203081746178123041704D
:10596000A17881704248801F42790C21032006F003
:1059700053FA8CE03E48801F8078C11F312004F02C
:1059800079FFC1B23D482030C176C27E21461C302D
:1059900009F03CFC3648801F42790C21032006F0B8
:1059A0003BFA74E03248801F8078C11F312004F038
:1059B00061FFC1B2314860304173427B21460E30F5
:1059C00009F024FC2A48801F42790C21032006F0AC
:1059D00023FA5CE02648801F8078C11F312004F044
:1059E00049FFC1B225488030C177C27F21462030AF
:1059F00009F00CFC1E48801F42790C21032006F0A0
:105A00000BFA44E000BF217868460171617841716A
:105A10001748801F8078014609393C2004F02AFF8E
:105A2000C1B2684681718279A11CC01D09F0EEFBEC
:105A3000012201A9144806F074FA002806D00C4887
:105A4000801F42790C21032006F0E6F91FE000BF19
:105A500021780A4820300174617810304170044880
:105A6000801F42790C21032006F0D6F90FE00000D8
:105A7000D90B0020F30C00208CF1FF1F1007002031
:105A8000DCF0FF1FA4060020A0F0FF1F00BF00BF36
:105A900013E012E00A48407901280CD1122004F0EA
:105AA000CDFC084806F0E0FD074840680221884325
:105AB000801C0549486000E000BF00BF11B030BD48
:105AC000D30B002055AA55AA8CF1FF1F10B56CE02E
:105AD0003948C07D002806D0012814D0022825D0DE
:105AE000032860D13CE0012233498039104607F099
:105AF00012FF314880380078AA2800D054E00121F4
:105B00002D48C17550E001222B497F39104607F01E
:105B100002FF294880384078552803D000212648C4
:105B2000C17541E002212448C1753DE001222249AE
:105B30007E39104607F0EFFE1F48803881788030AC
:105B40008175807D962803DC1B48807D032803DA5D
:105B500000211948C17527E003211748C17523E0CA
:105B60001548807DC01E82B213497D39012007F09F
:105B7000D2FE002800D110BD0F48807D401EC1B26A
:105B80000D48803804F054FE0B49897D491E0A4AAD
:105B9000803A515C884201D1FFF774FD002106482C
:105BA000C175817500E000BF00BF012007F0ACFEA9
:105BB00000288DD100BFDEE7530C00201CB5044641
:105BC000552168460170AA2141700621817007485D
:105BD000C1786846C1700471052104F029FE694648
:105BE00048710622012007F0B4FE1CBDD30B002033
:105BF00070B5044602226CA1204609F0F3FA002891
:105C000000D170BDA0782B281DD045281AD0492876
:105C100002D04F287BD114E0072264A1E01C09F0D8
:105C2000E1FA012807D107F04FF80A2261A100200C
:105C300007F08FFE04E0062261A1E01C09F0D2FA11
:105C4000AEE0ADE0ACE008225FA1E01C09F0CAFACA
:105C500001280CD10C2221460B315E4809F0D6FAFE
:105C6000FF220D320A21032006F0D6F896E0052225
:105C700059A1E01C09F0B6FA01282CD1072258A13D
:105C80002046083009F0AEFA002808D1012007F0BC
:105C90001BF8112254A1002007F05BFE7EE00422D5
:105CA00056A120460D3009F09DFA01280AD107F0CF
:105CB0000BF8112253A1002007F04BFE03F028FB44
:105CC00000BFFEE7012006F0FFFF0D2252A10020D9
:105CD00007F03FFE62E0052253A1E01C09F082FAC2
:105CE00001285BD12920005D51490978884200D103
:105CF00056E02920005D4E4908702B20005D3128B8
:105D000012D14C48007E012802D0012001E046E07B
:105D1000002005462946002002F010FA08220A2138
:105D2000032006F079F839E02B20005D322817D1E6
:105D300041480178491C282004F09CFD3E49087028
:105D40000846007807F068FEFF220E320A21032081
:105D500006F062F806220A21032006F05DF81DE035
:105D60002B20005D332819D133480078002803D058
:105D700031480078401E00E000202F490870084696
:105D8000007807F049FEFF220E320A21032006F0B8
:105D900043F806220A21032006F03EF800E000BF87
:105DA00000BF00BF2DE700000D0A00004D5F524507
:105DB0004144590041542B4E414D453F0D000000D8
:105DC0004D5F4741545400004C4244414444523AD0
:105DD00000000000070D00204E414D453A00000034
:105DE0004453505F4453440041542B4E414D453D74
:105DF0004453505F4453440D000000005F4556413A
:105E00000000000041542B464143544F5259524523
:105E10005345540D0000000041542B4C4244414472
:105E200044523F0D000000005343414E3D0000002E
:105E3000B6F0FF1F84060020DCF0FF1F10B50446FB
:105E4000002C0CD0012C0AD0022C03D1012005F02B
:105E500051FE04E0032C02D1002005F04BFE10BDE2
:105E600010B502211D2004F009FB02220021024886
:105E700009F0DAF910BD0000B2F0FF1F70B5054659
:105E80000C46FAE003F044FA5120005D102862D07D
:105E900008DC00280FD0012827D0022835D003289D
:105EA00070D145E0112871D020286DD021286CD008
:105EB0003028F5D1D3E001222146284607F02BFDFA
:105EC0002078AA2803D10121512001550CE0207827
:105ED0000D2803D102215120015505E020784428E6
:105EE00002D1032151200155C6E00122611C284640
:105EF00007F011FD6078552803D11021512001557C
:105F000002E0002151200155B6E00122611C284623
:105F100007F001FD60780A2806D1202151200155A3
:105F200000215020015502E0002151200155A3E03D
:105F30000122611C284607F0EEFC6078422806D159
:105F400030215120015500215020015502E000214F
:105F50005120015590E00122A11C284607F0DBFCEE
:105F6000A17850200155005D502803DC5020005DD1
:105F7000032803DA0021512001557DE01121512031
:105F8000015579E077E001E02DE04BE05020005D25
:105F9000C01E82B2E11C284607F0BDFC002800D1DB
:105FA00070BD5020005D401EC1B2204604F040FC90
:105FB0005021095D491E615C88420ED1334800784A
:105FC000A84208D0284600F0FBFE5020025D214682
:105FD0002F4809F01BF900F041F90021512001552B
:105FE00050200155DCE75020005D801C0119012282
:105FF000284607F090FC5020005D801C205C0D2896
:1060000003D12121512001550BE05020005D401C9F
:10601000C1B250200155005D322802DB0021512021
:10602000015529E05020005DC01C011901222846BD
:1060300007F071FC5020005DC01C205C0A280AD1CA
:106040005020005D002803D120215120015513E08C
:106050002046FFF7CDFD0021512001550CE0012223
:10606000A11C284607F057FCA07800F079FF00211A
:106070005120015500E000BF00BF284607F044FC56
:10608000002800D0FEE600BF8AE70000B7F0FF1F3F
:106090000EF8FF1F10B50021072004F0EFF910BD26
:1060A00010B5044620480088401C1F4908801F483E
:1060B0000078012826D1002008801C49087020792A
:1060C0001021884310302071184840784100401852
:1060D0001749085C20701548407841004018144961
:1060E0004018407860702079800880000F49497816
:1060F0004A0089180E4A891889788907890F084348
:1061000020710AE008480088282806DB002006499C
:1061100008802079102188432071204604F0D6FEA3
:10612000204604F01AFF10BD44F1FF1F8BF0FF1F43
:106130002FF1FF1F10B506F025FB10BD10B509F0BB
:10614000FBF810BD10B506F06BFB10BD10B507488D
:1061500004F0B9F80548403004F0B5F80348803041
:1061600004F0B1F804F097F810BD000000F00F4003
:1061700010B50120800309F047F910BD10B504499E
:10618000002006F0EDFB0249012006F0E9FB10BDFE
:10619000801A060010B509F011F910BD10B50020E5
:1061A0000949886109484861072008610321081FDF
:1061B00005F0FCFC0020C043C206D20E0121914034
:1061C000034A116000BF10BD00E000E0FF70020054
:1061D00000E100E010B5E1214902002006F0FCFCDE
:1061E000E1214902012006F0F7FCE12149020220E9
:1061F00006F0F2FC10BD70471CB56846008804210B
:106200008843011D684601800088082188430146B3
:106210006846018000881021884301466846018055
:106220000088402188434118684601800088022187
:1062300088430146684601800088FF2181318843F8
:1062400001468031684601807D214901418000215D
:10625000818007F017FC07F0F5FB1CBDFEB5FE4C76
:10626000A01F0079F02802DAFF2000F08BFDFA4829
:10627000801F00790C287DD008DC012826D0082852
:1062800079D00A283ED00B2876D1F7E30F2874D0B6
:10629000F0280ED0FF28F7D1EF48801FC078EF49D3
:1062A000C978884204D10021EC484030417501751D
:1062B000E5E3E948801F4079002806D10120E8493C
:1062C00008706078487020788870F1E7E248801F95
:1062D0004079042802D0112811D105E003220121C0
:1062E000104605F099FD0BE011220121032005F075
:1062F00093FD11220121084605F08EFD00E000BF4C
:1063000000BFD5E7D448801F40790C2873D009DC42
:10631000030007F02AFC0C297AF4F3F2F1F0EFEE17
:10632000EDECEB86862867D00EDC832876D006DC81
:106330000D2874D00E2873D0822872D14CE18428A5
:1063400070D08528F9D130E28738082869D2430017
:106350007B449B885B009F4477029502B3026400F4
:10636000640064006503AA03BE48C07E002844D1CF
:10637000207803E0F3E3F3E3F3E3F3E3002807D14A
:10638000B548801F42790A21032005F045FD3BE016
:106390002078012815D1B44840680003C00F0028B8
:1063A00005D10121AF48C1766078AE490877AA4887
:1063B000801F4079C21DF9320A21032005F02CFD0F
:1063C00022E0207802281FD1A74840680003C00FB0
:1063D000002805D10221A348C1766078A149087739
:1063E0009D48801F4079C21DFF32FA320A210320E6
:1063F00005F012FD08E0D6E208E29748801F4279D6
:106400000A21032005F008FD5BE3207800280AD16B
:1064100001220A21032005F0FFFCC6E02AE1D6E2B2
:106420000BE34DE376E12078012808D18E484068DF
:106430000003C00F0028F0D100F01CFEB5E020786A
:10644000022828D160780028E7D0874840680003F8
:10645000C00F002802D1607800F05EFF6078C10FA5
:10646000091849104900411A0AD06078401E4001BD
:106470000121C903084381B27A482038C18694E0DB
:106480006078401E40010121C903084381B275486C
:106490002038018789E02078032831D160780028EE
:1064A00019D0714840680003C00F002803D16078FC
:1064B000012100F031FE6078C10F09184910490030
:1064C000411A09D06078401E40010121C9030843E8
:1064D00064492039C88668E06078401E4001012187
:1064E000C90308435F49203908875EE010E2F0E104
:1064F000D1E1B2E193E161E13FE1C4E075E055E053
:106500002078042820D1607800284ED05648406872
:106510000003C00F002802D1607801F067F96078AD
:10652000401E4002C01C82B20A21032005F074FC08
:106530006078401E4000401C0002C01C82B20A214C
:10654000032005F069FC30E02078052828D1607828
:1065500000282AD0444840680003C00F002803D117
:106560006078002100F0D8FD6078C10F091849104B
:106570004900411A0AD06078401E40010121C90338
:10658000084381B237482038C1860EE06078401E4B
:1065900040010121C903084332492039088704E03A
:1065A0002078062801D102F05BF98AE22E48406883
:1065B0000003C00F002803D12078A11C01F06AFD60
:1065C000207800022449891F4979401882B20A21A3
:1065D000032005F021FC74E220780002801C82B2C6
:1065E0000A21032005F018FC6BE21F4840680003F5
:1065F000C00F002827D1617868460170A1784170EA
:10660000E178817020790006617909044018A17948
:1066100009024018E17940180190207A0002617A5D
:10662000401881B2684601812578EA0F521952104C
:106630005200AA1AD1B22E46EA0F921950106A4699
:1066400001F032F900BF207800020349891F49791F
:10665000401882B20A2109E014F8FF1FB8F7FF1FA3
:106660008BF0FF1FE40600208CF1FF1F032005F0D4
:10667000D3FB26E220780002C01C82B20A2103204C
:1066800005F0CAFB1DE2FE4840680003C00F002869
:1066900035D1617868460170A1784170E0780002D8
:1066A0002179401881B26846418060790006A1795D
:1066B00009044018E17909024018217A4018019034
:1066C000607A0002A17A401881B268460181E07ABE
:1066D0000002217B401881B2684641812578EA1783
:1066E000D20E521952115201AA1AD1B22E46EA17ED
:1066F000D20E921950116A4600F08EFE00BF20782B
:106700000002E0494979401882B20A21032005F0CD
:1067100083FBD6E12078C117C90E09184911490138
:10672000411A1F2920D12078C117890E0918891113
:106730008901411A20290BDA2078C117C90E0918DE
:10674000491149010122D2031143CF4AD18613E0F6
:106750002078C117C90E0918491149010122D20335
:106760001143C94A118707E020780002001D82B258
:106770000A21032005F050FBA3E1C1484068000353
:10678000C00F002806D162781202A378D1182078B1
:1067900000F08CFC20780002BA494979401882B296
:1067A0000A21032005F038FB8BE120780002401D10
:1067B00082B20A21032005F02FFB82E1B048406835
:1067C0000003C00F002811D12078002806D1E078FE
:1067D000000221794018AC494039C882627812021F
:1067E000A378D21891B2207801F0FEFD2078000243
:1067F000A4494979401882B20A21032005F00CFB14
:106800002078002801D100F013FB5AE12078000223
:10681000801D82B20A21032005F0FEFA51E198485A
:1068200040680003C00F002803D16178207801F090
:1068300035FD2078000293494979401882B20A2137
:10684000032005F0E9FA3CE120780002C01D82B285
:106850000A21032005F0E0FA33E18948406800038B
:10686000C00F002803D16178207801F067FC207800
:10687000000284494979401882B20A21032005F0B8
:10688000CBFA1EE120780002083082B20A210320F0
:1068900005F0C2FA15E17A4840680003C00F0028ED
:1068A00003D12078611C01F077FD20780002754942
:1068B0004979401882B20A21032005F0ADFA00E1BF
:1068C00020780002093082B20A21032005F0A4FAE0
:1068D000F7E020786C49403108726078487261783E
:1068E000207801F0FDFF002808D066484079C21DDD
:1068F000F9320A21032005F08FFA08E06148407957
:10690000C21DFF32FA320A21032005F085FAD8E0D1
:106910002078012829D120785C490870601C04F097
:1069200093F9002817D0E01D05F096FE002808D046
:1069300054484079C21DF9320A21032005F06CFA4F
:1069400030E0504840790321090242180A2103200F
:1069500005F062FA26E04B484079C21DFF32FA3258
:106960000A21032005F058FA1CE02078022819D1EA
:10697000207846490870601C04F066F9002808D0A9
:1069800040484079C21DF9320A21032005F044FA3B
:1069900008E03C484079C21DFF32FA320A21032048
:1069A00005F03AFA8DE0207801280FD138480078B8
:1069B000002806D1FF220D320A21032005F02CFA0F
:1069C00004E00D2233A1002006F0C3FF79E0207817
:1069D000012818D12A4840680003C00F002802D1BE
:1069E000607807F019F820780002264949794018A4
:1069F00082B20A21032005F00FFA06220A210320A1
:106A000005F00AFA0DE0207802280AD160781E49C4
:106A100020390873A078487305220121084605F043
:106A2000FBF94EE02078000216494979401882B2FD
:106A30000A21012005F0F0F943E0207801280AD16D
:106A400001F0F0FB0E4840680121C904884340185A
:106A50000B4948600BE02078022808D101F00EFCB9
:106A6000074840680121C9048843054948602078E7
:106A7000000204494979401882B213E023E06CE136
:106A80008CF1FF1F0EF8FF1FC40600208EF0FF1FC1
:106A9000B7F0FF1F41542B4C4244414444523F0D38
:106AA000000000000A21032005F0B6F909E0207873
:106AB00000020E3082B20A21032005F0ADF900BFBA
:106AC00000BF00BF49E1A6484079030007F04DF838
:106AD00005044B6490B4D4002078012813D1A14858
:106AE000C07E002808D16078002805D060789D49D4
:106AF00008770320C87631E0FF2212020B21032021
:106B000005F08AF92AE02078022813D19548C07E42
:106B1000002808D16078002805D06078914908776E
:106B20000420C8761AE0FF2212020B21032005F090
:106B300073F913E02078812810D100208949087763
:106B400000218848203001602038417700208549A5
:106B50008877C87700218348203041608DE08EE03F
:106B6000EBE0F9E0E3E07F48C07E032813D1207812
:106B70007C49097F88420ED17B497A4820300160E8
:106B80002038007F000276494979401882B20B21F3
:106B9000032005F041F970E07248C07E032826D139
:106BA00020787049097F884221D160786D49487703
:106BB0000846407F401C203109683F3189098842DE
:106BC00007D36848203000788106890E65488177B0
:106BD00002E04021634881776248007F00026049FB
:106BE0004979401882B20B21032005F015F944E0E1
:106BF0005C48C07E04281ED121785A48007F81421B
:106C000019D160780006A17809044018E1780902DA
:106C100040182179411853482030016060790006FE
:106C2000A17909044018E17909024018217A401835
:106C30004C492031486020E04A48C07E04281AD1DF
:106C400021784848007F814215D161784548407FCE
:106C5000814210D1454D4348407F80012D18404866
:106C60008078093882B2A11C284608F0CFFA0120AA
:106C70003C49C87700BF00E000BF00BF6DE0384866
:106C800040790B2836D004DC012807D0062841D1F2
:106C90002BE087282AD08B283CD12CE02078802834
:106CA00006D1617832488170A178801C41701BE068
:106CB0002078812808D161782D480171A178001DC4
:106CC0004170E17881700FE02078822806D16178E8
:106CD0002748C171A178C01D417005E020780928BE
:106CE00002D161782248017015E000BF6178204828
:106CF000417010E000BF21781D48C17261780B30EF
:106D00004170A1788170E1780B38817321790E3060
:106D1000417000E000BF00BF2078000210494979AF
:106D2000401882B20C21012005F076F815E00A2205
:106D300010A1002006F00DFE0FE00948407901285F
:106D400009D1122003F07AFB0D48406802218843E4
:106D5000801C0B49486000E000BF00BFFEBD000082
:106D60000EF8FF1FE4060020AC0D000004F9FF1F21
:106D70003007002041542B4F54413D310D0000009D
:106D80008CF1FF1F1CB50446552168460170AA21ED
:106D90004170062181700848C1786846C17004714D
:106DA000052103F045FD6946487106220348007835
:106DB00006F0CFFD1CBD00000EF8FF1FB7F0FF1F4F
:106DC00010B504461448C07E002824D1134800782A
:106DD000844204D11149124802F099F807E01148A1
:106DE0000078844203D10F490D4802F090F80C4816
:106DF0000078022803D10C4805F036FC0BE0084867
:106E00000078022803D1094805F02EFC03E0002099
:106E1000C04305F029FC10BDE4060020B8F0FF1FB8
:106E2000B7F0FF1FB9F0FF1F5555AAAA55AA55AADA
:106E300010B5002411E00B48408861000A4A515AFD
:106E4000884208DA09480470FF220E320A21032022
:106E500004F0E2FF10BD601CC4B2282CEBDD00BFC3
:106E6000F8E700008406002042CD0100DCF0FF1F9F
:106E700010B5104803F005FD002809D002200E4986
:106E8000087000200D49087002200D4908700CE0C0
:106E90000C4803F0F6FC002807D0002006490870D3
:106EA000022006490870064908700020C04305F01A
:106EB000DBFB10BD5555AAAAB7F0FF1FB8F0FF1FA6
:106EC000B9F0FF1F55AA55AA10B5002400BF04E071
:106ED000204600F005F8601CC4B2042CF8DB10BD9D
:106EE00010B504462101024A881805F049F810BD82
:106EF0004CF1FF1F70B5044620790007850F07226B
:106F00000021204608F090F920790C218843A9003F
:106F10000C2211400843207170BD10B500212920BA
:106F200003F0ACFA0021122003F0A8FA0021372068
:106F300003F0A4FA372003F03DFC122003F07EFAA0
:106F400010BD000010B50221452003F097FA02227F
:106F50000021024808F068F910BD00007EF0FF1F14
:106F600010B50446230006F000FE07050609141FAD
:106F70002A3540003AE007F0ADF937E0292003F068
:106F80005DFAFF20F53005F09FFE292003F012FC8A
:106F90002CE0062003F052FAFF20F53005F094FEB5
:106FA000062003F007FC21E0282003F047FAFF2029
:106FB000F53005F089FE282003F0FCFB16E00720E1
:106FC00003F03CFAFF20F53005F07EFE072003F0C9
:106FD000F1FB0BE0312003F031FAFF20F53005F032
:106FE00073FE312003F0E6FB00E000BF00BF10BDE0
:106FF00070B504460D4601F0E1F9002C01D000F017
:10700000E5FF00F09DFB00F0D3F800F077F8002CCE
:1070100001D001F07DFA01F0F9F801F061F970BDDD
:1070200010B50020084948752039C8860887002116
:1070300005480175C176FF21817600F007F801212E
:107040000846FFF7D5FF10BDE406002010B5002468
:1070500008E0E200054950180822054908F0D6F872
:10706000601CC4B2082CF4DB10BD0000B806002080
:10707000E4CA010010B500200B49487503F0EEF892
:1070800001210846FFF7B4FF0121084601F086FC04
:1070900000220A21032004F0BFFE7F2252020A21AF
:1070A000032004F0B9FE10BDE406002038B5054603
:1070B0000C4600200090082D01DC002D00D138BDC9
:1070C000210E684601702002010E684641702004BE
:1070D000010E68468170C4706800064A115A6B46FA
:1070E0000422002005F0A6F86900034A545200BFAC
:1070F000E5E70000C0CA01007406002010B50020BA
:1071000005E000214200034B9952411C88B2092836
:10711000F7DB10BD7406002070B504460E46082C3F
:1071200001DC002C01D1002070BD601EC4B200251E
:1071300037E0012E14D1642005F0D2FDFF2081300C
:1071400060431A4941180C206843085CB043FF2192
:1071500081316143154A8A180C216943505412E069
:10716000FF2081306043114941180C206843085CBE
:1071700040084000401CFF21813161430B4A8A18BE
:107180000C2169435054FF20813060430749411866
:107190000C2068430A182946204600F03DF9681C77
:1071A000C5B2202DC5DB0120BEE7000074FAFF1F29
:1071B00010B5002159E0002053E00024FF22813265
:1071C0004A432B4BD3180C2242439C54FF2281325A
:1071D0004A43274BD3180C2242439A5C5208520070
:1071E000521CFF2381334B43214C1C190C23434376
:1071F000E2540024FF2281324A431D4BD3180C2253
:1072000042439A1854704B246401FF2281324A434E
:10721000174BD3180C2242439A1854808200154B06
:107220009C58FF2281324A43114BD3180C2242430F
:107230009A185460104CFF2281320B4653430C4A7B
:107240009B180C2242439A1814818D24FF2281320C
:107250004A43074BD3180C2242439A185481421CCC
:1072600090B22028A9DB4A1C91B20829A3DB10BDEB
:1072700074FAFF1F3CCB0100DC05000010B5234869
:10728000C08E0121C9030840002800D110BD20484C
:107290000078401C1E49087008460078042803DB6B
:1072A0001C48007802280FD019480078042803DB16
:1072B00018480078022807D015480078082822DBF3
:1072C0001448007800281ED10020114908700F488A
:1072D000C08E0002001D82B20A21032004F09CFD32
:1072E000002810D00948C08E401C81B20748C186D2
:1072F0000146C88EC117C90E091849114901411A22
:1073000001D10248C18600BFC0E70000C4060020CA
:10731000C0F0FF1FB7F0FF1F3EB50546082D01DC8A
:10732000002D01D100203EBD681EC5B20021684677
:107330000170007841084900491C6846017000212D
:1073400041704B21490141800A4901818D214181D0
:1073500000240AE0A0000849085801906A46214626
:10736000284600F059F8601CC4B2202CF2DB012042
:10737000D9E70000DC0500003CCB010010B5234834
:10738000008F0121C9030840002800D110BD20480A
:107390000078401C1E49087008460078042803DB6A
:1073A0001C48007802280FD019480078042803DB15
:1073B00018480078022807D015480078082822DBF2
:1073C0001448007800281ED10020114908700F4889
:1073D000008F0002001D82B20A21032004F01CFD70
:1073E000002810D00948008F401C81B2074801874F
:1073F0000146088FC117C90E091849114901411AE0
:1074000001D10248018700BFC0E70000C406002088
:10741000C1F0FF1FB7F0FF1FF0B593B006460D4651
:107420001446082E01DA1F2D02DB002013B0F0BD38
:1074300061884B229201002003F0D6FD60804D4A06
:107440000020616803F0D0FD606021894A4A002075
:1074500003F0CAFD2081618919229201002003F006
:10746000C3FD6081EA17120F521912117300D2186E
:107470005200424B9A5A2846EB171B0F1B181B1140
:107480001B01EB1A9F00DB19D21892B212922078DE
:10749000C007C00F00280DD06078002808D160898F
:1074A00000902389618808A8626801F049FB12E016
:1074B0000020BBE7FF202D3005F012FC00210891D1
:1074C00009910A910B912E480C910D9000200E907D
:1074D0000F90109011902078C006C00F002810D097
:1074E0000122D207099951400898099108900B99F7
:1074F00051400A980B910A900D9951400C980D91AA
:107500000C900999089803AA0191009004F0D6FD07
:107510000B990A9804AA0191009004F0CFFD0D99EF
:107520000C9805AA0191009004F0C8FD0F990E98DF
:1075300006AA0191009004F0C1FD1199109807AAC4
:107540000191009004F0BAFD03AB052200201299CE
:1075500004F0FAFDFF20813070430A4941180C20E5
:1075600068430818A368226861688360026041600C
:1075700001205BE700770100B80B0000BCCB0100E5
:107580000000F03F74FAFF1F70B5044668480078A9
:10759000401C6749087067480078030006F0E5FA68
:1075A000050414376F94C3006348007F0002C01CB9
:1075B00082B20B21032004F02FFC00205C490870EC
:1075C00001205C490870AFE05B482030006800286B
:1075D0000CD05948007F0002001D82B20B2103200D
:1075E00004F01AFC0220534908700FE0504800785C
:1075F0000A280BDB00204E4908704F48007F00022C
:10760000C01C82B20B21032004F006FC8CE04A4827
:10761000C07F002822D04848407F401C4649203186
:1076200009683F318909884203D303204149087022
:1076300010E000203E4908703F48407F401C3E4912
:1076400048770846007F0002001D82B20B2103200C
:1076500004F0E2FB00203849C8770FE03448007896
:1076600032280BDB0020324908703348007F0002CB
:10767000001D82B20B21032004F0CEFB54E0002158
:107680002E4A002003E013785918521C401C2A4B44
:1076900020331B688342F6D8274B20335B688B422C
:1076A00003D10423234D2B700DE00023214D2B70BB
:1076B0001F4D2B70204D20352B60203D6B77AB7715
:1076C000EB7720356B602FE01B49087F00F0AAFFA5
:1076D000002827D00020174908700121084601F032
:1076E0005DF91548007F1449487502F0B7FD002088
:1076F0001149087700211048203001602038417777
:1077000000200D49887700210B48C17700200A49E5
:1077100020314860412252020B21032004F07CFBFF
:10772000012070BD00E000BF00BF0020F9E70000AD
:10773000BCF0FF1FBBF0FF1FE406002004F9FF1F91
:1077400000204BE0002318214143264A53541821BE
:10775000414389180B7318214143515C4908490082
:10776000491C182242431F4B9954182141431A4681
:107770008918097B49084900491C18224243D2183C
:107780001173032318214143164A89184B7018219D
:1077900002464A43134951184B7318214143114A79
:1077A00089188B70182102464A430E4951188B7371
:1077B0001423182141430B4A89184B600A4B1821A6
:1077C000414389180B6100231821414389180B811B
:1077D0001821414389188B82411C88B20828B1DBEB
:1077E00070470000B4F9FF1F204E00003EB504466C
:1077F000082C01DC002C01D100203EBD601EC4B26B
:10780000002168460170007841084900491C68461B
:10781000017003214170817014200190002168469D
:1078200001816A46204600F03FF8044801906A460C
:107830000121204600F038F80120DEE7204E00004C
:1078400070B504460D46012D02D100201449087080
:1078500013480078002802D001281CD112E02046ED
:1078600000F084FB00280CD00E48447502F0F6FCB2
:10787000FF2201320B21032004F0CEFA0120084937
:10788000087009E00748007F002803D10449087008
:10789000012070BD00E000BF00BF0020F9E700003C
:1078A000BAF0FF1FE4060020F0B5B1B005460F4660
:1078B0001446142103A8FCF7A1FC082D01DA022FBD
:1078C00002DB002031B0F0BD18206843ED494118BB
:1078D0000C207843085CC006C00F2178C906C90F88
:1078E00048400290E84A0020616803F07DFB606038
:1078F0002078C007C00F00287ED06078012815D1FD
:10790000A078012812D12389394608A8626801F0BD
:1079100003FD2389394612A8626801F0FDFC1CA80A
:1079200002F082F826A802F07FF81EE160780128B4
:1079300015D1A078032812D12389394608A8626896
:1079400001F022FF2389394612A8626801F01CFF6A
:107950001CA802F069F826A802F066F805E1607834
:10796000012823D1A078052820D1002003210091EF
:1079700001902389394608A8626802F06BF82389D0
:10798000394612A8626801F0C7FC0020032100916B
:107990000190238939461CA8626802F05BF82389AC
:1079A000394626A8626801F0B7FCDEE0607801285D
:1079B0002DD1A07807282AD1002004210091019020
:1079C0002389394608A8626802F044F8012004219E
:1079D000009101902389394612A8626802F03AF8B2
:1079E0000020042100910190238939461CA8626877
:1079F00002F030F8012000E0A7E00421009101909E
:107A00002389394626A8626802F024F8ADE0607840
:107A1000022812D1A07801280FD12389394608A85D
:107A2000626801F05FFD12A801F0FEFF1CA801F0E2
:107A3000FBFF26A801F0F8FF97E06078022815D137
:107A4000A078022812D12389394608A8626801F07B
:107A500049FD2389394612A8626801F05DFC1CA823
:107A600001F0E2FF26A801F0DFFF7EE06078022847
:107A700015D1A078032812D12389394608A8626855
:107A800001F030FD2389394612A8626801F02AFD11
:107A90001CA801F0C9FF26A801F0C6FF65E06078C8
:107AA000032812D1A07801280FD12389394608A8CC
:107AB000626801F069FE12A801F0B6FF1CA801F08F
:107AC000B3FF26A801F0B0FF4FE06078032819D17A
:107AD000A078022816D1002003210091019023896B
:107AE000394608A8626801F0B5FF2389394612A813
:107AF000626801F011FC1CA801F096FF26A801F0B5
:107B000093FF32E0607803281DD1A07803281AD1B2
:107B100000200421009101902389394608A8626859
:107B200001F098FF0120042100910190238939463A
:107B300012A8626801F08EFF1CA801F075FF26A84C
:107B400001F072FF11E00020BCE6FF202D3005F0AF
:107B5000C7F808A801F068FF12A801F065FF1CA88B
:107B600001F062FF26A801F05FFF2078C006C00F79
:107B7000002810D00122D207099951400898099194
:107B800008900B9951400A980B910A900D99514019
:107B90000C980D910C90029800280DD03B49681C60
:107BA000085C012808D1691CC8B20022114600F007
:107BB000D9FA0A2005F088F8002643E0282070430F
:107BC00008A9081803C803AA0191009004F076FAE6
:107BD0002820704308A941188868C96804AA01913F
:107BE000009004F06BFA2820704308A940184169FE
:107BF000006905AA0191009004F060FA2820704302
:107C000008A941188869C96906AA0191009004F081
:107C100055FA2820704308A94018416A006A07AA4B
:107C20000191009004F04AFA2801194A8018FA00DC
:107C300080187200815A03AB0522002004F084FAF8
:107C4000701CC6B2042EB9DB029800280DD00F4973
:107C5000681C085C012808D11E2005F035F8691C55
:107C6000C8B20022012100F07DFA182068430549BE
:107C700041180C207843081821460EC90EC0012077
:107C800020E60000B4F9FF1F007701009C060020E9
:107C9000DCCB0100F0B585B004460F46601E400005
:107CA0006F4A115A03AA012004F02AFA6846007BA1
:107CB00001066846407B000409186846807B000284
:107CC00009186846C07B081802900298FCF791FFDB
:107CD00005460022634BFCF747FD49004908621E38
:107CE000D200614B9A1803C2601EC00019460818E2
:107CF0000022134605684168284607F08BFB04D133
:107D00000021601E594A1154A7E0601E1821484303
:107D10005749081805684368601EC0005249081892
:107D200003C82A460191009007F0A6FB24D23878B8
:107D3000322803DB0021601E4C4A11543878401C65
:107D4000C0B2387064280FDB00203870601E4949CB
:107D5000085C002808D10121601E464A1154012206
:107D60000021204600F0FEF9601E4249085C01280F
:107D700073D10020387070E0601E182148433C49E0
:107D80004018C168806801910090601EC0003649AB
:107D900009180D6849682846019B009A07F09EFB68
:107DA00059D2601E18214843314940184169006981
:107DB00001910090601EC0002B4909180D684968A8
:107DC0002846019B009A07F089FB2FD22A480078A9
:107DD00006282DD12848C088002829D12748406886
:107DE000C002C00F002805D0244800790007C00F4A
:107DF00000280BD121484068C002C00F002817D1CD
:107E00001E4840684003C00F002811D03878401C3D
:107E1000C0B238700A280BDB002038700121601EC8
:107E2000124A1154122002F0C5FC01E00020387003
:107E3000601E1049085C01280FD10021601E0D4A08
:107E400011540F48005D012807D101221146204638
:107E500000F088F901E00020387005B0F0BD0000A6
:107E600060CC010000007041180D0020CAF0FF1F17
:107E700070CC0100C2F0FF1F9CF7FF1F8CF1FF1FA9
:107E80009C06002010B53448007D032800D010BDAA
:107E900032480078062800D0F9E72F48C07E002835
:107EA00000D0F4E72E480078030005F05EFE0805D8
:107EB0000A10161C22282E342A490120FFF7EAFE58
:107EC0002AE02849491C0220FFF7E4FE24E0254966
:107ED000891C0320FFF7DEFE1EE02249C91C042096
:107EE000FFF7D8FE18E01F49091D0520FFF7D2FE55
:107EF00012E01C49491D0620FFF7CCFE0CE0194991
:107F0000891D0720FFF7C6FE06E01649C91D082097
:107F1000FFF7C0FE00E000BF00BF11480178007805
:107F2000401C0F4A10700C2902DB0020114608701B
:107F3000002406E00C48005D012800D103E0601C2D
:107F4000C4B2082CF6DB00BF082C02D1122002F0CC
:107F500075FA00BF9BE70000E40600209CF7FF1FB6
:107F6000D2F0FF1FD3F0FF1FCAF0FF1F10B5044669
:107F7000002C00D110BD0B4A0B49204601F0E0FE59
:107F8000002800D1F6E70121084600F007FD611E38
:107F9000CA000649501808220349091D07F036F99E
:107FA0000120E7E7AC0D000004F9FF1FB806002030
:107FB00010B544220449002001F0C2FE002800D17F
:107FC00010BD0120FCE70000B406002010B5002120
:107FD0001AE0002014E0002903D0002801D08142DB
:107FE00006D190240B224A43094BD218145405E0C1
:107FF00000240B224A43064BD2181454421C90B260
:108000000B28E8DB4A1C91B20929E2DB10BD000015
:1080100050F9FF1FF0B585B00746002004900024FA
:108020002BE0042C27D0052C25D03846FCF7E9FDA1
:108030000022144B03910290FCF773FB05460E4699
:108040000022114B28463146FCF78EFB02460B46B8
:108050000191009000200D4906F0C6FB04AA03918F
:10806000029004F02BF86000094A115A04AB012277
:10807000002004F069F8601CC4B20A2CD1DB012096
:1080800005B0F0BD00006240000034400000244014
:10809000B8CD010070B588B005460C4600200590AB
:1080A000082D01DC002D02D1002008B070BD002693
:1080B00036E02178BA22002002F096FF2070207866
:1080C000FCF79FFD0022184B03910290FCF729FB5F
:1080D000079106900022154B07990698FCF744FB80
:1080E00002460B46019100900020114906F07CFBEE
:1080F00005AA0391029003F0E1FF68000D4A105AAF
:10810000801981B205AB0122002004F01DF822780D
:108110000B20684308494118701C0A54641CC6B2FD
:108120000A2EC6DB0120C0E7000062400000344098
:1081300000002440A6CD010050F9FF1F70B5044691
:108140000D46002D01D0012000E00020064600224F
:108150003146204600F006F80148065570BD000083
:108160009C060020F8B504460D46164600200090F7
:108170006846C570082C00DDF8BD002D08D1002E22
:1081800006D10021204600F0A3FC0A2004F09CFD4B
:108190006000124A115A6B460422002004F04AF88B
:1081A000012D18D1002C0DD00D48007E002809D1DA
:1081B0000A4801886B460422002004F03BF80120A5
:1081C00007490876002E06D10A2004F07DFD012122
:1081D000204600F07DFC00BFCEE7000094CD0100FA
:1081E0008406002070B504460D46002D01D0012004
:1081F00000E000200646012231462046FFF7B2FF8C
:108200000148065570BD00009C060020002004E0D7
:108210000121034A1154411C88B20928F8DB704738
:108220009C06002010B500210846FEF7E1FE002460
:108230000AE00022182060430F490A5418206043C6
:1082400040180273601C84B2082CF2DB002108463F
:1082500000F0A4FB002408E001F05AF8611CC8B249
:108260000121FEF759FF601C84B2082CF4DB922038
:10827000FFF7D0FE10BD0000B4F9FF1F10B50220BB
:108280000549C8760846407D0877012252020A2136
:10829000032003F0C1FD10BDE406002038B50446FC
:1082A0000D4600200090082C01DC002C00D138BDC8
:1082B00008222946002002F097FE6946C870600037
:1082C000054A115A6B460422002003F0B3FF03480D
:1082D000055500BFEBE70000D2CA0100A50600204B
:1082E000012003E0034A1054411C88B20928F9DB3D
:1082F00070470000A506002010B52648007D030049
:1083000005F033FC060405213B3C40443FE005F00A
:10831000E1FF01F0DFFE1F48407D002806D002206B
:108320001C49C8760846407D087708E001210846C8
:1083300000F034FB00220A21032003F06DFD02212E
:108340001448017523E01348C07E002814D105218C
:108350001048C17603220121104603F05DFD0D484F
:10836000407D002805D17F2252020A21032003F01C
:1083700053FD03200749087509E008E00520054979
:10838000087504E000200349087500E000BF00BF45
:1083900010BD0000E406002070B504460D46082C10
:1083A00000DD70BDE200044950180822294606F09D
:1083B0002DFF00BFF5E7000008F9FF1F10B50024EE
:1083C0000AE0E200064BD118E300064A981808229A
:1083D00006F01CFF601C84B2092CF2DB10BD00000B
:1083E000E4CA010008F9FF1FF8B505460F46082D3D
:1083F00000DDF8BD002D06D11948C28A394600209B
:1084000002F0F2FD87B26900154A921C505A6421AD
:10841000FBF700FF84B264213846FBF7FBFE86B20F
:1084200015E0B44202DD601E84B203E0B44201DA1A
:10843000601C84B26420604381B2284600F012F8C8
:10844000B44204D13946284600F00CF800E0E8E7D1
:1084500000BF68000249891C0F5200BFC9E7000035
:1084600084060020F0B589B004460F4622A00068BB
:1084700003907D2292013946002002F0B5FD87B2BB
:108480003846FCF7BEFB054600221C4BFCF749F9B9
:1084900000221B4B01910090FCF766F907910690B2
:1084A0000022184B07990698FCF75EF905462A4604
:1084B0000B460020144906F097F9059104906000DE
:1084C000124A105A401C81B203AB0422002003F070
:1084D000B1FE03AA0599049803F0F0FD60000B4A71
:1084E000115A03AB0122002003F02EFE012004F0FC
:1084F000EBFB09B0F0BD00000000208A0040BF4047
:1085000000005940000034400000244030CD0100FC
:1085100010B57D218901094A5180012007E07D21A4
:1085200089014200054B9B1C9952411C88B20928C5
:10853000F5DB7D218901014AD18210BD840600202E
:1085400010B5334908880988491C314B1980092125
:10855000FBF760FE002900D010BD2E4800780A28E5
:1085600011D12D48807E00284FD02B48807E401EA0
:10857000294988760846807E4000284A115A002002
:10858000FFF770FF41E023480078062836D12248E3
:10859000807EFF2832D02049887E282102F06AF9A7
:1085A0001D4988760846807E1D49097888420DDD80
:1085B0001948807E401EC1B217488176807E4000F7
:1085C000164A115A0020FFF74DFF1EE01248807E28
:1085D0001349097888420DDA0F48807E401C0E4905
:1085E00088760846807E40000C4A115A0020FFF72A
:1085F00039FF0AE0FF200849887606E00548007840
:108600000B2802D1FF210448817600BFA4E70000B7
:10861000DEF0FF1F9CF7FF1FE406002042CD0100A3
:10862000DCF0FF1F10B50446002C00D110BD094A34
:108630000949204601F04AFC002800D1F6E7611EF6
:10864000CA000649501808220349091D06F0DEFD3C
:108650000120EBE7AC0D000004F9FF1FB806002075
:1086600010B576480088401C744908807448C07E64
:10867000030005F07AFA07050930638FB3C8E000FC
:1086800000206E490880D7E06C480088FF217831CF
:1086900088420EDD01F0ECFD00206949C8760846ED
:1086A000407D082805DDFF2212020A21032003F085
:1086B000B3FB6349087FFFF7B5FF00280AD000200D
:1086C0005E49088006205E49C8760846007F4875E6
:1086D00001F0C4FDB0E059480088FF21783188429C
:1086E00010DD01F0A9FD00205549C8760846407DFF
:1086F000082805DDFF2212020A21032003F08CFB6B
:10870000FEF7B8FC4E49087FFFF730FC002814D074
:1087100000204B49C8760846007F487501F09EFD51
:10872000FEF786FB00220A21032003F075FB7F225F
:1087300052020A21032003F06FFB7DE03F480088CE
:108740007D21C90088420FDD01F076FD00203C4903
:10875000C876FF2212020B21032003F05DFB38498B
:10876000087F0121FFF76CF83549087F0021FFF7EA
:1087700067F800280DD000203149C87600220A2170
:10878000032003F049FB7F2252020A21032003F059
:1087900043FB51E0294800887D21C90088420ADD59
:1087A00001F066FD00202649C876FF2212020B2147
:1087B000032003F031FB2249087FFEF7E5FE002885
:1087C0000BD000201D49088006201D49C8767F2255
:1087D00052020A21032003F01FFB2DE017480088F6
:1087E000FF217831884206DD01F026FDFEF72EFCE0
:1087F00000211348C176FFF7DBFB002802D00021DF
:108800000F48C17618E00D480088FF217831884272
:1088100004DD01F02DFD00200949C87600F012F8B2
:10882000002807D000200649C87600220A2103202C
:1088300003F0F2FA00E000BF00BF10BDBEF0FF1F62
:10884000E406002010B544220449002001F03EFB5C
:10885000002800D110BD0120FCE70000B406002074
:1088600010B500201C49487501F0F8FC01210846AC
:10887000FEF7BEFB7D208001174960394880C88221
:1088800000240AE000221820604314490A541820EA
:10889000604340180273601C84B2082CF2DB012193
:1088A000084600F07BF8002408E000F031FD611C70
:1088B000C8B20121FEF730FC601C84B2082CF4DB46
:1088C00000220A21032003F0A7FA7F2252020A2184
:1088D000032003F0A1FA10BDE4060020B4F9FF1F45
:1088E000FEB505460C46A54207D0082D05DC082C30
:1088F00003DC002D01D0002C01D10020FEBD681E3C
:10890000182148432349421807CA6B4607C36946E2
:10891000087810218843611E182251431D4A515C7A
:10892000C906C90F090110221140084369460870A1
:10893000611EC8B26A460021FEF7B6FF691E182301
:108940005943144BC9180A460C32611EC8B20121A2
:10895000FEF7AAFF002612E000F0DAFC6B1EFF27EC
:1089600081377B430B4FC037DB190C277743DA196C
:10897000F1B2631ED8B2FEF74FFD701C86B2202EF6
:10898000EADB6800044A115A2046FFF72DFD01205A
:10899000B4E70000B4F9FF1F86060020F8B50646CC
:1089A0000F460220FDF74AFA122001F047FD002E83
:1089B0000DD0012409E00B226243414BD218511C17
:1089C000E0B2FFF767FB601C84B2092CF3DB962052
:1089D000FFF720FB002417E000F09AFC1821614308
:1089E000374B6433CA18E0B20021FEF75DFF18214F
:1089F0006143334B6433C9180A460C32E0B201219B
:108A0000FEF752FF601C84B2082CE5DB012408E06D
:108A100060002C4A115AE0B20090FEF747FB601C40
:108A200084B2092CF4DB002F0DD0002409E0610092
:108A3000244A1232515AE0B20091FFF7D5FC601C73
:108A400084B2092CF3DB002407E01E4A2832115DB2
:108A5000E0B2FFF7C7FB601C84B2092CF5DB0024F1
:108A600007E0184A3132115DE0B2FFF717FC601CD5
:108A700084B2092CF5DB002416E0002510E000F09C
:108A800047FCFF20813060430F4BC0180C236B4321
:108A9000C218E9B2E0B20090FEF7BEFC681C85B2D5
:108AA000202DECDB601C84B2082CE6DBFEF7C0F95D
:108AB00006480078062802D10320FDF7BFF9F8BD6B
:108AC00050F9FF1F7406002074FAFF1F9CF7FF1F68
:108AD000F8B506460F46002F08D17100174A505AC4
:108AE0006421FBF797FB84B2002509E0012F07D131
:108AF00000247100114A505A6421FBF78BFB85B2A8
:108B000019E0AC4202DD601E84B203E0AC4201DA3F
:108B1000601C84B26420604381B23046FFF7A2FC3F
:108B2000AC4208D1012F05D17000044A115A3046D9
:108B3000FFF798FC00E0E4E700BFF8BD86060020E0
:108B4000FFB597B004460F461A98FCF75AF8002272
:108B5000814B03910290FBF7E4FD00227F4B0591CE
:108B60000490FBF701FE159114902098FCF749F84A
:108B700000227A4B05910490FBF7F6FD13911290B9
:108B80003846FCF73EF80022754B03910290FBF744
:108B9000C8FD0022714B05910490FBF7E5FD119192
:108BA00010901998FCF72DF80F910E9000226D4B44
:108BB00011991098FBF7D8FD02460B4605910490D9
:108BC0000020694905F010FE0D910C9067480CC813
:108BD000002001218907FCF717F8039102900F9BF1
:108BE0000E9AFCF711F80591049061480CC804989E
:108BF000FBF7BAFD0B910A90002001218907139B16
:108C0000129AFCF701F8059104900B990A9806F066
:108C100017FB03910290059B049AFBF7A5FD0991B0
:108C200008900022534B15991498FBF79DFD0246BE
:108C30000B460591049000204B4905F0D5FD0791A6
:108C400006900D9B0C9A09990898FBF78DFD002260
:108C5000494B05910490FBF757FD05460E460D9BC9
:108C60000C9A09990898FBF7CFFF0022424B01911B
:108C70000090FBF761FD03910290079B069AFBF7BA
:108C8000C3FF2A46334605910490FBF76DFD6160F2
:108C9000206008340B990A9805F0D0FA00220123CD
:108CA0009B0701910090FBF7AFFF0122D2075140D3
:108CB00003910290079B069AFBF7A6FF2A463346CC
:108CC00005910490FBF750FD6160206008340D9B16
:108CD0000C9A09990898FBF797FF0022264B0191FF
:108CE0000090FBF711FD03910290079B069AFBF79A
:108CF0008BFF2A46334605910490FBF735FD6160F2
:108D0000206008340D9B0C9A09990898FBF72CFDFC
:108D10000022194B03910290FBF703FD2A463346CC
:108D200005910490FBF720FD6160206008340B99E9
:108D30000A9805F083FA002201239B070391029011
:108D4000FBF762FF2A46334605910490FBF70CFDC2
:108D5000616020601BB0F0BD00709740000059407A
:108D600000C0A2400000444000002440B8CA0100F6
:108D7000B0CA0100000034400000F03F10B50120EF
:108D8000FEF7AEF803220221002003F045F810BDE3
:108D900010B50220FDF752F8042017490870002092
:108DA00003F03EFC292001F049FB072001F046FBBF
:108DB000062001F043FB282001F040FB312001F0A8
:108DC0003DFB322001F03AFB1C2001F037FB0B4841
:108DD00040680121C9038843084948600846406843
:108DE000012109048843054948600846406800039A
:108DF000C00F0349087010BDA8F7FF1F8CF1FF1FBB
:108E000080F0FF1F10B50021232001F037FB232045
:108E100001F0D0FC10BDF8B506460C4615461F46BD
:108E2000232001F00BFB3146002003F093FB2002CE
:108E3000010E002003F08EFB2004010E002003F041
:108E400089FBE1B2002003F085FB05E0FF21002053
:108E500003F080FB28706D1C3846791E8FB2002805
:108E6000F4D1232001F0A6FCF8BD70B505460C46F0
:108E7000232001F0E3FA2946002003F06BFB2002D7
:108E8000010E002003F066FB2004010E002003F019
:108E900061FBE1B2002003F05DFB232001F08AFCBE
:108EA00070BDF8B506460C4615461F46232001F056
:108EB000C5FA3146002003F04DFB2002010E0020D0
:108EC00003F048FB2004010E002003F043FBE1B255
:108ED000002003F03FFB04E029786D1C002003F024
:108EE00039FB3846791E8FB20028F5D1232001F0D6
:108EF00061FCF8BD10B50446232001F09FFA21461D
:108F0000002003F027FB232001F054FC10BD027861
:108F10000B785A4002700A7803785A400A70027837
:108F20000B785A400270704700B503461846083067
:108F300002F0B4FE586801F015FE174800780421CD
:108F400088431549087008460078C021884380305E
:108F50001149087008464078102188430E4948702E
:108F600000BF0D4800790C21084080080228F8D184
:108F700000BF09480079102108400028F9D10648AF
:108F80004078E021884304494870084600798021F0
:108F900008430149087100BD0040064000B5034682
:108FA0001846083002F07AFE586801F0DBFD1048E0
:108FB0000078042188430E49087000BF0C480079EE
:108FC000102108400028F9D100BF0948007940214C
:108FD00008400028F9D006484078E0218843044939
:108FE000487008460079802108430149087100BD96
:108FF0000040064000B503461846083002F04EFE19
:10900000586801F0AFFD10480078042188430E49EC
:10901000087000BF0C480079102108400028F9D1E1
:1090200000BF09480079402108400028F9D00648CF
:109030004078E0218843044948700846007980213F
:1090400008430149087100BD0040064010B50346C1
:1090500000249807800F002802D01E4C204610BD27
:1090600030201D494871002048700A2048721802BB
:10907000000E0872012048700B721804000E48722E
:10908000012000F073F8144840792021084000289E
:1090900002D01048C01D04430F48407910210840F9
:1090A000002802D00B480F3004430B484079C0071A
:1090B000C00F002802D0074810300443064840790A
:1090C00002210840002802D0024811300443204603
:1090D000C5E70000013000000000024070B5064600
:1090E00000241F493046FBF78BF8401EC5B21D48CF
:1090F000407980210840002803D11B4804432046C2
:1091000070BD1848C0784021084000281AD1154881
:10911000C0788021084000280AD01248C078800614
:10912000800EA906890E884202D00F48001D044314
:109130000C48C07880098001A906890E08430949B6
:10914000C8700AE00748C0788006800EA906890E1C
:10915000884202D00448001D04432046D0E70000A6
:1091600040420F0000000240143000000949C96865
:10917000012212041143074AD1608021064A51712D
:10918000002806D000BF04494979802211400029F7
:10919000F9D07047003000F00000024030B50346BF
:1091A0000C4600259807800F002802D0244D284641
:1091B00030BD302023494871002048700620487295
:1091C0001802000E0872012048700B721804000E7D
:1091D0004872022048702004000E48720C7203206E
:1091E0004870200E48722002000E08720120FFF71E
:1091F000BDFF1448407920210840002802D01048C3
:10920000C01D05430F48407910210840002802D0B6
:109210000B480F3005430B484079C007C00F0028AA
:1092200002D0074810300543064840790221084023
:10923000002802D00248113005432846B8E7000054
:10924000013000000000024070B503460C46154690
:1092500000269807800F002802D02B4E304670BDA4
:1092600030202A49487100204870062048721802B0
:10927000000E0872012048700B721804000E48722C
:10928000022048702004000E48720C7203204870BF
:10929000200E48722002000E087204204870280434
:1092A000000E48720D7205204870280E4872280280
:1092B000000E08720120FFF759FF14484079202161
:1092C0000840002802D01048C01D06430F484079CE
:1092D00010210840002802D00B480F3006430B48ED
:1092E0004079C007C00F002802D00748103006435D
:1092F0000648407902210840002802D00248113077
:1093000006433046ABE70000013000000000024099
:1093100010B504F0A9FB10BDFFB58FB004460F4691
:109320001198FBF76EFC039102906A480CC800206C
:1093300001218907FBF768FC01910090039B029AC9
:10934000FBF762FC0591049063480CC80498FBF796
:109350000BFA0D910C900D990C9805F071FF0B9183
:109360000A900D990C9804F069FF09910890099BE7
:10937000089A0B990A98FBF7C7F90022574B0591F9
:109380000490FBF7C1F90791069014211298FAF79F
:1093900041FF0390FBF72DFC02460B46059104901C
:1093A00000204F4905F020FA05460E46002F50D107
:1093B000002121606160083400204849099B089A17
:1093C000FBF7A2F9039102900120C00770400095BD
:1093D00001900B462846029A0199FBF715FC05916E
:1093E0000490079B069AFBF7BFF961602060083480
:1093F00000203A49099B089AFBF786F92A4633462A
:1094000003910290FBF700FC05910490079B069ADC
:10941000FBF7AAF9616020600834002121606160D7
:109420000834099B089A0B990A98FBF77AF90022ED
:109430002A4B03910290FBF774F90122D2075140A5
:1094400005910490079B069AFBF78EF961602060F6
:109450003DE0012F3BD100212160616008342846A6
:1094600031460B9B0A9AFBF7CFFB05910490079BB3
:10947000069AFBF779F96160206008342846314686
:109480000B9B0A9AFBF7C0FB05910490079B069A79
:10949000FBF76AF961602060083400212160616097
:1094A0000834099B089A0B990A98FBF73AF90022AD
:1094B0000A4B03910290FBF734F9FA0751400591EA
:1094C0000490079B069AFBF74FF96160206013B088
:1094D000F0BD0000B8CA0100B0CA01000000F03FB2
:1094E00000002440FFB591B004460F461398FBF7E7
:1094F00088FB039102909F480CC800200121890736
:10950000FBF782FB01910090039B029AFBF77CFB27
:109510000591049098480CC80498FBF725F90B9125
:109520000A900B990A9805F08BFE099108900B9907
:109530000A9804F083FE0791069000208F4905F0F9
:10954000CDFE02460B460191009000208C49FBF7AE
:109550000BF9002201239B0703910290FBF754FBB8
:1095600002460B460591049009990898FBF7FCF810
:109570000D910C90002082490D9B0C9AFBF7C4F8CA
:1095800005460E4614211498FAF744FE0390FBF7A3
:1095900030FB02460B46059104900020794905F006
:1095A00023F90F910E90002F74D100207449079B6E
:1095B000069AFBF7A9F82A46334601910090FBF77B
:1095C000D3F8039102900F9B0E9AFBF71DFB00222C
:1095D00001239B0705910490FBF7C6F861602060AA
:1095E000083400206649079B069AFBF78DF8012294
:1095F000D2074A40039202902A4633460399FBF76A
:10960000B3F8059104900F9B0E9AFBF7FDFA616089
:109610002060083400205A49079B069AFBF774F82B
:109620002A46334601910090FBF79EF80391029081
:109630000F9B0E9AFBF7E8FA002201239B07059186
:109640000490FBF791F861602060083400204C49D9
:109650000D9B0C9AFBF765F80122D2074A40059250
:1096600004902A4633460599FBF77EF86160206036
:109670000834002001218907079B069AFBF7C4FAEA
:109680002A46334605910490FBF76EF8616020602E
:109690006DE0FFE7012F6AD100203949079B069A48
:1096A000FBF73FF82A46334601910090FBF75CF840
:1096B000039102900F9B0E9AFBF7A6FA0022BB07BC
:1096C00005910490FBF750F8616020600834002099
:1096D0002B49079B069AFBF724F82A463346039149
:1096E0000290FBF741F8059104900F9B0E9AFBF74F
:1096F0008BFA61602060083400202149079B069A9C
:10970000FBF70FF82A46334601910090FBF72CF83F
:10971000039102900F9B0E9AFBF776FA0022BB078B
:1097200005910490FBF720F8616020600834002068
:1097300013490D9B0C9AFAF7F4FFFA074A40059279
:1097400004902A4633460599FBF70EF861602060C5
:1097500008340020B907079B069AFBF755FA2A46FA
:10976000334605910490FAF7FFFF6160206015B061
:10977000F0BD0000B8CA0100B0CA010000000840F6
:109780000000F03F00002440FFB593B004460F46B0
:109790001598FBF736FA079106909F480CC80020F1
:1097A00001218907FBF730FA03910290079B069A83
:1097B000FBF72AFA0591049098480CC80498FAF728
:1097C000D3FF0D910C900D990C9805F039FD0B917C
:1097D0000A900D990C9804F031FD09910890002031
:1097E0000121890705F07AFD02460B4601910090A0
:1097F00000208B49FAF7B8FF002201239B07039151
:109800000290FBF701FA02460B46059104900B9972
:109810000A98FAF7A9FF0F910E90002080490F9B3C
:109820000E9AFAF771FF05460E4614211698FAF7BC
:10983000F1FC0390FBF7DDF902460B46059104901D
:109840000020784904F0D0FF11911090002F74D1BE
:1098500000207349099B089AFAF756FF2A463346B7
:1098600001910090FAF780FF03910290119B109AEA
:10987000FBF7CAF9002201239B0705910490FAF730
:1098800073FF61602060083400206549099B089AD5
:10989000FAF73AFF0122D2074A40039202902A4681
:1098A00033460399FAF760FF05910490119B109AD3
:1098B000FBF7AAF961602060083400205849099B31
:1098C000089AFAF721FF2A46334601910090FAF7E9
:1098D0004BFF03910290119B109AFBF795F9002220
:1098E00001239B0705910490FAF73EFF6160206019
:1098F000083400204A490F9B0E9AFAF712FF012202
:10990000D2074A40059204902A4633460599FAF751
:109910002BFF616020600834002001218907099B2A
:10992000089AFBF771F92A46334605910490FAF735
:109930001BFF616020606DE0FFE7012F6AD100200E
:109940003749099B089AFAF7ECFE2A4633460191FB
:109950000090FAF709FF03910290119B109AFBF710
:1099600053F90022BB0705910490FAF7FDFE6160F0
:109970002060083400202A49099B089AFAF7D1FE92
:109980002A46334603910290FAF7EEFE05910490C1
:10999000119B109AFBF738F96160206008340020B1
:1099A0001F49099B089AFAF7BCFE2A4633460191E3
:1099B0000090FAF7D9FE03910290119B109AFBF7E1
:1099C00023F90022BB0705910490FAF7CDFE6160F0
:1099D00020600834002012490F9B0E9AFAF7A1FE6E
:1099E000FA074A40059204902A4633460599FAF749
:1099F000BBFE6160206008340020B907099B089A0B
:109A0000FBF702F92A46334605910490FAF7ACFEBB
:109A10006160206017B0F0BDB8CA0100B0CA010093
:109A20000000F03F00002440002202604260083045
:109A3000026042600830064902604160083000213F
:109A400001604160083002604260083070470000E9
:109A50000000F03FFFB595B004460F461798FBF79E
:109A6000D0F805910490B1480CC800200121890765
:109A7000FBF7CAF803910290059B049AFBF7C4F820
:109A800007910690AA480CC80698FAF76DFE0F9148
:109A90000E900F990E9805F0D3FB0D910C900F9935
:109AA0000E9804F0CBFB0B910A901F98FBF7A9F8D6
:109AB0000022A04B03910290FAF726FE0791069030
:109AC0001E98FBF79EF802460B46039102909749B9
:109AD00003C9FAF749FE05910490079B069AFBF724
