:020000040000FA
:10400000A0130020834100008F4100009141000077
:1040100000000000000000000000000000000000A0
:1040200000000000000000000000000093410000BC
:1040300000000000000000009541000051A50000B4
:104040009941000099410000994100009941000008
:104050009941000099410000994100001993000026
:10406000994100009941000019A100001BA1000026
:104070006DAD000077AD000081AD000095520000ED
:1040800099410000994100009941000099410000C8
:1040900099410000994100009941000099410000B8
:1040A0006993000099410000994100009941000086
:1040B0009941000099410000994100009941000098
:1040C00000F002F800F030F80CA030C808382418CE
:1040D0002D18A246671EAB4654465D46AC4201D140
:1040E00000F022F87E460F3E0FCCB6460126334242
:1040F00000D0FB1AA246AB4633431847AC6501001B
:10410000CC6501000023002400250026103A01D3CD
:1041100078C1FBD8520700D330C100D50B6070477F
:104120001FB51FBD10B510BD00F0A6FF1146FFF76B
:10413000F7FF07F0EDFD00F0BEFF03B4FFF7F2FF5D
:1041400003BC00F0F1FF000070B505460C461646B2
:1041500002E00FCC0FC5103E102EFAD2082E02D36B
:1041600003CC03C5083E042E07D301CC01C5361F7E
:1041700003E021782970641C6D1C761EF9D270BD95
:104180007047094880470948804709480047FEE7CB
:10419000FEE7FEE7FEE7FEE7FEE70000054806490A
:1041A000044A064B70470000F9A700008141000057
:1041B000C1400000A00E0020A0130020A00E00208F
:1041C00001E004C0091F0429FBD28B0701D502803E
:1041D000801CC90700D00270704700290BD0C307AC
:1041E00002D00270401C491E022904D3830702D565
:1041F0000280801C891EE3E70022EEE70022DFE751
:10420000002203098B422CD3030A8B4211D30023D3
:104210009C464EE003460B433CD4002243088B42AD
:1042200031D303098B421CD3030A8B4201D394463A
:104230003FE0C3098B4201D3CB01C01A524183092D
:104240008B4201D38B01C01A524143098B4201D3E7
:104250004B01C01A524103098B4201D30B01C01A12
:104260005241C3088B4201D3CB00C01A524183088C
:104270008B4201D38B00C01A524143088B4201D3B9
:104280004B00C01A5241411A00D201465241104619
:1042900070475DE0CA0F00D04942031000D340428E
:1042A000534000229C4603098B422DD3030A8B42C4
:1042B00012D3FC22890112BA030A8B420CD3890162
:1042C00092118B4208D3890192118B4204D3890148
:1042D0003AD0921100E08909C3098B4201D3CB0186
:1042E000C01A524183098B4201D38B01C01A52413B
:1042F00043098B4201D34B01C01A524103098B423F
:1043000001D30B01C01A5241C3088B4201D3CB0029
:10431000C01A524183088B4201D38B00C01A52410C
:10432000D9D243088B4201D34B00C01A5241411AE3
:1043300000D20146634652415B10104601D3404211
:10434000002B00D54942704763465B1000D34042C2
:1043500001B50020C046C04602BD70477047704797
:1043600030B50346CA02400D1043164D164C0A15CF
:1043700002D02043002A06DBAA1A002A12DDD04010
:10438000FF2A0BDC30BD5205520D01D14000400820
:10439000AA1A07D4D0404042FF2A01DD002030BDD8
:1043A0000028FCDD4A00002B01D0012000E00020A5
:1043B000101801225205D042F0D8C817C0436040FF
:1043C00030BD00001E0400000000008010B500F0A9
:1043D00009F8006810BD10B5044600F003F8046049
:1043E00010BD000000487047400E002010B50020AE
:1043F0000249029A00F067FE10BD00000000F87F3D
:10440000FFFFFFFFFFFFFFFFFFFFFFFFFFFFFEFEBE
:10441000F0B50C46871A9C410D46861A9D4103D281
:10442000C01BA141D21963410D0D1F0DC94EEC1BDC
:10443000AE435CD07F057F0D0026002F51D02D05A7
:10444000AC46A943DD020123ED0A1B051D432023D1
:104450001B1B24D41746E740381871412F46E7400C
:10446000CC199D402818314661410C0D27D161447B
:104470009A4013D50023401C594152000ED14008E8
:10448000400001224B005205D34207D305204007CC
:10449000C14201D5B04900E0B0493046F0BD6B00E3
:1044A000002A00D001229A181F23203C1B1B01D593
:1044B000002302E0E540281871410C0DD7D00124FB
:1044C00024050919C407CD0740084908E40F28430B
:1044D0006144002CD5D00024401C61419A40D0D1C9
:1044E000CDE76A05520DD9D1C90FC907D5E79C4D53
:1044F0004E00002801D0012400E0002434195F00A0
:10450000002A01D0012600E00026BE19954FAC42DA
:104510000CD8AE420AD8B44206D001256D05EC4253
:10452000BCD010461946F0BD9942FCD00020394657
:10453000F0BDF0B51FB40C460F46811A9F412546C9
:10454000861A9D4106D20125ED076F40401ABC41F5
:1045500052187B41210D1E0D8D1BAC467D4D8D43A8
:104560007ED075056D0D7CD00D05AE46AC431B03AA
:104570001B0B794D52429D41202366469B1B14D351
:104580001746F740381800260090744160462F46C1
:104590000741E41900989D402818664116D47146D9
:1045A00071189A4025D5012320E093182A466A41C4
:1045B0005200002B00D0521C1E23203E9B1B002BC0
:1045C00061DD3541EE1728186641E8D500187641BF
:1045D0005B1C9A4000D3401C4B05F3181524E340A4
:1045E00010D3002B52D071467118D30FC01802D3CC
:1045F000491C05B0F0BD0123DB079A42F9D1400800
:104600004000F6E701225205B21801D1002853D02C
:104610000123CC0ADB029943891E002A08D1020C2F
:1046200003D0020C0004103902E0024600202039B9
:104630000023550B05D112020823550B01D152015D
:104640000D23550C01D112011B1DD50C01D1920077
:104650009B1C150D01D152005B1C2025EE1A01E0B8
:104660002CE022E00546F54015439840CA1AE107C0
:1046700069181305C918002ABBDA03204007081877
:10468000C10FC9070FE071466118B2E7F107400892
:104690000843711071444A000CD001235B059A4213
:1046A000A7D2C90FC9070020A3E74905490D26D1A4
:1046B000002001E00028F4D100219AE7284D66008F
:1046C000002801D0012100E0002171185F00002ABC
:1046D00001D0012600E00026BE19224FA94210D8C1
:1046E000AE420ED8B14208D001256D05E94206D090
:1046F0001946A802414010467BE79C4201D0214662
:1047000077E70020394674E710B50C465C4005D5C4
:104710000124E4076340FFF70CFF10BDFFF778FEAC
:1047200010BD30B40C465C4004D50124E40763405E
:1047300030BC6DE630BCFCE670B50124E407614096
:104740000D465D4002D4FFF763FE70BD6340FFF786
:10475000F0FE70BDFF0700000000F0FF0000F07FDA
:104760000000E0FF0000F87FF0B5F94D0C091E09CC
:104770002C402E402F468BB0A7437DD0B543FCD0B4
:10478000002E7AD0002CFCD00D465D40ED0F254365
:10479000AC1BFF25AD0464190894C502440DC90281
:1047A0002143500DDC0204430120C00701430443B0
:1047B000D2020191200C110C00958C460104234675
:1047C0008B430A9161460904E24D8A430991010A2B
:1047D0007D4449198039097805464D4301266D18F5
:1047E000F605751B6943C90C640B891C4C4364189E
:1047F000B5012C1B250C2E04B4434C434D43210C16
:10480000691889090591009DE90701D00121C907AF
:1048100004912C4601996708CD072F434C08059D4C
:10482000E10B4D432D0C29466646754302950D4616
:1048300045432E46029D7D1BB44100950D465D43C8
:1048400001942C0C2F040D465543AE462D0C3D43D0
:10485000029503947546049C2D04641B049406D2AF
:10486000029C039D641C002675410395029401ACD3
:1048700070CC009F7D1B01E03EE162E1B441090480
:104880000095079101940599A4086143090C0C4611
:104890004443650BE7040C4666467443A646640B26
:1048A0003C43039502947446049DE4042C1B049439
:1048B00006D2029C039D641C002675410395029458
:1048C00001AC70CC009F7D1BB44101940C465C434D
:1048D0000095650FE7000C465443A646640F3C4321
:1048E000039502947446049DE4002C1B049406D2A4
:1048F000029C039D641C002675410395029401AC43
:1049000070CC009F7D1BB441AE09AF06049DC90069
:10491000AD092F43049DA406AD060495079D3443BD
:1049200069180791059DE10B4D432D0C29466646FC
:10493000754302950D4645432E46029D7D1BB441AD
:1049400000950D465D4301942C0C2F040D465543F4
:10495000AE462D0C3D43029503947546049C2D04F0
:10496000641B049406D2029C039D641C00267541BE
:104970000395029401AC70CC009F7D1BB44101945F
:104980008C050694079C890A611800950791019C83
:104990000599A4086143090C0D464543680BEF04D3
:1049A0000D46644665436C0B3C43049FED047D1B40
:1049B000AC4602D20025641C6841009E019D371B55
:1049C00085410846584301950C46460FC50054439F
:1049D000600F28436546E4002C1B02D20025401CD2
:1049E0006E41019D3F1AB5412846BD098006284306
:1049F0008446A009BF064E020699A406761807430E
:104A0000079D002068410A99079019430020099BDF
:104A100000906046FF1913434041E20F64003A439F
:104A2000A4460446D71A8C41A04203D90120009025
:104A300020463A46C70F941840416246D20F22439F
:104A4000644664000494009CBE466400D71AA446E1
:104A5000044602978C417746002F01D1A04204D929
:104A60006046401C8446029A2046C40FA64694180D
:104A70004041049A0546D20F224364466400D31A8B
:104A80008D417146002901D1A84202D928461A4613
:104A9000641C10430122002800D01643610200204C
:104AA000079B891904465C410223002C02DB49184C
:104AB00013466441089DCE0A2D145D194B05670508
:104AC000E10A2C050D1908993E43C9076940002BDE
:104AD00008D0934006D30022761C5141002B01D10F
:104AE000760876001C4A002D43DB154241D0AA43CC
:104AF0003FD030460BB0F0BD06180D464D41174C67
:104B00007642AC411AD395181C465C41134A6D425B
:104B1000A24113D3012252054C00D4420AD15C00B9
:104B2000D4420BD04B4002D592021143E2E7490038
:104B30004908DFE75940C90FC90718E000200849B4
:104B4000D8E7054801420DD10342F7D0F2E7000053
:104B50000000FF07A45C01000000F07F0000E0FF00
:104B60000000F87F114859400143C0124140002025
:104B7000C0E70123089A9B069A4205DC03225207EC
:104B80008918C90FC907B5E7052252078918074ACE
:104B90001143D2125140ADE770B515461C4602468E
:104BA0000B4628462146FFF7DFFD70BDFFFFFF7F64
:104BB0001F22030C02D10F22000402D0030E03D0E7
:104BC00004E00020014670470002083A030F01D1BB
:104BD0000001121F830F01D18000921E002801DB0B
:104BE0004000521E120551184205C01241181046CD
:104BF0007047C10FC90700D04042012292071143FC
:104C0000D6E701218907D3E7F0B58B4C0F0925467C
:104C100089B0BD437BD01D092646AE43FAD00E466F
:104C20005E402740F60F3E43254071D024012142CB
:104C3000FBD0FF24AD19A4042D1B039501252D05E0
:104C4000DB02DB0AC9022B43C90A29431E01090101
:104C5000040F130F050121431701880B82039143B1
:104C60002D098C46A90B1E438A039543B30B9A0367
:104C700096433F09BA0B9403A74302962E467E4300
:104C80000497B6464E19D7190C460196544305971A
:104C90007E43371B7646BF1B3601B646BE0B361920
:104CA00000967646BC043719009C01D3641C00941E
:104CB0006400002F01D001263443029E049F7543F7
:104CC00066467E430496760034196E0034190094CB
:104CD000029C019E1C196643751BAE4606946546F0
:104CE0004519059C05956C43594375460891691A09
:104CF0000191049E01465143A41B0491611A009C3A
:104D00000791E10605D061090122114302E072E03A
:104D10006EE06109089D00272C0A2D066918049D84
:104D20007C412A0A2D066918019D6241AC0DAD0235
:104D30006D185441079A910D920255196141029ADA
:104D4000644658435443069B059A5A43121A131B50
:104D50009A0E9B015B187A41010B0005C318514163
:104D6000220A200644195A419A4200D2491C0120C5
:104D70004002814203D315230226F64302E01423A6
:104D80000326F6432020C51AA9401746AF40DA4053
:104D90000A4320460399D84009147318190551187D
:104DA000039A3843D2075140AC4009D001229440C5
:104DB00006D30022401C5141002C01D14008400084
:104DC0001E4A934212D3012203989206904207DBB7
:104DD0000520400709181A480143C012414004E069
:104DE000032040070818C10FC907002009B0F0BD13
:104DF0000020F107FAE705180C464C4111486D42B6
:104E0000A04115D394181A465A410E486442904165
:104E10000ED301204A004005824209D35A00824243
:104E200006D35940C90F084AC90700201143DDE7DE
:104E300000200649DAE700000000FF07FE07000037
:104E4000FFFFFF7F0000E0FF0000F07F0000F87F21
:104E500070B505464800440D124B0020002C0AD0C6
:104E6000634008D09A4206DA6642B24203DD120578
:104E70004019514170BD002C08D0002B09D0C90F3A
:104E8000C907002AF6DB084A114370BDC90FC907DC
:104E900070BD28460A03104302D00020034970BDAC
:104EA000284670BDFF0700000000F07F0000F87F7B
:104EB000F8B5224C4E00069DA6420AD8A64201D162
:104EC000002806D15E00A64203D8A6420AD1002AD5
:104ED00008D00D24240425422CD02946002000F0BF
:104EE000AFF8F8BD0C461C430CD4994202D0EFF346
:104EF0000080F8BD904202D0EFF30080F8BDEFF3E0
:104F00000080F8BD09242407E5008B4206D0EFF3AA
:104F10000080A043591A06D2284304E0101A05D392
:104F2000EFF30080A04380F30088F8BDEFF300802A
:104F3000A043F1E70095FFF759FAF8BD0000E0FF44
:104F4000F0B53D4B02460C461C400020002C63D0BF
:104F50003A4D8B4366D000296BDB0B0D1D05A94331
:104F600001252D0529430124FD33E34001D3921887
:104F70004941FF3381339C468B02940D0121234329
:104F800089074C42920200271B198C105D1A04D429
:104F90002D1B02D42B466500491992185B41640809
:104FA000F4D15C1A08D40125ED07EE1755197441A8
:104FB00002D42A462346491C94185B4101229207D9
:104FC0001D46E61B8D4106D4B61A854103D42B46F7
:104FD000550034467F1924195B415208802AEFD1CD
:104FE000234300D0022338460A22D04001D30122B5
:104FF00013438A0510436246890A12058918002B5B
:1050000009D00122D34002D30022401C5141002B81
:1050100001D140084000F0BD0B03134307D0C90F76
:10502000C907F0BD0803104303D1002901DB104676
:10503000F0BD00202946F0BD0000F07F0000F87FA1
:10504000C80212D54803400F002804D0C803C0434B
:10505000012188407047EFF300800001000903211F
:105060000907084380F3008870470020704700005C
:1050700000487047400E00207546FFF7F9FFAE4626
:10508000050069465346C008C000854618B020B5E3
:10509000FFF784F860BC00274908B6460026C0C563
:1050A000C0C5C0C5C0C5C0C5C0C5C0C5C0C5403DE0
:1050B00049008D46704710B50446C046C04620469C
:1050C000FFF73BF810BD10B50C461107090F092971
:1050D00004D00A290AD008290CD104E0114608207E
:1050E000FFF7AEFF06E0510606D501E0510601D5F7
:1050F0000120C007214610BDD10607D501010909CD
:10510000CC084907000E0006044309E0410F2002C5
:105110004907000A0143200E00061D22D141014328
:105120000846E7E77047000001491820ABBEFEE7DC
:105130002600020070B58C180578401C6B075B0FC9
:1051400001D10378401C2A1106D10278401C03E0EB
:105150000678401C0E70491C5B1EF9D12B0705D444
:105160000023521E0DD40B70491CFAE70378401C33
:10517000CB1A921C03E01D780D70491C5B1C521E5B
:10518000F9D5A142D8D3002070BD000070B54620EB
:1051900003F024FF002817D000200F4B0F4C18708D
:1051A000616800250A07D20F904212D05A78521C2B
:1051B000D2B25A70192A0BD308225D70002805D08C
:1051C00050040143114302E00120E6E7914361608E
:1051D00070BD5D7070BD0000ACF0FF1F88F1FF1F57
:1051E00010B50121462003F015FE022200210248DD
:1051F00007F0DEFA10BD0000ACF0FF1F10B500286C
:1052000007D0012801D0022803D18021002000F01E
:1052100012F810BD10B50021062003F0FBFD00219F
:10522000282003F0F7FD00212C2003F0F3FD2C20B3
:1052300003F0BCFE10BD70B504460D462C2003F0F3
:10524000D1FD0821012005F003F82146012004F0DA
:10525000FFFF2946012004F0FBFF2C2003F0A6FEEF
:1052600070BD000000B51F2100F0B5F8024841698B
:1052700082039143416100BD0080044010B50C469B
:105280000146034800F08CF82080012010BD00008A
:1052900000B003407047000030B504463C480D465E
:1052A000844204D13B484169820311434161297919
:1052B000204600F080F86979204600F084F8A9794A
:1052C000204600F098F8E979204600F08CF86888CC
:1052D000A061287801072020002902DA61680143D3
:1052E000616029781023C906002902DA6168194330
:1052F00061602978890702D52168014321602988E6
:10530000C90502D5E1680143E16028780106402023
:10531000002902DAE1680143E1602978490702D5F2
:105320006168014361602978CA070121002A05D01C
:10533000226802432260184AC80310602878400699
:1053400002D5A0681843A0602878800603D5A0681D
:1053500080221043A060288882051048E26801D5A9
:10536000024300E08243E260288842050220002ACE
:10537000E26901DA024300E08243E2612888000525
:10538000E06901D5084301E040084000E06130BD1C
:1053900000B003400080044000E100E00001000094
:1053A00000B5034600F017F8802219681142FCD0BE
:1053B000186980B200BD8268890792089200890F3F
:1053C0001143816070478268602389079A43490EC0
:1053D0001143816070470268C90652095201C90E23
:1053E000114301607047C2684907D208D200490FD3
:1053F0001143C160704782680C2389079A43090FE3
:1054000011438160704710B500212F2003F002FD89
:1054100000212D2003F0FEFC0021152003F0FAFCF2
:1054200002210D2003F0F6FC10BD10B50021312043
:1054300003F0F0FC0021322003F0ECFC02213320C9
:1054400003F0E8FC10BD000070B51D2003F0C6FDA0
:10545000002816D000200E4B0E4C187061680025F5
:105460004A03D20F904211D05A78521CD2B25A70CD
:10547000192A0AD3012292045D70002803D0114337
:1054800002E00120E7E79143616070BD5D7070BD8F
:10549000AEF0FF1F88F1FF1F0348024981600349F6
:1054A000C1607047D9AC0000A4F7FF1FFDAC00003D
:1054B00004490A78032A03D1C968002900D00847A3
:1054C00070470000A4F7FF1FF8B50020124E134DDF
:1054D000707104460127285D03F03CFE002809D0C6
:1054E00070790028285D02D0B070347106E07070C9
:1054F0007771F470641CE4B2042CECD3F0780428C7
:1055000008D081000548001D4058002800D0804781
:105510000120F8BD0020F8BDA4F7FF1FD0CA00008D
:10552000002040688047FEE7F0B5994E91B0307991
:10553000B41DF02802D2FF2000F090F930790C2839
:1055400048D013DC934D012820D0082879D00A28B0
:105550001AD170790D2817D18F4861780173A1781D
:105560004173207800020D3082B28DE00E280BD0FE
:10557000FF2809D18648F1788030C07E814203D16E
:1055800086480021C174817411B0F0BD7079012189
:105590008905012812D0102817D01128F4D1B1782C
:1055A0001E20C91F03F046FDC2B27D48214602708D
:1055B000401C07F0F2F811220121D9E0686811229D
:1055C000884301216860084601E06868DDE004F076
:1055D0008FFBD9E7724D72792035082A73D009DC28
:1055E000704F130005F0D5FD08051B525760697018
:1055F0008005C9E70C2A0DD006DC092A70D00A2ADA
:105600006FD00B2AC0D197E0872A6DD08B2A6AD041
:105610008C2AB9D12078287360786873A7E0207845
:10562000FF250E35604C02281AD00BDC0028ABD0C9
:105630000128A9D158482038007E01280AD001212C
:1056400009E097E0032811D0F1289DD10002401C09
:1056500082B28CE00021002001F074FE082213E0E9
:1056600021782820491C03F0E5FC03E0207800287D
:1056700000D0401EC0B2207005F004FD2A460A2169
:10568000032004F035FB06220A2171E020782874FB
:105690000002801CDCE7207868740002C01C82B223
:1056A0000C21032004F024FB3E4802222146801EE8
:1056B00007F073F80222A11C01E0022221463846BD
:1056C00007F06BF852E014E0B1783120C91F03F005
:1056D000B1FCC2B2334821468C3002730D30EFE783
:1056E00012E01DE000E027E02078A8736078E873FE
:1056F0003DE0B1783120C91F03F09CFCC2B22948BB
:10570000AA752146C01CDBE7B1783120C91F03F020
:1057100091FCC2B2234821462C3002720930CFE7F7
:10572000B1783120C91F03F085FCC2B21D48214663
:105730004C3082761B30C3E7207869460870607869
:105740004870B1783C20093903F074FCC2B2694654
:105750008A7000A8A11C033007F01FF801226946D7
:10576000124804F02DFB002800D10DE772790C21BE
:1057700003202CE770790128F7D1122003F032FBC7
:105780000B4804F0C4FD6868022108436860FBE62A
:105790007A0B002088F1FF1F500600209A0C002091
:1057A000BC060020F0060020D8F0FF1F9CF0FF1F71
:1057B00055AA55AA70B5284D00262C46803445E0E0
:1057C000E07D002806D001280ED0022816D003283C
:1057D0003CD122E001222049104605F0EAFB28785E
:1057E000AA2833D1012016E00122691C104605F0D9
:1057F000E0FB687855280BD102200CE00122A91C9F
:10580000104605F0D6FBA878A075C01E942801D3D9
:10581000E6751BE00320E07518E0A07DE91CC01EC2
:1058200082B2012005F0C5FB002814D0A07D401EE7
:10583000C1B2094803F0E4FB0749A27D491E515C4F
:10584000884201D1FFF770FEE675A675012005F0CC
:10585000ABFB0028B4D170BD7A0B00201CB55521DC
:105860006A461170AA215170062191700749C978C2
:10587000D17010710521684603F0C2FB6A46507171
:1058800006226946012005F0AAFB1CBD7A0B002008
:1058900070B5044602224EA106F06EFF002812D019
:1058A000A0782B2816D045280DD049280BD10722E7
:1058B00048A1E01C06F060FF012805D0062247A1A0
:1058C000E01C06F059FF70BD012004F029FF0A22F8
:1058D00044A152E0082246A1E01C06F04DFF012839
:1058E0002DD0052245A1E01C06F046FF01282FD04F
:1058F000052244A1E01C06F03FFF0128E3D1434903
:105900002034607A0A789042DDD00870E07A31283D
:1059100048D0FF250E353E4C322853D03328D2D103
:105920002078002800D0401EC0B2207005F0AAFBED
:105930002A460A21032004F0DBF906223DE0214635
:105940000C220B31334806F028FFFF220D3234E0E1
:105950002046072230A1083006F00EFF002810D0A4
:10596000204604222EA10D3006F006FF01280ED09D
:10597000012004F0D5FE0D222BA1002005F02FFB05
:1059800070BD012004F0CCFE11222BA1F5E701200F
:1059900004F0C6FE11222DA1002005F020FB02F02C
:1059A00017FCFEE72E48007E012801D0012100E00F
:1059B0000021002001F0C6FC08220A21032004F087
:1059C00097F970BD21782820491C03F033FBABE721
:1059D0000D0A00004D5F5245414459004D5F47415B
:1059E0005454000041542B4E414D453F0D000000E2
:1059F0004C4244414444523A000000004E414D455F
:105A00003A0000005343414E3D000000B2F0FF1F3A
:105A1000D8F0FF1FAE0C00204453505F44534400A5
:105A20005F4556410000000041542B4C4244414424
:105A300044523F0D0000000041542B4E414D453D66
:105A40004453505F4453440D0000000041542B4622
:105A50004143544F525952455345540D00000000E4
:105A60003006002010B5002808D0012806D00228F2
:105A700005D0032802D1002004F07AF810BD0120DF
:105A8000FAE7000010B502211D2003F0C3F902223D
:105A90000021024806F08CFE10BD0000AEF0FF1F92
:105AA000F3B500260C4681B00D464034A4E002F068
:105AB0008FFB607C102845D008DC00280FD001281F
:105AC00020D0022828D003283BD12FE0112845D030
:105AD000202869D021287BD0302832D193E00122C0
:105AE0002946019805F065FA2878AA2804D00D28DF
:105AF00004D0442825D103E001207CE002207AE094
:105B0000032078E00122691C019805F052FA6878B8
:105B100055286DD110206EE00122691C019805F016
:105B200048FA68780A2863D1202008E00122691C1D
:105B3000019805F03EFA6878422859D13020607407
:105B4000267459E00122A91C019805F032FAA878C0
:105B50002074C01E4E284BD211204CE0207CE91C42
:105B6000C01E82B2019805F024FA00281BD0207CC8
:105B7000401EC1B2284603F043FA0146227C681E4B
:105B8000105C81420DD1244801780198814206D0F1
:105B900000F076FC227C2946204806F0FEFD00F04D
:105BA00001F966742674FEBD217CAF1CC91901225F
:105BB000019805F0FEF9207CC15D0D2906D0401C3E
:105BC000C0B22074322817D312E001E0212012E085
:105BD000217CEF1CC9190122019805F0EAF9207C0B
:105BE000C15D0A2904D1002804D02846FFF750FEE1
:105BF000667401E020206074019805F0D5F9002852
:105C000000D054E7FEBD0122A91C019805F0D1F98E
:105C1000A87800F0E3FCEBE7B3F0FF1F0AF8FF1FE2
:105C200010B50021072003F0F5F810BD70B51C4930
:105C3000044688881B4A401C80B28880157800235F
:105C4000012D0DD0282804D38B802079EF21084026
:105C50002071204603F062FC204603F08FFC70BDEB
:105C60008B801370207910210843207151784B00EC
:105C7000C9180B4B5433595C217051784D004919A8
:105C8000C9184978617081085078890042008018ED
:105C9000C01880788007800F01432171D9E7000088
:105CA000DCF0FF1F8AF0FF1F10B504F081FB10BD70
:105CB00010B506F003FE10BD10B504F09FFB10BD3B
:105CC00010B5074803F011F80548403003F00DF80F
:105CD0000348803003F009F802F0EFFF10BD000028
:105CE00000F00F4010B50120800306F03BFE10BD10
:105CF00010B5054C0020214604F0F4FB214601209C
:105D000004F0F0FB10BD0000801A060010B506F08C
:105D10000BFE10BD0948002181610949416107213D
:105D200001610848C16903220902090A9207114367
:105D3000C1610549400708607047000000E000E0CD
:105D4000FF70020004ED00E000E100E010B5E12486
:105D500064022146002004F07BFC2146012004F06F
:105D600077FC2146022004F073FC10BD70471CB57F
:105D700069460888042108431821884340210843C4
:105D8000FF21833188436946803008807D204001AF
:105D9000488000208880684605F0A6F905F086F95D
:105DA0001CBD0000FEB5F74F3879BC1DF02802D2AB
:105DB000FF2000F047FB39790C2977D017DC012947
:105DC00032D0F14E082972D0F04A07206F234002EA
:105DD0005B011018D5180A2935D00B2918D179790B
:105DE0000B0005F0D6F905F5F4F3F2F115000F29D3
:105DF00072D0F0290DD0FF290AD1E248F97856383F
:105E0000C078814204D1DF48002116384175017500
:105E1000FEBD78790028FBD1DD4801210170617851
:105E2000417021788170FEBD7879042808D011284E
:105E3000F9D111220121032003F05AFF1122F3E1CD
:105E4000032201213DE2CF49D24F4A790C2A71D079
:105E50000ADC130005F09DF90C2C4BABBDE4FEFDF4
:105E6000FCFBFAF9F807DEE7862A70D014DC832AF7
:105E70006ED009DC0D2A6CD00E2A6BD0822AD2D1CA
:105E800020780002801CFCE1842A7CD0852ACAD1BB
:105E900020780002401DF4E1873A130005F079F9FB
:105EA00008F9F8F7050505F6F505BCE771E2A1E28A
:105EB000E87E00280FD1207800280CD001280CD0D3
:105EC0000228B0D17068000303D40220E87660781D
:105ED000287701225202BBE189E27068000303D4F3
:105EE0000120E87660782877FF220132B0E120783F
:105EF00000280ED001280ED0022812D003282AD064
:105F0000042830D0052845D006288CD101F0E6FCC5
:105F1000FEBD01229CE170680003F9D400F0DAFBB9
:105F2000FEBD60780028FBD0716809033BD400F007
:105F3000BBFC38E05DE101214001C9032038084382
:105F4000B8E001214001C90320380843B9E0E9E085
:105F500062E05EE182E160780028E1D071680903C7
:105F600021D401211DE060780028D9D0716809038F
:105F700001D400F03FFE60780A214002FF38FE386D
:105F800082B2032000E085E003F0B2FE60784002B8
:105F9000FD3876E160780028C2D07168090302D428
:105FA000002100F0E9FB6078C107CAD0C3E7706840
:105FB000000303D42078A11C01F07CF920780102B1
:105FC0007048407908185CE1CCE1ADE193E186E1ED
:105FD0005DE170680003F1D4607869460870A078CC
:105FE0004870E07888702179E07909064018617975
:105FF000A27909041202891840180190207A617A66
:10600000000240186946088120786A46C107C90F16
:10601000400800F041FED1E720780002C01C30E1CA
:1060200070680003CAD4607869460870A078487028
:10603000E078217900024018694648806179207A29
:1060400009064018A17906E0B5E093E086E079E022
:106050006CE043E037E0E279090412028918401845
:106060000190607AA17A0002401869460881E07ABE
:10607000217B000240186946488120786A46C106A3
:10608000C90E400900F06AFC98E7FCE0E2E06DE030
:1060900060E053E02078C143C90602D00002001D31
:1060A000EFE08106890E202906D24109012049012D
:1060B000C0030818F886FEBD410901204901C0034C
:1060C00008183887FEBD70680003A4D46078A178F2
:1060D00000024118207800F019FB6FE77068000398
:1060E00010D42078002806D1E17822790902891895
:1060F000284A403AD1826178A2780902891889B287
:1061000001F056FA207801021E484079081882B240
:106110000A21032003F0ECFD20780028D2D100F002
:10612000D9F9FEBD20780002801DAAE07068000346
:10613000AAD46178207801F0AFF93FE72078000217
:10614000C01D9EE0706800039ED46178207801F045
:10615000F9F833E720780002083092E07068000315
:1061600092D42078611C01F001FA27E72078000220
:10617000093086E02278027261784172104601F09F
:10618000E9FB22E00AF8FF1F88F1FF1FB0F8FF1FAC
:106190008AF0FF1F700600209C480A2142790320E4
:1061A000FF3201328EE099480A2142790320FF3202
:1061B000FF32023286E020789549012808D0022873
:1061C000AFD10870601C03F0B7F80028EBD0E3E70C
:1061D0000870601C03F0B0F80028E4D0E01D04F063
:1061E0008FF80028D8D18948032140790902421844
:1061F0002EE02078012894D186480078002805D028
:106200000D2285A1002004F0EAFEFEBDFF220D3222
:106210001EE0207801280AD00228F6D18248617851
:106220000173A17841730522012101204AE07068C1
:10623000000302D4607804F025FF2078010273483F
:106240004079081882B20A21032003F051FD06228A
:106250000A2136E0207800020D3012E02078012576
:10626000ED04012808D0022800D0A7E601F004F9C7
:106270007068A8437060A1E601F0D6F87068284302
:10628000F8E782B2E4E7207800020E30F9E72178DF
:10629000FF22120201290AD0022916D08129B4D185
:1062A0000021297701606977A977E97758E0E87ECE
:1062B000002805D16078002802D0287703200CE060
:1062C0000B21032003F014FDFEBDE87E0028F7D16A
:1062D00060780028F4D028770420E876FEBDE97EB7
:1062E0000329FBD12278297F8A42F7D14F4A0260E5
:1062F0000802401C16E0E97E0329EFD121782A7FAD
:106300009142EBD1617869770068491C03463F33BD
:106310009B09994202D38006800E00E04020A877B6
:106320001002801C82B2CBE7E97E0429D6D1217805
:106330002A7F9142D2D16278217912068918A278F7
:10634000E37812041B02D218891801606279217A5D
:1063500012068918A279E37912041B02D21889184F
:106360004160FEBDE87E0428FBD12078297F884269
:10637000F7D16178687F8142F3D12D4980014018BF
:10638000B97809398AB2A11C06F007FA0120E8772A
:10639000FEBD79792748012904D00B2919D08B2912
:1063A0001FD116E02278802A04D0812A07D0822AC1
:1063B0000AD016E062780270A278427011E062782A
:1063C0008270A278C2700CE062780271A278427189
:1063D00007E02278027262784272A2788272E278D2
:1063E000C27220780002401882B20C211DE70A22F6
:1063F00011A107E778790128CAD1122002F0F2FC36
:106400007068022108437060FEBD00000AF8FF1F9B
:1064100089F0FF1FB3F0FF1F41542B4C424441440D
:1064200044523F0D0000000050060020AC0D00005B
:10643000B0F8FF1FDC06002041542B4F54413D3182
:106440000D0000001CB555216A461170AA2151703B
:10645000062191700849C978D170107105216846EC
:1064600002F0CEFD6A465071044806226946007863
:1064700004F0B5FD1CBD00000AF8FF1FB3F0FF1FBC
:1064800010B51049C97E002916D10F4C6178884299
:1064900001D1611C04E0A178884204D10A49891C19
:1064A000094801F01CFD2078022806D0012806D0FA
:1064B0000020C04303F02BFF10BD0448FAE7044856
:1064C000F8E7000090060020B3F0FF1F5555AAAA78
:1064D00055AA55AA10B50B490B4A4988002043001C
:1064E000D35A994208D20949FF2208700E320A2174
:1064F000032003F0FDFB10BD401CC0B22828EED9DC
:1065000010BD0000300600209AA20100D8F0FF1F45
:10651000F8B50B4802F092FD00250227094C012630
:10652000002803D027706570A670F8BD064802F0F9
:1065300085FD0028F9D026706570A770F8BD0000B1
:106540005555AAAAB3F0FF1F55AA55AA10B50024A5
:10655000204600F005F8641CE4B2042CF8D310BD0A
:10656000034910B50001401803F054FC10BD0000B1
:1065700048F1FF1F70B50446007907220007850F18
:106580000021204606F014F92079F3210840A900E3
:106590000843207170BD10B50021292002F03AFC9B
:1065A0000021122002F036FC0021372002F032FCDC
:1065B000372002F0FBFC122002F014FC10BD00009A
:1065C00010B50221452002F025FC022200210248DC
:1065D00006F0EEF810BD000071F0FF1F10B5FF24AB
:1065E000F534030004F0D5FD07070508101820282E
:1065F000070005F081F910BD292002F0F3FB2046C9
:1066000004F08EF829201EE0062002F0EBFB204665
:1066100004F086F8062016E0282002F0E3FB20466E
:1066200004F07EF828200EE0072002F0DBFB204675
:1066300004F076F8072006E0312002F0D3FB204674
:1066400004F06EF8312002F0B1FC10BD10B5044624
:1066500000F09AFF002C01D000F0D4FD00F0A8FA61
:1066600000F0C2F800F076F8002C01D001F020F81C
:1066700000F0CAFE00F032FF10BD0000094810B55E
:10668000002102464175203AD18611870175C176F5
:10669000FF21817600F008F801210846FFF7D6FFB8
:1066A00010BD00009006002070B5074D074E002475
:1066B000E000401980190822054906F06EF8641CB4
:1066C000E4B2082CF4D370BDB0F8FF1FB40D000085
:1066D0002CA0010010B50C490020487502F0D4FA36
:1066E00001210846FFF7B2FF0121084601F08CF9AD
:1066F00000220A21032003F0FBFA7F2252020A2122
:10670000032003F0F5FA10BD9006002038B50C46C2
:1067100000210091082817D8002815D0210E6A46BC
:106720001170210C5170210A91704500D4700748F6
:106730006B46415B0422002003F08CFC04483521A9
:10674000281889014018048638BD000008A00100FF
:10675000B0F8FF1F002010B5064A352301469B0103
:106760004400A418E418401C80B221860928F7D3FD
:1067700010BD0000B0F8FF1FF8B50F46082823D859
:10678000002821D0401EC6B2FF20164981300024C7
:1067900070434518012F19D00C2060432818FF3092
:1067A0006130017C0122114301740C2060432A18DE
:1067B000FF3221463046713200F0D0F8641CE4B25A
:1067C000202CE7D30120F8BD0020F8BD642003F0A1
:1067D000B2FF0C2060432818FF306130017C49086B
:1067E0004900E1E7B0F8FF1FF0B500242646FF227C
:1067F000134981320020624355180C214143691826
:106800000B46FF33613301221A740A465E744B2330
:10681000FF325B014132538687000A4BFF31DB595F
:1068200001314B67084911878D21401C80B2518787
:106830002028E2D3641CA4B2082CD8D3F0BD0000F9
:10684000B0F8FF1F98A00100DC05000070B5134CE4
:10685000E28E100421D5124B1878401CC1B21148A9
:1068600019700078042903D3022805D0012803D029
:10687000082912D3002810D11002001D002582B271
:106880001D700A21032003F033FA002805D0E08EA2
:10689000401CE086C00600D1E58670BD7006002071
:1068A000BCF0FF1FB3F0FF1FFEB5082821D8002859
:1068B0001FD0401E0022C6B210460121084369467F
:1068C00008704B204A70400148800B4808818D2099
:1068D0000A4D48811446A000285801906A46214676
:1068E000304600F03BF8641CE4B2202CF3D30120C6
:1068F000FEBD0020FEBD0000DC05000098A00100E8
:1069000070B5134C228F100421D5124B5878401CBF
:10691000C1B2114859700078042903D3022805D068
:10692000012803D0082912D3002810D11002001D1D
:10693000002582B25D700A21032003F0D9F90028F6
:1069400005D0208F401C2087C00600D1258770BD50
:1069500070060020BCF0FF1FB3F0FF1FF0B591B030
:1069600014460D46064608282ED21F2D2CD24B2247
:1069700061889201002002F03DFE60803D4A0020C7
:10698000616802F037FE606021893B4A002002F016
:1069900031FE2081192261899201002002F02AFE35
:1069A00071002A09891880B2344A60814900525A1C
:1069B0002907090F8B00C91851188FB22178C90710
:1069C0000DD06178002902D0002011B0F0BD0090F8
:1069D0002389618802A8626801F0DCF80FE0FF20DB
:1069E0002D3003F0A8FE002002900390049024496B
:1069F00005900690089009900A9007910B902078D6
:106A0000C0060AD50122D207059903985140059185
:106A1000504007990390514007910CAA039902989E
:106A200003F072FA0DAA0599049803F06DFA0EAA04
:106A30000799069803F068FA0FAA0999089803F0D5
:106A400063FA10AA0B990A9803F05EFA0CAB0522C0
:106A50003946002003F08CFAFF2081300C21464398
:106A60004D4308480ECC30184019FF3071300EC02D
:106A70000120AAE700770100B80B000018A101006F
:106A80000000F03FB0F8FF1FFEB5474E474BB0780F
:106A90000725401CC0B2B07000906F2040011C1848
:106AA0007278207F01906D0200025D19C11C001DEB
:106AB0002F68130004F06DFB05040D1D3F58750091
:106AC0008AB20B21032003F013F90020B0700120DB
:106AD0003FE0002F06D082B20B21032003F008F91B
:106AE000022036E000980A285BD30020B0708AB2FA
:106AF0001CE0E17F002913D0617F3F37BA09491CB0
:106B0000914202D30320707007E00022B2706177D7
:106B100082B20B21032003F0EBF80020E07740E085
:106B2000009932293DD30021B17082B20B2103209C
:106B300003F0DEF835E000221C48114603E003783C
:106B4000401C9A18491C8F42F9D86868904202D1BB
:106B50000420707025E000207070B07028606077AD
:106B6000A077E07768601CE0019800F0F5FD002850
:106B700017D0002701217770084600F045FF207FDD
:106B8000607502F081F827772F606777A777E7773E
:106B9000412252020B2103206F6003F0A9F801206B
:106BA000FEBD0020FEBD0000B6F0FF1FB0F8FF1FC5
:106BB000F0B500210D4E03250C461427182048433C
:106BC00082191046A030012303740377457445777A
:106BD000857485772038064B47630364C032491CAF
:106BE000048789B294800829E8D3F0BDB0F8FF1F6C
:106BF000204E00003EB508281DD800281BD0401E9E
:106C0000C4B200221046012108436B4618700321CC
:106C100059709970142101911A816A460021204609
:106C200000F03AF8054801906A460121204600F03C
:106C300033F801203EBD00203EBD0000204E000084
:106C400070B506460020124D012900D12870297820
:106C5000104C002902D0012914D110E0304600F078
:106C6000A7FA00280ED0667502F00EF8FF22013256
:106C70000B21032003F03CF80120287002E0217F63
:106C8000002901D0002070BD2870012070BD0000D7
:106C9000B6F0FF1F90060020F0B5B5B00E460546D1
:106CA0001446142130A8FDF7A9FA082D2BD2022E84
:106CB000FCD21820AF49684341180C2070430818D3
:106CC0002F90A030007C2178AB4A4840C006C00F0E
:106CD0002D900020616802F08DFC024660602078F3
:106CE0000CA9C3072A9116A920A82B912C90002B40
:106CF00071D06078002103230427012804D00228E2
:106D000061D0032868D090E0A078012806D003283D
:106D10000AD0052814D0072831D086E023893146CF
:106D200002A801F059FA66E02389314602A801F071
:106D300005FC2389314662682A9801F0FFFB95E043
:106D40000320019100900F462389314602A801F0EB
:106D50000DFD2389314662682A9801F03DFA03202F
:106D6000009001972389314662682B9801F0FEFC60
:106D70002389314662682C9801F02EFA7CE00020CD
:106D8000019000972389314602A801F0EFFC012011
:106D9000019000972389314662682A9801F0E6FC49
:106DA0000020019000972389314662682B9801F0FA
:106DB000DDFC0120019000972389314662682C9800
:106DC00001F0D4FC58E0A078012806D002280DD0AC
:106DD000032817D029E06DE020E02389314602A87E
:106DE00001F0A2FA2A9801F0B1FC3FE02389314674
:106DF00002A801F099FA2389314662682A9801F0C5
:106E0000EBF933E02389314602A801F08DFA23899A
:106E1000314662682A9801F087FA27E0A0780128B5
:106E200006D002280AD0032810D0002035B0F0BDCB
:106E30002389314602A801F081FBD3E70191009339
:106E40002389314602A801F091FCD4E70191009713
:106E50002389314602A801F089FC012001900097A6
:106E60002389314662682A9801F080FC2B9801F052
:106E70006DFC2C9801F06AFC2078C0060AD501222E
:106E80000399D20751400391059951400591079903
:106E90005140079137481B224019D20180180190B8
:106EA0002D99681C0090002915D00198407E01287A
:106EB00008D010E0FF202D3003F03DFC02A801F0C7
:106EC00045FC8FE700980022C0B2114600F04EFA50
:106ED0000A2003F025FC32A82E9033A82C9034A869
:106EE0002B902649280140180027F10040182A90CD
:106EF000384628214843064602ADA91903C930AADD
:106F000003F002F8751931AAE968A86802F0FCFFDD
:106F1000696928692E9A02F0F7FFE969A8692C9A35
:106F200002F0F2FF696A286A2B9A02F0EDFF2A98B4
:106F30007900415A30AB0522002003F019F87F1C7C
:106F4000FFB2042FD4D32D9800280CD00198407E96
:106F5000012808D11E2003F0E3FB00980022C0B2F4
:106F6000012100F003FA0ECC2F98B0300EC00120A2
:106F70005CE70000B0F8FF1F0077010038A10100B6
:106F8000F3B583B00C465C490398182208182038E2
:106F90000290039859495043594A00278018564A8D
:106FA0000190039810321518C000461803985449F0
:106FB0004000103940184038C18F203D6A460120FA
:106FC00002F0B1FF6A461178D0780906401851786E
:106FD00092780904120289184018FDF70AFE172258
:106FE000D243FDF735FF490032464908803AD16760
:106FF00090670022134605F0BBFC03D10298C777C7
:1070000005B0F0BD01980146803980388A6EC36EA4
:107010003046314680388039806FC96F05F0DAFC20
:107020001AD22078322801D30298C7772078401CE2
:10703000C0B2207064280AD32770E87F002806D1E8
:107040000120E87702460021039800F08FF9E87FDD
:107050000128D5D12770D3E70198014680398038BF
:107060000A6F436F3046314680388039806FC96F70
:1070700005F0E2FCEED2019801468038C36F30463D
:1070800080398A6F8038803E806FF16F05F0D4FCC4
:107090001DD21C48017806291AD1C088002817D1B2
:1070A00019484068C10201D5000700E040030028EC
:1070B0000EDA2078401CC0B220700A2808D327704E
:1070C00002990120C877122001F070FF00E02770BC
:1070D000E87F012894D1EF770C49039808181B2109
:1070E000C9014018007E01288AD101221146039867
:1070F00000F03CF984E70000BFF0FF1FC00C002047
:10710000C8A1010098F7FF1F88F1FF1FB0F8FF1F0B
:1071100010B52448017D032930D123490978062977
:107120002CD1C07E002829D1204C2078214609315D
:10713000030004F02EF808050924272A2D30330D0A
:107140001A490931012001E00220491CFFF718FF0C
:107150002078411C21700C2801D300202070134995
:107160000020491C0A5C012A03D0401CC0B2082838
:10717000F8D3082802D1122001F034FE10BD0320FC
:10718000891CE3E70420C91CE0E70520091DDDE7B1
:107190000620491DDAE70720891DD7E70820C91D09
:1071A000D4E700009006002098F7FF1FBEF0FF1FF5
:1071B00070B5040014D00B4D0B492A4601F0BCFBFE
:1071C00000280CD00121084600F01EFC0649E00012
:1071D000401840190822091D05F0DFFA012070BD92
:1071E000002070BDAC0D0000B0F8FF1F10B54422A8
:1071F0000349002001F0A0FB002800D0012010BDB1
:107200006006002070B500210E4E90230D460B2421
:107210000A46002062439219002903D0002801D0B9
:10722000814203D114184034237302E0141840340F
:107230002573401C80B20B28EED3491C89B2092962
:10724000E5D370BDB0F8FF1FF8B500210C460091E2
:10725000FDF7D7FC0025134B2A46FDF762FA124BC7
:107260002A46FDF781FA0F460646104D03E0042C2E
:1072700011D0052C0FD032463B4600200C4904F0BB
:107280007DFD6A4602F040FE6000295A6B460122ED
:10729000002002F06DFE641CE4B20A2CE7D301204A
:1072A000F8BD0000000062400000344010A301005F
:1072B00000002440F8B50D4600210091082835D87B
:1072C000002833D047000B214843194900244618B1
:1072D0002978BA22002002F08DF9C0B22870FDF79B
:1072E00090FC0022134BFDF71CFA0022124BFDF715
:1072F0003BFA02460B460020104904F03FFD6A4667
:1073000002F002FE0E486B46C05B0122001981B2FA
:10731000002002F02DFE301929784030641CE4B2C0
:107320006D1C41730A2CD3D30120F8BD0020F8BD99
:10733000B0F8FF1F0000624000003440000024400D
:10734000FEA2010070B50546002901D0012400E02D
:1073500000240022214600F009F803481B214019AF
:10736000C9014018047670BDB0F8FF1FF8B5054696
:1073700000200090684616460C46C170082D2AD899
:107380002046304306D10021284600F0CDFB0A20DC
:1073900003F0C6F910496800095A6B460422002020
:1073A00002F058FE012C16D1002D0BD00B4C207E84
:1073B000002807D10B216B460422090202F04AFE85
:1073C00001202076002E06D10A2003F0A9F9012120
:1073D000284600F0A9FBF8BDECA201003006002011
:1073E00070B50546002901D0012400E000240122E7
:1073F0002146FFF7BBFF03481B214019C901401874
:10740000047670BDB0F8FF1F10B500200121054AB9
:107410001B23DB011418E418401C80B221760928D4
:10742000F8D310BDB0F8FF1F10B500210846FFF7D4
:107430000DF900200F4A0346182141438918A03155
:10744000401C0B7480B20B770828F5D30021084646
:1074500000F0DAFA002400F0BBFE641CE0B2012167
:10746000FFF78AF9A4B2082CF5D39220FFF7ECFEBF
:1074700010BD0000B0F8FF1F10B506480221C1760C
:10748000417D0177012252020A21032002F030FCE3
:1074900010BD00009006002038B5044600200D46BF
:1074A0000090082C14D8002C12D0082202F0A2F868
:1074B0006946C87007496000095A6B4604220020DB
:1074C00002F0C8FD04486D210019490140184570BB
:1074D00038BD00001AA00100B0F8FF1F01200549C7
:1074E0006D2252010B189B185870401C80B209285D
:1074F000F8D37047B0F8FF1F70B51B4C0520217DF5
:107500000B0003F046FE0619041A192D2F1904F07A
:10751000F3F901F01BFB607D0225002802D0E5761F
:10752000207708E00121084600F06EFA00220A21C7
:10753000032002F0DDFB257570BDE17E0029FBD143
:10754000E07603220121104602F0D2FB607D002884
:1075500005D17F2252020A21032002F0C9FB032039
:10756000207570BD0020FBE79006002010B50828AC
:1075700006D8044AC00080180822001D05F00DF945
:1075800010BD0000B0F8FF1F70B5074D074E002476
:10759000E000411980190822001D05F0FEF8641C66
:1075A000A4B2092CF4D370BD2CA00100B0F8FF1FC9
:1075B000F8B50E46074608282FD8002F06D11748E1
:1075C0003146C28A002002F015F886B214487900CC
:1075D00009181B20C0010818009040886421FCF79E
:1075E0000FFE044664213046FCF70AFE0546AC4215
:1075F00001D9641E02E0AC4201D2641CA4B2642032
:10760000604381B2384600F00DF8AC42EFD131460C
:10761000384600F007F800984680F8BD3006002094
:10762000B0F8FF1FF8B504461BA000687D2200904B
:107630009201002001F0DEFF80B2FDF7E2FA0022A5
:10764000164BFDF76EF80022154BFDF78DF8002262
:10765000144BFDF789F802460B460020124904F04E
:107660008DFB124F05466400385B0E46401C81B20C
:107670006B460422002002F0EDFC6A4628463146A3
:1076800002F042FC395B6B460122002002F070FCE4
:10769000012003F045F8F8BD0000208A0040BF40FB
:1076A00000005940000034400000244088A201003E
:1076B00030B57D218901084B0120084A1B245980DF
:1076C000E4014500AD182D19401C80B269800928DD
:1076D000F7D3D98230BD000030060020B0F8FF1F7C
:1076E000F8B5194E092170880446FCF789FD641C21
:1076F000748000290BD11548164C0178144DA07EDA
:107700000A2905D0FF27062905D00B291AD0F8BD74
:1077100000280AD1F8BDFF28FCD0282101F08AFCFE
:10772000C0B2A0763178884201D9401E02E088427A
:1077300008D2401CC0B2A0764000295A0020FFF7B2
:1077400071FFF8BDA776F8BDD8F0FF1F98F7FF1FAF
:107750009AA201009006002070B5040010D0094DD7
:1077600009492A4601F056F9002808D00649E000E8
:10777000401840190822091D05F00FF8012070BDBE
:10778000002070BDAC0D0000B0F8FF1FF8B54B4EE7
:107790004B4CB088FF21401C80B2B080E77E7D2238
:1077A0007831D20000253B0003F0F3FC0705071FEA
:1077B000395B6F7C0600B580F8BD884208D901F0BE
:1077C0006DFAFF22E57612020A21032002F090FAF8
:1077D000207FFFF7C1FF0028EED0B5800620E076BD
:1077E000207F607501F050FAF8BD88420AD901F097
:1077F0003DFAFF22E57612020A21032002F078FA10
:10780000FEF768FF207FFFF7D3FC0028ECD0E57679
:10781000207F607501F038FAFEF75CFE15E09042BB
:107820000CD901F023FAFF22E57612020B21032086
:1078300002F05EFA207F0121FFF702FA207F00218B
:10784000FFF7FEF90028CFD0E57600220A210320B9
:1078500002F04EFA7F2252020A21032002F048FA77
:10786000F8BD904208D901F019FAFF22E57612021C
:107870000B21032002F03CFA207FFFF705F90028D6
:10788000EED0B5800620E076E4E7884204D901F026
:10789000EDF9FEF709FFE576FFF7A8FC0028DFD039
:1078A000E576F8BD884202D901F0F8F9E57600F0F6
:1078B00009F80028F5D0E5760022CDE7B6F0FF1FE5
:1078C0009006002010B544220349002001F0A2F8E0
:1078D000002800D0012010BD6006002010B51B4814
:1078E0000024447501F0D0F901210846FEF7AEFEF0
:1078F0007D211648890160384180C182144A0020E8
:10790000182141438918A031401C0C7480B20C77B7
:107910000828F5D30121084600F076F8002400F08D
:1079200057FC641CE0B20121FEF726FFA4B2082C2C
:10793000F5D300220A21032002F0DAF97F22520255
:107940000A21032002F0D4F910BD000090060020A7
:10795000B0F8FF1FF0B50E4685B00546B0424ED0D8
:10796000082D4CD8082E4AD8002D48D0002E46D0DD
:107970001820244968434418224698320DCA6F469D
:107980000DC76A461078EF22104018227243511832
:107990008031097E6A46C906C90F09010843107083
:1079A000771EF8B20021FFF777F92246A432F8B229
:1079B0000121FFF771F9FF21284681314843114920
:1079C00000244018039000F003FC0C21039861434D
:1079D0004218E1B2F8B2103AFEF7C0FF641CA4B23C
:1079E000202CF0D30748690008181B21C901401852
:1079F00041883046FFF7DCFD012005B0F0BD0020D6
:107A0000FBE70000B0F8FF1FF8B504460F46022060
:107A1000FEF728F8122001F0E5F9414D002C0BD0BB
:107A200001240B2060434119E0B24D31FFF742FCC5
:107A3000641CA4B2092CF4D39620FFF705FC0024A3
:107A400000F0C6FB1820604346193246B032E0B25F
:107A50000021FFF721F93246BC32E0B20121FFF7E5
:107A60001BF9641CA4B2082CEAD301243526B60104
:107A7000600040198019018EE0B2FEF747FE641CD9
:107A8000A4B2092CF4D31B24E401002F0BD0002650
:107A90007000401900194188F0B2FFF789FD761C8B
:107AA000B6B2092EF4D30026A8190019017EF0B24F
:107AB000FFF796FC761CB6B2092EF5D300246D268E
:107AC0007601281980194178E0B2FFF7E5FC641CC3
:107AD000A4B2092CF5D30026FF213046813148435A
:107AE0000024471900F074FB0C2060433A18FF3261
:107AF000E1B2F0B27132FEF731FF641CA4B2202C67
:107B0000F0D3761CB6B2082EE6D3FEF7E3FC0548A8
:107B10000078062802D10320FDF7A4FFF8BD00007D
:107B2000B0F8FF1F98F7FF1FF3B581B00F4601981B
:107B30001749400040181B21C9014618002F02D0E8
:107B4000012F07D00CE070886421FCF759FB044634
:107B5000002505E0002470886421FCF751FB0546F0
:107B6000AC4201D9641E02E0AC4201D2641CA4B252
:107B70006420604381B20198FFF754FDAC42EFD11D
:107B8000012F03D171880198FFF74CFDFEBD000065
:107B9000B0F8FF1FFFB58BB00F461846149CFDF7D9
:107BA00030F80022664BFCF7BCFD664E00223346DF
:107BB000FCF7DAFD089009912046FDF722F8002233
:107BC0003346FCF7D1FD04460D463846FDF719F85B
:107BD00000225D4BFCF7A5FD00223346FCF7C4FDF7
:107BE00006460F460D98FDF70CF80391029000220F
:107BF000564B30463946FCF7B7FD554E02460B460C
:107C00000020314604F0BAF801915249009003C9AE
:107C10000122FDF71DF9039B029AFCF7F5FF4E4B7D
:107C20000CCBFCF7A1FD05910490012220462946CA
:107C3000FDF70EF904460D460599049804F0C2FDBF
:107C400022462B46FCF790FD039102900022434B05
:107C500009990898FCF788FD02460B46002031463A
:107C600004F08CF806460F46019B009A039902988F
:107C7000FCF77AFD00223A4B09910890FCF744FD8D
:107C800004460D46019B009A03990298FCF7BCFF3D
:107C90000022334B01910090FCF74EFD32463B46EB
:107CA000FCF7B2FF22462B46FCF75EFD0B9A03C29F
:107CB0000B9A059908320B92049803F0D1FD032327
:107CC00000229B07FCF7A0FF32463B46FCF79CFFD7
:107CD00022462B46FCF748FD0B9A214B03C20B9A18
:107CE000009808320B9200220199FCF70DFD3246F4
:107CF0003B46FCF789FF22462B46FCF735FD0B9AE5
:107D0000174B03C20B9A09991646083600220898A9
:107D1000FCF707FD22462B46FCF726FD716030601C
:107D200008360599049803F09BFD0122FDF790F8B1
:107D300022462B46FCF718FD03C60FB0F0BD00002D
:107D4000007097400000594000C0A240000044402D
:107D50000000244080A0010078A001000000344011
:107D60000000F03F10B50120FEF7FAFB03220221CC
:107D7000002001F0BDFF10BD10B50220FDF772FE1E
:107D8000124904200870002002F0A4FA292001F012
:107D900029F8072001F026F8062001F023F8282012
:107DA00001F020F8312001F01DF8322001F01AF81E
:107DB0001C2001F017F8064903224868D2039043BB
:107DC000486000030349C00F087010BDA4F7FF1FEF
:107DD00088F1FF1F70F0FF1F10B50021232001F074
:107DE00019F8232001F0E2F810BDF8B507461D464A
:107DF00014460E46232000F0F5FF3946002002F01D
:107E000027FA3002010E002002F022FA3004010E9F
:107E1000002002F01DFAF1B2002002F019FA05E08C
:107E2000FF21002002F014FA2070641C28466D1E09
:107E3000ADB20028F4D1232001F0B8F8F8BD70B538
:107E400005460C46232000F0CDFF2946002002F015
:107E5000FFF92002010E002002F0FAF92004010EC1
:107E6000002002F0F5F9E1B2002002F0F1F9232040
:107E700001F09CF870BDF8B507461C4615460E4645
:107E8000232000F0AFFF3946002002F0E1F9300274
:107E9000010E002002F0DCF93004010E002002F097
:107EA000D7F9F1B2002002E0297800206D1C02F021
:107EB000CFF92046641EA4B20028F5D1232001F09A
:107EC00075F8F8BD10B50446232000F08BFF21465D
:107ED000002002F0BDF9232001F068F810BD0378FE
:107EE0000A78534003700A785A400A70017851406A
:107EF0000170704710B50446083001F07FFE6068DD
:107F000001F0CEF90F480178FB2211400170017891
:107F10008906890E803101704178EF22114041704D
:107F200001790907890F0229FAD10179C906FCD420
:107F30004178C906C90E417001798022114301714F
:107F400010BD00000040064010B50446083001F0A6
:107F500055FE606801F0A4F909480178FB22114040
:107F600001700179C906FCD401794906FCD5417834
:107F7000C906C90E4170017980221143017110BDFB
:107F80000040064010B50446083001F037FE606836
:107F900001F086F909480178FB221140017001794E
:107FA000C906FCD401794906FCD54178C906C90E39
:107FB0004170017980221143017110BD00400640DB
:107FC00030B50024810701D0154830BD154D302152
:107FD0006971002169700A216972010C29720121FD
:107FE00069702872000A6872084600F053F86879D0
:107FF000800601D50A4CE41D6879C00602D5084800
:108000000F3004436879C00702D00548103004439C
:108010006879800702D5024811300443204630BDFC
:10802000013000000000024070B500241549FCF743
:10803000E7F8401EC1B214484279120601D4134831
:1080400070BDC2785306124A12D4C3781B0607D5F6
:10805000C3788D069B069B0EAD0EAB4200D0144636
:10806000C278890692099201890E0A43C27007E01C
:10807000C07889068006800E890E884200D014469A
:10808000204670BD40420F00000002401430000046
:10809000183000000749CA6801231B041A43CA604C
:1080A000054980224A71002802D048790006FCD593
:1080B00070470000003000F00000024030B500249E
:1080C000820701D01B4830BD1B4D30226A7100224F
:1080D0006A7006226A72020C2A7201226A70287281
:1080E000000A687202206870080A68722972032008
:1080F0006870080E6872080C28721046FFF7CAFFF5
:108100006879800601D50B4CE41D6879C00602D55C
:1081100008480F3004436879C00702D00548103082
:1081200004436879800702D5024811300443204691
:1081300030BD0000013000000000024030B50025D5
:10814000830701D0204830BD204C302363710023C9
:10815000637006236372030C237201236370207221
:10816000000A607202206070080A607221720320A7
:108170006070080E6072080C207204206070100A93
:108180006072227205206070100E6072100C2072F6
:108190000120FFF77FFF6079800601D50A4DED1DB4
:1081A0006079C00602D508480F3005436079C007E2
:1081B00002D00548103005436079800702D5024897
:1081C00011300543284630BD013000000000024058
:1081D00010B502F07BFF10BDFFB587B01046FCF76D
:1081E00010FD04464C480D460368416801221846BC
:1081F000FCF72EFE22462B46FCF706FD04464748B8
:108200000CC82046FCF7B0FA04460D4604F0DAFA32
:10821000019100902046294603F022FB06460F46B6
:10822000019B009AFCF770FA00223D4BFCF76CFAB8
:1082300004460D4614210A98FBF7E2FFFCF7E1FC27
:1082400002460B460020374903F098FD0290039147
:10825000079A08980832002837D0012833D1002126
:1082600007980B460AC00792019B009A039902984F
:10827000FCF7CAFC22462B4602910390FCF774FAE5
:10828000079A03C2079A0398083207920299224676
:108290002B46FCF769FA079A3B4603C2079A00206F
:1082A0000146083203C20792324601990098FCF752
:1082B00038FA00221A4BFCF73FFA22462B46FCF70D
:1082C00053FA079A03C20BB0F0BD002107980B4682
:1082D0000AC007920A46124B30463946FCF714FA98
:1082E0008C46059101230399DB070246049059400F
:1082F00063460298FCF788FC22462B46FCF734FACA
:10830000079A03C2079A039B08320792029A0599BB
:108310000498FCF779FCBAE780A0010078A001007E
:108320000000F03F00002440FFB589B01046FCF784
:1083300068FC04467B480D460368416801221846E4
:10834000FCF786FD22462B46FCF75EFC0446764889
:108350000CC82046FCF708FA04460D4604F032FA31
:1083600006460F462046294603F07AFA019100900E
:1083700000206E4904F074FA6D4C02460B46002052
:108380002146FCF7F1F90122FCF762FD02460B469B
:1083900030463946FCF7E8F9002223460391029063
:1083A000FCF7B2F904460D4614210C98FBF728FFA0
:1083B000FCF727FC02460B4600205E4903F0DEFC7A
:1083C000064609980F4608300A990790002954D0AC
:1083D000012950D100205649019B009AFCF7A1F9D0
:1083E00022462B4605910490FCF7BEF932463B46E7
:1083F000FCF70AFC0022D243FCF72AFD099A2B461F
:1084000003C2079A0992224605990498FCF7ACF931
:1084100032463B46FCF7F8FB099A2B4603C2099A01
:1084200005990832099222460498FCF79DF93246D4
:108430003B46FCF7E9FB0022D243FCF709FD099A11
:108440003B4B03C2099A039916460836002202984C
:10845000FCF767F922462B46FCF786F903C6012292
:10846000083E01990098FCF7F3FC22462B46FCF7E6
:108470007BF9083603C60DB0F0BD00222C4B0199E4
:108480000098FCF741F922462B4605910490FCF731
:108490006BF932463B46FCF7B7FB0022D243FCF7B0
:1084A000D7FC099A03C2079A099200202249019B2E
:1084B000009AFCF736F922462B46FCF755F932466E
:1084C0003B46FCF7A1FB099A2B4603C2099A059982
:1084D0000832099222460498FCF746F932463B4698
:1084E000FCF792FB0022D243FCF7B2FC099A104B36
:1084F00003C20022099E03990298FCF712F9224652
:108500002B46FCF731F9F160B06001220199009827
:10851000FCF79EFC22462B46FCF726F97161306180
:10852000A9E7000080A0010078A001000000084039
:108530000000F03F000024400000F0BFFFB589B00C
:108540001046FCF75EFB04467B480D460368416815
:1085500001221846FCF77CFC22462B46FCF754FB14
:10856000044676480CC82046FCF7FEF804460D4643
:1085700004F028F906460F462046294603F070F914
:108580000191009001210020890704F069F96C4CE9
:1085900002460B4600202146FCF7E6F80122FCF7D4
:1085A00057FC02460B4630463946FCF7DDF8002200
:1085B000234603910290FCF7A7F804460D461421C8
:1085C0000C98FBF71DFEFCF71CFB02460B46002037
:1085D0005C4903F0D3FB064609980F4608300A9918
:1085E0000790002954D0012950D100205449019B03
:1085F000009AFCF796F822462B4605910490FCF76A
:10860000B3F832463B46FCF7FFFA0022D243FCF7B0
:108610001FFC099A2B4603C2079A09922246059924
:108620000498FCF7A1F832463B46FCF7EDFA099AAC
:108630002B4603C2099A05990832099222460498EA
:10864000FCF792F832463B46FCF7DEFA0022D243B2
:10865000FCF7FEFB099A3A4B03C2099A03991646A6
:10866000083600220298FCF75CF822462B46FCF7FD
:108670007BF803C60122083E01990098FCF7E8FB4D
:1086800022462B46FCF770F8083603C60DB0F0BD45
:1086900000222B4B01990098FCF736F822462B4616
:1086A00005910490FCF760F832463B46FCF7ACFAC3
:1086B0000022D243FCF7CCFB099A03C2079A099225
:1086C00000202149019B009AFCF72BF822462B46FB
:1086D000FCF74AF832463B46FCF796FA099A2B46D5
:1086E00003C2099A05990832099222460498FCF7B8
:1086F0003BF832463B46FCF787FA0022D243FCF7B0
:10870000A7FB099A0E4B03C20022099E0399029807
:10871000FCF707F822462B46FCF726F8F160B0601C
:10872000012201990098FCF793FB22462B46FCF7A7
:108730001BF871613061A9E780A0010078A00100F9
:108740000000F03F000024400000F0BF00210A4676
:1087500006C001604160816001614161024A81613E
:10876000C260C161704700000000F03FFFB589B0F2
:108770001046FCF746FA6A4E04460D4603CE012227
:10878000083EFCF765FB22462B46FCF73DFA654B9D
:108790000CCBFBF7E9FF04460D4604F013F807463F
:1087A00003912046294603F05BF80090019113984D
:1087B000FCF727FA00225C4BFBF7A6FF0546029167
:1087C0001298FCF71EFA02460B4603CEFBF7CCFFCD
:1087D0002A46029BFCF718FA03F0F4FF0122FCF78B
:1087E00037FB524C02460B4600202146FBF7BCFFEC
:1087F0000122FCF72DFB02460B4638460399FBF796
:10880000B3FF0022234603910290FBF77DFF04464D
:108810000D4614210C98FBF7F3FCFCF7F2F9024625
:108820000B460020424903F0A9FA064609980F4674
:1088300008300A990790002952D001294ED1002012
:108840003A49019B009AFBF76CFF22462B460591A3
:108850000490FBF789FF32463B46FCF7D5F900222E
:10886000D243FCF7F5FA099A03C2079A09920599CF
:10887000049822462B46FBF777FF32463B46FCF72F
:10888000C3F9099A2B4603C2099A0599083209923D
:1088900022460498FBF768FF32463B46FCF7B4F9E2
:1088A0000022D243FCF7D4FA099A204B03C20022DB
:1088B000099E03990298FBF734FF22462B46FBF7EB
:1088C00053FFF160B060012201990098FCF7C0FAF3
:1088D00022462B46FBF748FF716130610DB0F0BDB9
:1088E0000022124B01990098FBF70EFF22462B46FF
:1088F00005910490FBF738FF32463B46FCF784F9BC
:108900000022D243FCF7A4FA099A03C2079A0992FB
:1089100000200849019B009AFBF703FFA9E700002C
:1089200080A0010078A001000000E03F0000F03FBF
:10893000000024400000F0BFF8B5354C16460B4649
:108940000A4667780103780805024919FF2F00D00D
:10895000AA18F51DF8352D0A401CA84202D2FF20A6
:10896000013000E0F0B2102F29D00BDC3B0002F008
:1089700010FC10262B262B262B262B262B262B26CF
:108980002B262B4C192F1FD008DC113F3B0002F087
:1089900000FC081B161B161B161B163C1D2F13D0A4
:1089A00006DC1A2F0BD01B2F0ED01C2F2DD106E06A
:1089B0001E2F04D01F2F07D0FF2F26D112E0062034
:1089C000FFF780FA60780AE003460320FFF70DFA0C
:1089D00060784108491CA94201D1FF2000E0401CF9
:1089E000607012E00021121D0846361F04E0157861
:1089F000401C691880B2521CB042F8DB0020607045
:108A00001868884201D10120F8BD0020F8BD00009F
:108A10008FF0FF1FF7B5474F82B016463978039A9B
:108A2000002904D0491E0906090E39707BD141493D
:108A3000891C8B780103F01DF8305C08050A002CB6
:108A40000ED05C08200209188218FF39FF3A01395C
:108A5000013AAC4202D2FF20013000E0F0B20090B7
:108A6000344C1846A41C112B4FD00CDC030002F030
:108A700090FB112A3F464C464C464C464C464C46D1
:108A80004C464C465A001A2839D009DC1846123890
:108A9000030002F07EFB08343A343A343A343A4860
:108AA0001F2832D008DC1B282FD01C2827D01D28D7
:108AB0002BD01E2B37D122E0202820D0212824D0F3
:108AC000FF2B30D132E000200399121D361F0860C1
:108AD00006E015780B68401C5B1980B2521C0B60D5
:108AE000B042F6DB0620FFF7EDF90120A0701AE096
:108AF0002020FFF7A4F9192038700220F6E706209D
:108B0000FFF7E0F9A078401CF0E70220009BFFF798
:108B1000B2F9A0784108A94201D1FF2000E0401C31
:108B2000A07006203870002005B0F0BD0020A070B5
:108B30000120F9E78DF0FF1F10B5FFF741FA00287B
:108B400001D0002010BD012010BD000008B569460D
:108B5000032000F055F80098082800D900200149AA
:108B6000487508BD90060020F8B5064614460D4627
:108B7000800741D112E0284603F0DEFE03462D1D9A
:108B8000284603F0D9FE0246194630462D1DFFF750
:108B9000D5FA002830D1083CA4B20836E008EAD162
:108BA0000CE0284603F0C8FE014630462D1DFFF7B5
:108BB00085FA002820D1241FA4B2361DA008F0D1C8
:108BC000002C1BD000210846FF2701E0002C07D015
:108BD0002A78C3009A40641E1143A4B26D1C03E0BE
:108BE000C3003A469A401143401C0428EED3304655
:108BF000FFF764FA002801D00020F8BD0120F8BD7D
:108C0000012200B540025204101A00F035F800BDF0
:108C1000012340025B04181A03E003780B70401C28
:108C2000491C1346521E92B2002BF6D10120704708
:108C300070B50D460121400249040C1A2046FFF789
:108C40007BFF2946204600F02FF870BD70B50E4618
:108C50000121400249040C1A15462046FFF76CFF1B
:108C60002A4631462046FFF77FFF70BD01490020AC
:108C7000487070478FF0FF1F820701D000207047B7
:108C8000006808600120704710B50348417D03204B
:108C9000FFF7CEFF10BD0000900600200149002024
:108CA000887070478FF0FF1F10B5FFF707FA002894
:108CB00001D0002010BD012010BD10B5FCF7B5FBA0
:108CC000FDF769FCFCF7ACFFFDF77AFC02F021F937
:108CD00001F060FB00F0CAFFFCF795FB00F084FC9C
:108CE000FCF798FAFFF778F810BD00218160416128
:108CF00001604A1E82614160C160704710B5002A60
:108D000006D0032A04D0012A08D0022A06D00BE09C
:108D100043690B43436183690B4304E043698B431D
:108D2000436183698B4383612B4BC4182B4B04D065
:108D3000402C0AD0802C15D10FE0022A9A6802D06C
:108D40008A439A600EE00A43FBE7022ADA6802D0FF
:108D50008A43DA6006E00A43FBE7022A1A6939D03F
:108D60008A431A611C4A5242904217D1CA0403D561
:108D70005A69012422435A618A0403D55A6902249C
:108D800022435A61CA0103D55A69042422435A6115
:108D90008A0103D55A69082422435A61104A904235
:108DA00017D1C80703D058691022104358618807AB
:108DB00003D55869202210435861C80103D558696A
:108DC000402210435861880103D558698021084327
:108DD000586110BD0A43C4E70010F0BF0090044082
:108DE00040F00F400121202802D28140084805E0D0
:108DF000402805D2203881400548403081607047C6
:108E00004828FCD24038814001488030F6E7000015
:108E100000F00F4030B50124624B20282DD20122F2
:108E2000614D824000290FD0012913D002291AD0A8
:108E3000032921D1696911436961A9691143A961B4
:108E400099689143996065E0686910436861A86911
:108E5000104304E0686990436861A8699043A86181
:108E60009868904307E0686990436861A8699043F7
:108E7000A86198681043986030BD402833D24A4AB0
:108E800020384032C0B2002911D0012916D0022961
:108E90001ED00329F0D15569214681400D4355610B
:108EA00095690D439561DA688A43DA6032E0516969
:108EB0008440214351619069204305E05169844019
:108EC000A14351619069A0439061D868A04308E034
:108ED00051698440A14351619069A0439061D86871
:108EE0002043D86030BD304A40388032C0B20029BB
:108EF0001ED0012923D002292BD00329F2D1556994
:108F0000214681400D43556195690D4395611A696C
:108F10008A431A6120283BD026DC0C282ED00D284D
:108F200030D0182831D01928DCD15869082123E025
:108F300051698440214351619069204305E05169A2
:108F40008440A14351619069A04390611869A04396
:108F500008E051698440A14351619069A043906148
:108F600018692043186130BD212814D0382815D045
:108F70003928F8D158698021084301E05869204315
:108F8000586130BD58690221F6E758690421F3E7BA
:108F900058691021F0E758692021EDE75869402110
:108FA000EAE700000090044000F00F400121202873
:108FB00002D28140084805E0402805D2203881408F
:108FC00005484030416070474828FCD24038814015
:108FD00001488030F6E7000000F00F404109074AE1
:108FE000890051580969C206D20E01209040014201
:108FF00001D00120704700207047000074F0FF1F6F
:109000000246002002E013785840521C0B46491ECD
:10901000C9B2002BF7D17047884200D80846704784
:10902000034A000110B58018012200F001FF10BDB5
:1090300048F1FF1F884200D90846704738B50446FA
:1090400069460120FFF7DCFD0099A14201D1012012
:1090500038BD002038BD0000F8B5074600213C208F
:10906000FFF7D8FE00213B20FFF7D4FE8024200527
:10907000124D4600AE6000F0A8F8274201D06860AB
:1090800000E0A86000F0A1F86E6000F09EF86408AF
:10909000F0D1AE6001213B20FFF7BCFE00F095F857
:1090A0006E6000F092F82869000100D4012400F0FD
:1090B0008CF8AE6000F089F82046F8BD40F00F4013
:1090C00070B500213C20FFF7A5FE00213B20FFF7F3
:1090D000A1FE0126084CF6066660A50565600A201B
:1090E00001F029FBA6600A2001F025FBA5600A20FB
:1090F00001F021FB70BD000040F00F4070B5012170
:109100003C20FFF787FE0126114D36076E600024D4
:1091100006E00A2001F00FFB641CE4B2142C02D21A
:109120002869C000F5D500213C20FFF773FE00211F
:109130003B20FFF76FFE0120C006A86000F045F855
:109140006E6000F042F8686000F03FF870BD00000B
:1091500040F00F40F8B50026074635463446FFF785
:10916000AFFF3846FFF778FF00280BD06D1CEDB23B
:10917000FFF7C4FF641CE4B2032CF0D3B54204D360
:109180000120F8BD761CF6B2F4E70020F8BD70B5FA
:1091900015460E460446FFF793FF2046FFF75CFF97
:1091A00000280ED0002406E0305DFFF755FF0028B0
:1091B00007D0641CE4B2AC42F6D3FFF79FFF012056
:1091C00070BDFFF79BFF002070BD00BF00BF00BF58
:1091D00000BF00BF00BF00BF00BF00BF00BF00BF97
:1091E00000BF00BF00BF00BF00BF00BF00BF00BF87
:1091F00000BF00BF00BF00BF00BF00BF00BF00BF77
:1092000000BF00BF00BF00BF00BF00BF00BF00BF66
:1092100000BF00BF00BF00BF00BF00BF00BF00BF56
:1092200000BF00BF00BF00BF00BF704772B601F0B3
:10923000E5F8002001F0BAF9012001F0B7F90220A9
:1092400001F0B4F9002001F021F9012001F01EF92C
:1092500000F06AF8FCF764F900B5017802290AD039
:10926000EF2203290ED0052912D00C484178C906F7
:10927000C90E417000BD017A302211430172FEF720
:1092800063FE00BD017A11400172FEF77BFE00BD56
:10929000017A11400172FEF72DFE00BD004006402C
:1092A00030B5124B7D24C51A1149C722640198427A
:1092B00006D009DC202814D0001B0ED0A04213D108
:1092C0000878104018300EE00A48281801D0A04253
:1092D0000AD108781040203005E00878104010309E
:1092E00001E008781040087030BD00001027000031
:1092F0000040064090E8FFFF06498870CA78C00524
:1093000052085200C00F0243CA7008794006FCD5CB
:1093100070470000004006400248017804221143D3
:10932000017070470010034010B502490220FFF79A
:109330007FFC10BD5555AAAA1CB504460622094952
:1093400003F01AFA01280CD0062269460420FFF720
:109350005FFC06226946204603F00EFA012800D081
:1093600000201CBDE4CA000010B5012001F0D8F9AE
:10937000012001F0D5F9012001F0D2F9084CE06894
:109380006104884202D1012001F0CAF9A0682021BD
:109390000843A060A06804210843A06010BD00003D
:1093A0000090074010B501240A4B24060A496200C8
:1093B000984201D10C6000E00A60002101608160E8
:1093C000416006499842486901D1A04300E09043BA
:1093D000486110BD0090074080E100E0008004403B
:1093E000F0B5C1B00E460446FF220132444968463A
:1093F000FAF7AAFE4348444A844206D15069012143
:10940000090608435061002508E04048844205D120
:109410005069012149060843506101250020A060E0
:1094200031180A7992073FD52368012282401343FD
:109430002360636893430A79D207D20F82401343B3
:109440006360EA016B46D2188300D758002D02D022
:10945000012D16D028E01F22D20693690122BA40BE
:1094600093431F27FF06BB617B6993437B610979A7
:10947000274BC907996801D0914300E011439960D7
:1094800012E0244A93690122BA40224F9343BB6100
:109490007B6993437B6109791D4BC907D96801D06A
:1094A000914300E01143D960401C2028B8D3042028
:1094B000A0603078A168C007C00F0143A160307878
:1094C000A168C006C00F00010143A1603078A16807
:1094D0008006C00F40010143A160307880070DD5A0
:1094E000A06802210843A06006490B488C4202D1C3
:1094F0000121090601E001214906016041B0F0BDEA
:1095000078A30100009007400080044000A00740BD
:1095100000900440400000F800E100E010B504466F
:109520000079C10617D52278A1788A420DD0A270A1
:1095300081070BD08107890F012901D0022904D1AD
:109540007D216171DF210840207110BD012110468D
:1095500000F092FB10BD8107890F022901D001297B
:1095600008D1800606D46079712803D820780121BB
:1095700000F082FB2046FCF7FDFF10BD70B50446ED
:109580004079002817D0401E0006000E607112D1ED
:109590002079810710D08007800F2025012810D066
:1095A000022808D16078012100F066FB2079284369
:1095B00020710A20607170BD2078012100F05CFBF1
:1095C00070BD6078012100F057FB2079284320719D
:1095D00070BD10B5012803D01A20FFF703FC10BDA1
:1095E0001A20FFF7E3FC10BD10B500211A20FFF789
:1095F00011FC10BD00B5FFF70FFD01461046FFF747
:1096000019FD00BDF8B5474C002569460120FFF75C
:1096100007FD00287DD0684640880026C1B2020AB6
:1096200068460078012802D00C2851D10DE00129AC
:1096300042D005294CD13C480525027B2270407B55
:109640006070A670E670267142E03848092933D070
:1096500008DC0B0001F09DFD093C19303030303042
:1096600030303C000F2927D008DC0A2924D00B29F0
:1096700025D00C2920D00E292AD11DE087291BD006
:109680008B291CD08C2923D116E001252270802A39
:1096900004D0812A06D0822A0AD019E002786270AA
:1096A000407802E082786270C078A07003250FE0F5
:1096B000027962704079F8E72270012508E0027AA9
:1096C0002270427A6270827AA270C07AE0700425B9
:1096D000144C55201E3C2076AA206076ED1DA57600
:1096E000E07E6D1E401CE0766846007820772046BC
:1096F00061771830E9B20746FFF782FC2546A035AE
:10970000E873A27E214617315054A27E39460120CB
:1097100000E006E001F063FC0120E8742E746E7432
:10972000A874F8BD180C002050060020DC060020AC
:10973000F0B591B0FC4C002569460320FFF770FCA2
:1097400000287DD0694648880B78C7B2000A012BF3
:109750000DD06F21F54A490107265118760292195A
:109760000A2B16D00B2B6CD00C2B11D135E1032F0B
:1097700002D0112FF9D104E00F252A46ECA1204692
:1097800004E0EF4920460D78491C2A4603F005F80D
:109790005EE1E64E3B0001F0FCFC0F090B121D429E
:1097A0007782969EA5BDC4C8D3E51C002070ECE06E
:1097B000087D032801D000202FE101202DE1207039
:1097C0000B21484381190B22601C4C3102F0E5FF4C
:1097D0000C253DE14108182220705143C007C00FFD
:1097E0000C228919504308180146A0310A7C627086
:1097F0004A7CA270897CE1708030416B090E217136
:10980000416B090C6171818E090AA171818EE17130
:10981000018F090A2172008F60720A2518E141093F
:10982000FF22813220705143C006C00E0C228919DC
:10983000504309180846FF306130027C627001E035
:109840002CE196E0407CA0700846FF304130428E0B
:10985000FF31120AE270428E227101314A6F120EFC
:1098600062714A6F120CA2714A6F120AE271496F5B
:109870002172018F090A6172018FA172418F090A59
:10988000E172408F207359E020704000811935202B
:1098900080010818018E090A6170008E3EE04100C7
:1098A0008A191B21C901207051184A880325120A00
:1098B00062708978A17000288BD1A248C18A090AF8
:1098C000E170807D6EE020706D21301849014018F4
:1098D00040786070BBE0207031181B20C001081870
:1098E000007EF6E72070082805D8C00081190822FC
:1098F000601C091D0AE001468139072908D8400685
:10990000800D9149801941180822601C02F045FF22
:1099100009259DE0117A2170517A6170A0700325AC
:1099200096E08A4909782170D3E701252070012843
:1099300005D10C228649601C02F02FFF0D2587E01F
:1099400001252070012802D0022805D080E081483E
:10995000007860702820E1E77A482030017B617050
:10996000407BDBE77C484068000300D525E7022008
:1099700053E03B0001F00DFC05040B19512E6C0067
:109980002070822801D0087FA3E7487DA1E72070DE
:109990001068000E60701068000CA0701088000A3B
:1099A000E07010782071052552E02070487F6070CB
:1099B0004A7F5E48920102251218002006E01378C3
:1099C00063556D1C401CEDB2C0B2521C8B7F8342AC
:1099D000F5D83DE02070487F7BE7594E2036082FB0
:1099E0006CD009DC5D4A01923B0001F0D2FB0831EA
:1099F00016191B1E2B5963310C2F0DD006DC092FB5
:109A000064D00A2F6CD00B2F22D174E0872F51D055
:109A10008B2F70D08C2F1BD1A6E02070012517E072
:109A2000307CFAE7707C207001254C490222891EA7
:109A3000204602F0B2FE0222A01C019902F0ADFE07
:109A40002D1D05E002222046019902F0A6FE022506
:109A5000354E5520B61F3070AA207070ED1DB570C0
:109A6000F0786D1E401CF070684600783071777198
:109A7000E9B23046FFF7C4FA344640346074B27835
:109A8000711E50543648B278491C007801F0A7FA8C
:109A9000012060750021A174E174207511B0F0BD42
:109AA0002E4D20468C3529462A7B0D3102F075FE5D
:109AB0002D7BCDE7B07B2070F07B0AE72749B27D94
:109AC000C91C204602F069FEB57DC1E7234D204642
:109AD0002C3529462A7A093102F05FFE2D7AB7E744
